:020000040800F2
:10000000A02E002001010008910D00081D0D000820
:100010008D0D000885020008E91B000800000000A3
:10002000000000000000000000000000DD160008D5
:100030008902000800000000C10D00081117000827
:100040001B0100081B0100081B0100081B01000820
:100050001B0100081B0100081B0100081B01000810
:100060001B0100081B0100081B0100081B01000800
:100070001B0100081B0100081B0100081B010008F0
:100080001B0100081B0100081B0100081B010008E0
:10009000251800081B0100081B0100081B010008AF
:1000A0001B0100081B0100081B0100081B010008C0
:1000B0001B0100081B0100081B0100081B010008B0
:1000C0001B0100081B0100081B0100081B010008A0
:1000D0001B0100081B0100081B0100081B01000890
:1000E0001B0100081B0100081B010008DFF80CD0F1
:1000F00000F07AF800480047751E0008A02E002086
:100100000648804706480047FEE7FEE7FEE7FEE7B1
:10011000FEE7FEE7FEE7FEE7FEE7FEE791170008D1
:10012000ED00000840EA01039B0703D009E008C97D
:10013000121F08C0042AFAD203E011F8013B00F8AC
:10014000013B521EF9D27047D2B201E000F8012BF8
:10015000491EFBD270470022F6E710B513460A4647
:1001600004461946FFF7F0FF204610BD30B504469F
:100170000020034600E05B1C934203D2E05CCD5CB0
:10018000401BF8D030BD2DE9F05F054600209246B7
:100190009B4688460646814640241BE02846414649
:1001A0004746224600F041F853465A46C01A91414C
:1001B00010D311461846224600F028F82D1A67EB96
:1001C00001084F4622460120002100F01FF817EBDE
:1001D00000094E41201EA4F10104DFDC48463146EF
:1001E0002A464346BDE8F09F064C074D06E0E0680E
:1001F00040F0010394E8070098471034AC42F6D36E
:10020000FFF778FF2C3A00084C3A0008202A04DB5C
:10021000203A00FA02F1002070479140C2F1200319
:1002200020FA03F3194390407047202A04DB203A58
:1002300021FA02F00021704721FA02F3D040C2F106
:100240002002914008431946704730B58C1810F8C9
:10025000012B12F00F0301D110F8013B120906D156
:1002600010F8012B03E010F8015B01F8015B5B1E45
:10027000F9D101E001F8013B521EFBD1A142E6D3C6
:10028000002030BDFEE7000070470000EFF3108053
:1002900072B600BFFEE70000B0B5044600F01CF9DE
:1002A000054640F21800C2F200000078611C18BF39
:1002B000044400BF00F010F9401BA042FAD3B0BDC7
:1002C0002DE9F04F84B00E680290002E00F00181FD
:1002D00040F2004741F2004202984FF6FF7EC4F21E
:1002E0000107C4F20102042300240125C1F2100E0B
:1002F0004FF0000A4FF00009904208BF032300931B
:100300000AE000BF01250E680AF1010A36FA0AF276
:1003100004F1040400F0DD8005FA0AFB16EA0B087C
:10032000F1D04A68724511DC122A54D80298DFE8ED
:1003300002F0350A434753535353535353535353C4
:100340005353534A4E00D1F80C9045E04FF6FF73DB
:10035000C1F221039A4210DC0023C1F2110302987A
:100360009A421BD00023C1F212039A4216D00023F6
:10037000C1F221039A4211D02EE00023C1F22203E0
:1003800002989A420AD00023C1F231039A4205D062
:100390000023C1F232039A421ED100BF8A6842B1E3
:1003A000012A14BFC0F814B0C0F810B04FF008090B
:1003B00012E04FF004090FE0CA6802F108090BE0EF
:1003C0004FF0000908E0CA6802F1040904E0CA68B5
:1003D00002F10C0900E0029822460346B8F5807F3E
:1003E00024BF203A04331D684FF00F0C0CFA02F6BC
:1003F000B54309FA02F22A431A60CA79D2067FF598
:1004000081AF41F21803CDF80490C4F202031A68D8
:10041000F34642F001021A601A684FEA9A0E02F09F
:1004200001020392039AA7F57E72B94652F82E3064
:1004300004F00C0740F600060CFA07F5C4F20106BA
:10044000B04223EA050C10D040F60043C4F2010389
:1004500098420CD041F20003C4F201039842009B81
:100460004FF0010508BF022303E0002300E0012351
:100470000125BB4043EA0C0342F82E304E684F463C
:10048000F203D9F8002054BF22EA080242EA080227
:10049000DDF804903A607A68B30354BF22EA080298
:1004A00042EA08027A60F302BA6854BF22EA0802FC
:1004B00042EA0802B30240F20C43BA60C4F20103FC
:1004C000DE461A6854BF22EA080242EA08021A60AD
:1004D00019E704B0BDE8F08F42F69C20C2F200009C
:1004E0000068704740F2180042F69C21C2F20000FA
:1004F000C2F2000100780A681044086070470000EA
:1005000080B542F20000C4F20200016841F010011F
:100510000160032000F066F8002000F005F800F00C
:100520002BF8002080BD0000B0B540F21802C2F2E6
:10053000000240F204011278C2F200014FF47A7313
:100540000968B3FBF2F20446B1FBF2F1084600F091
:1005500071FB0F2C4FF001050CD858B94FF0FF304C
:1005600021460022002500F02DF840F21C00C2F2C6
:10057000000004602846B0BD82B041F21800C4F209
:1005800002000168022241F001010160016801F0EE
:10059000010101910199416841F080514160406839
:1005A00000F08050009000980420C4F2010001681F
:1005B00062F31A61016002B07047000080B501F07B
:1005C00015FB80BD70B514460D46064601F01EFBB6
:1005D0002946224600F0DEFB0146304601F01EFBB4
:1005E00070BD000080B501F02BFB80BD2DE9F0410E
:1005F00082B00446007841F21C06C007C4F202062D
:100600004ED03068C0000BD430684FF0010840F085
:1006100080503060306800F080500190019801E017
:100620004FF0000847F20007C4F200073868C00521
:1006300012D4386840F480703860FFF74DFF0546EB
:100640003868C00508D4FFF747FF401B6428F7D976
:10065000032002B0BDE8F081706810F4407012D041
:10066000616801F4407188420DD0706840F24042E8
:10067000C4F24222012320F4407113600023C0071A
:100680001360716029D17068616820F4407008437C
:10069000B8F1000F706003D0306820F080503060F7
:1006A0002068810707D556F8181CA26821F440413C
:1006B000114346F8181CC00603D4002002B0BDE860
:1006C000F08156F8180CE16820F48000084346F8E1
:1006D000180C002002B0BDE8F081FFF7FDFE0546D2
:1006E00041F2883770688007CDD4FFF7F5FE401BD4
:1006F000B8424FF00300F5D9ECE700002DE9F043D4
:1007000081B0002800F0878042F20008C4F202089D
:100710000446D8F800000D4600F0070088420CD2CD
:10072000D8F8000020F007002843C8F80000D8F8E7
:10073000000000F00700A8426DD1206841F20409D2
:100740008107C4F2020917D5410705D5D9F8001071
:1007500041F4E061C9F80010010705D5D9F800108F
:1007600041F46051C9F80010D9F80010A26821F0D6
:10077000F0011143C9F80010C00745D1D8F80000B6
:1007800000F00700A8420CD9D8F8000020F00700BC
:100790002843C8F80000D8F8000000F00700A8427D
:1007A00039D12068410707D5D9F80010E26821F453
:1007B000E0611143C9F80010000708D5D9F800001E
:1007C000216920F4605040EAC100C9F8000000F03F
:1007D00077F8D9F8001043F6AA02C1F30311C0F666
:1007E0000002515C40F2040220FA01F140F21C00C8
:1007F000C2F200000068C2F200021160FFF794FE2E
:10080000002001B0BDE8F0836068012807D159F8E5
:10081000041C89030CD4012001B0BDE8F08359F811
:10082000041C022802D18901F5D501E08907F2D51F
:10083000D9F8001021F003010843C9F80000FFF7C0
:100840004BFE064641F28837D9F80000616800F097
:100850000C00B0EB810F91D0FFF73EFE801BB84239
:10086000F2D9032001B0BDE8F083000040F204009B
:10087000C2F200000068704780B5FFF7F7FF41F251
:100880000401C4F20201096843F6BA02C1F302216D
:10089000C0F60002515CC84080BD000080B5FFF783
:1008A000E5FF41F20401C4F20201096843F6BA020D
:1008B000C1F3C221C0F60002515CC84080BD0000F7
:1008C00041F2040CC4F2020CDCF8003003F00C001E
:1008D000082841F20020C0F27A0018BF7047C3F325
:1008E00083420AA18A5CD90305D440F60010C0F205
:1008F0003D0050437047DCF8001008A3C1F34041AD
:10090000595C5043B0FBF1F0704700BF020304058F
:10091000060708090A0B0C0D0E0F1010010200004B
:100920002DE9F04182B0002800F0C4800446007830
:1009300041F20006C007C4F2020643D0706800F01E
:100940000C00042817D0706800F00C00082802D1B1
:100950007068C0030FD465689DB1B5F5803F06D0BF
:100960003068B5F5A02F0DD140F48020306030689C
:1009700040F480300CE03068800323D5606808BB09
:1009800098E0306820F480303060306820F48020B7
:100990003060FFF7A1FD002D054610D030688003C0
:1009A00010D4FFF799FD401B6428F7D908E100BF78
:1009B000FFF792FD401B64284FF0030077D83068A2
:1009C0008003F5D42078800718D5706810F00C0FDC
:1009D00007D0706800F00C00082826D17068C003AA
:1009E00023D43068800702D52069012862D130689D
:1009F000616920F0F80040EAC1003060207800070B
:100A00003DD5A06938B30020C4F242200121C0F8CE
:100A10008014FFF761FD0546706A80072DD4FFF74B
:100A20005BFD401B0228F7D9CAE02069002840F28C
:100A30000000C4F2422000F09A8001210160FFF71B
:100A40004BFD054630688007D1D4FFF745FD401BBC
:100A50000228F7D9B4E00020C4F242200021C0F8F7
:100A60008014FFF739FD0546706A800707D5FFF748
:100A700033FD401B0228F7D9A2E000F0A3F920784B
:100A800040071BD4E5698DB1706800F00C000828A0
:100A90004CD1012D0ED07068216A00F480328A4258
:100AA00008D1616A00F47010884203D1002002B0BE
:100AB000BDE8F081012002B0BDE8F081F069C0001E
:100AC0000BD4F0694FF0010840F08050F061F069FC
:100AD00000F080500190019801E04FF0000847F2CB
:100AE0000007C4F200073868C00510D4386840F425
:100AF00080703860FFF7F0FC054600BF3868C0051D
:100B000005D4FFF7E9FC401B6428F7D958E0E568F5
:100B1000002D3DD0012D05D0306A052D39D140F092
:100B200004003062306A40F0010038E00027C4F26F
:100B3000422700203866FFF7CFFC022D05460BD177
:100B40003068800154D5FFF7C7FC401B02284FF0E6
:100B50000300F5D9ABE700BF30688001A6D5FFF7E9
:100B6000BBFC401B02284FF00300F5D99FE7002192
:100B70000160FFF7B1FC0546306880077FF53EAFA6
:100B8000FFF7AAFC401B02284FF00300F4D98EE7C0
:100B9000306A20F001003062306A20F004003062D8
:100BA000FFF79AFC002D054641F2883714D000BFAC
:100BB000306A800713D4FFF78FFC401BB842F7D987
:100BC000032002B0BDE8F081FFF786FC401BB8426D
:100BD0004FF003003FF66BAF306A8007F4D4B8F1F2
:100BE000000F3FF44FAFF06920F08050F06149E70B
:100BF000206AB0F5803F05D17168A26821F4003108
:100C0000114371607168626A21F4741110430843E2
:100C1000706001203866FFF75FFC04463068800191
:100C20003FF544AFFFF758FC001B02284FF00300CC
:100C3000F4D93CE780B500F053FD80BD002804BF27
:100C40000120704710B5044690F8390028B90020FB
:100C500084F83800204600F021F8242084F8390078
:100C60002068C16821F40051C160204600F092FD67
:100C70002068016921F490410161416921F02A0154
:100C80004161C16841F40051C16000202021E0634E
:100C900084F8391084F83A1010BD000070B586B0A1
:100CA000002640F600040596CDE90366C4F201046F
:100CB000006804F540518842029601D006B070BD2C
:100CC00041F21800C4F20200016802AD41F4804113
:100CD0000160016801F4804101910199016841F0CE
:100CE000040101600068294600F0040001900198A9
:100CF0004FF40070029002200390032005902046DC
:100D0000FFF7DEFA4FF48060CDE90206204629465F
:100D10000496FFF7D5FA06B070BD0000FEE70000AC
:100D200082B041F21800C4F20200016841F02001D3
:100D30000160016801F0200101910199016841F011
:100D400004010160006800F004000090009802B007
:100D50007047000080B541F2205043F60001C2F216
:100D60000000C4F2010100234FF00C0C4FF4E132FB
:100D700080E80E00C0E90333C0E905C3C361FFF793
:100D80005DFF002808BF80BDFFF780FAFEE7000086
:100D9000FEE7000000F0070080F00703042B28BFE7
:100DA00004234FF0FF3C03380CFA03F338BF002054
:100DB000994381400CFA00F022EA00000843704792
:100DC0007047000081B040F20400C2F200000068E9
:100DD00044F6D351C1F26201A0FB0101480A009020
:100DE00000BF0098411E00280091F9D101B0704762
:100DF000B0B582B041F24015C2F2000505F14801DC
:100E0000019100211F28009116D12A1D6B7C07CA71
:100E1000012BA962EA6209D845F25531C4F2423188
:100E2000884203D1A87C013810281CD34FF4A42099
:100E300000F0FAF8002413E043F6E810C0F60000D2
:100E400002F0A6FA6BA002F0F5FC43F60420C0F60F
:100E5000000002F09DFA4FF4A42000F0E5F8002411
:100E6000204602B0B0BDE87C5A2800F2638000241E
:100E7000DFE810F05B00670067007D006700670037
:100E8000670067006700670067006700670067002A
:100E900067006700670067008200670067006700FF
:100EA000670067006700670087008C0067006700C5
:100EB00091006700670067006700960067009B006D
:100EC00067006700A0006700A30067006700670075
:100ED0006700AE0067006700670067006700670093
:100EE00067006700670067006700670067006700CA
:100EF00067006700670067006700670067006700BA
:100F000067006700670067006700670067006700A9
:100F10006700670067006700670067006700670099
:100F20006700670067006700A60001A8694600F037
:100F300023FB4CE0A82848D0AA2802D100F07EFB71
:100F400045E04FF4A42000F06FF843F60920C0F606
:100F5000000002F01DFAE97C2CA002F019FA43F619
:100F60000420C0F6000002F013FA002430E001A8CB
:100F7000694600F0B7FA2AE001A8694600F062F875
:100F800025E001A8694600F0D3F820E001A86946F1
:100F900000F0E0FA1BE001A8694600F0F1F816E065
:100FA00001A8694600F076FA11E001A8694600F050
:100FB0004BFA0CE000F072F909E000F0EFFA06E0FD
:100FC00001A8694600F096F801E000F0D1F9044666
:100FD000002C3FF445AF287800287FF441AF0099FA
:100FE00021B10198C9B201F00DFE39E7002001F0EE
:100FF000F1FD35E773697A6520213D2073697A65D3
:101000006F6628636277290D00000000756E7375A6
:1010100070706F7274656420636D643A3078253047
:1010200032780D0A0000000041F24012010CC2F2B9
:10103000000282F83210010A82F8331082F834007C
:10104000704700002DE9F0418AB0884643F6580108
:10105000C0F6000191E82C0001F10C0E9EE8D05082
:10106000019204AA0293039582E8D0500A6A41F2E1
:101070004011C2F20001CB68099242F63062C3F21D
:101080003012099263B10A7DD2070CD1CD7D006880
:10109000242D28BF242501A92A46FFF743F819E08B
:1010A0004FF4A42020E0497D802909D0C1B900680F
:1010B0004FF4004181804FF000710160062509E086
:1010C00000684FF02031416048F20001C0F6000195
:1010D00001600825C8F8005001200AB0BDE8F08181
:1010E00042F20040C0F20500FFF79EFF00200AB068
:1010F000BDE8F081B0B541F24012C2F20002D368FF
:101100007BB1D57E0C46006843F67C011B2D28BFC1
:101110001B25C0F600012A46FFF704F801202560D0
:10112000B0BD4FF4A420FFF77FFF0020B0BD00004A
:10113000B0B582B041F24012C2F20002D368BBB136
:10114000D57D0C4692F83110042D4FF0030228BFD4
:101150000425002901921CBF80218DF8061000682B
:1011600001A92A46FEF7DEFF2560012002B0B0BDCE
:101170004FF4A420FFF758FF002002B0B0BD0000DC
:1011800080B541F24012C2F20002D2682AB14FF497
:10119000A420FFF749FF002080BD0022026001204B
:1011A0000A6080BD70B541F24016C2F20006F16BD4
:1011B000B6F84020B06B01FB02F406F14805B4F527
:1011C000007F28BF4FF400742946224601F0E0FC5E
:1011D00038B141F20010C0F20400FFF725FF0020F3
:1011E00070BD42F6C010C2F20000007A29462246C5
:1011F00001F032FAB6F84000D6E90E23B4FBF0F065
:10120000F16A0244181AC6E90E20A1EB0400F0624C
:101210001CBF012070BD03203070012070BD000094
:1012200070B541F24016C2F20006B16B054606F1F8
:101230004804084621462A4601F0BCFC38B140F279
:101240000030C0F20400FFF7EFFE002070BDB6F8DA
:101250004000D6F82CC0B5FBF0F1D6E90E320B44B5
:10126000511AACEB0502C6E90E31F26210D001FB57
:1012700000F242F6C010C2F2000000782146B2F53A
:10128000007F28BF4FF4007201F0BAF9012070BD51
:10129000002001F09FFC012070BD000080B541F2EC
:1012A0004010C2F2000090F91010B1F1FF3F1CDCB9
:1012B000C168D1B1428BD0F815301204D0F844C0C7
:1012C0001BBA12BA836313446345C26313D942F253
:1012D0000010C0F20500FFF7A7FE43F6E810C0F6C5
:1012E000000002F055F81DA016E04FF4A420FFF70F
:1012F0009BFE002080BDB0F840305A43914204D19B
:1013000002210170FFF74EFF80BD43F6E810C0F6E2
:10131000000002F03DF805A002F08CFA43F604202C
:10132000C0F6000002F034F8002080BD73637369DA
:101330005F626C6B5F6C656E20646F6573206E6FAF
:1013400074206D61746368207769746820644461F7
:1013500074614C656E6774680D0000004C4241205A
:101360006F7574206F662072616E67650D000000F6
:1013700080B541F24010C2F2000090F91010B1F1B6
:10138000FF3F1DDCC168D9B1D0F81520D0F819E0B5
:10139000D0F844C013BA9EFA8EF2836313446345B7
:1013A000C26313D942F20010C0F20500FFF73CFE01
:1013B00043F6E810C0F6000001F0EAFF1DA016E0B9
:1013C0004FF4A420FFF730FE002080BDB0F840307D
:1013D0005A43914204D102210170FFF7E3FE80BD20
:1013E00043F6E810C0F6000001F0D2FF05A002F0BD
:1013F00021FA43F60420C0F6000001F0C9FF0020E6
:1014000080BD00BF736373695F626C6B5F6C656EF8
:1014100020646F6573206E6F74206D617463682043
:10142000776974682064446174614C656E677468A0
:101430000D0000004C4241206F7574206F662072D1
:10144000616E67650D000000B0B541F24012C2F256
:101450000002D368C3B1536CB2F840200068013B6E
:101460004FEA136C4FEA134E1C0A150AC37000238F
:1014700080F800C080F801E0847083808571C271BB
:10148000082008600120B0BD4FF4A420FFF7CCFD78
:101490000020B0BD70B541F24012C2F20002D36824
:1014A000D3B1536CB2F8402000684FEA136C4FEA96
:1014B000134E1C0A150A4FF00066C3710223066022
:1014C00080F804C080F805E0847103818572C272DF
:1014D0000C200860012070BD4FF4A420FFF7A4FD8C
:1014E000002070BD2DE9F04186B041F24012C2F2F9
:1014F0000002D3682BB343F69803C0F60003884676
:10150000D57DD96892F832C0122D28BF122593E8F4
:10151000D0000491198ACDE90146ADF81410B2F853
:1015200033100068ADF8101001A92A4603978DF812
:1015300006C0FEF7F7FDC8F80050012006B0BDE870
:10154000F0814FF4A420FFF76FFD002006B0BDE846
:10155000F081000080B541F24012C2F20002D26870
:101560002AB14FF4A420FFF75FFD002080BD0022C8
:10157000026001200A6080BD80B541F24012C2F2D3
:101580000002D2682AB14FF4A420FFF74DFD0020DD
:1015900080BD0022026001200A6080BD10B541F2CA
:1015A0004011C2F2000191F9100000281ED4C86851
:1015B000E0B1D1F815204C8B13BA2204D1F844C005
:1015C00012BA8B6313446345CA6315D943F6E81016
:1015D000C0F6000001F0DCFE13A002F02BF943F688
:1015E0000420C0F6000001F0D3FE1BE04FF4A4205D
:1015F000FFF71AFD002010BDB1F840305A43904269
:1016000010D142F6C010C2F200000124007801F8A7
:10161000484BB2F5007F28BF4FF4007200F0F0FF96
:10162000204610BD002010BD4C4241206F75742033
:101630006F662072616E67650D00000010B541F2A3
:101640004011C2F2000191F9100000281ED4C868B0
:10165000E0B1D1F81520D1F81930D1F844C014BA4E
:101660001ABA131963458C63CA6315D943F6E81097
:10167000C0F6000001F08CFE13A002F0DBF843F688
:101680000420C0F6000001F083FE1BE04FF4A4200C
:10169000FFF7CAFC002010BDB1F840305A43904219
:1016A00010D142F6C010C2F200000124007801F807
:1016B000484BB2F5007F28BF4FF4007200F0A0FF46
:1016C000204610BD002010BD4C4241206F75742093
:1016D0006F662072616E67650D0000007047000044
:1016E000B0B501380024B4EB106F1CBF0120B0BDB1
:1016F0004EF21005CEF2000568604FF0FF300F216A
:1017000000F08CFA0720AC6028602046B0BD0000D5
:1017100080B5FEF7E7FE80BD70B594B00AAC2046F8
:101720002821FEF718FD002501204FF480310A9092
:10173000CDE90B150E9002264FF4E010CDE91161B2
:10174000139020460995CDE90755CDE90555CDE91A
:101750000355CDE90155FFF7E3F8B8B90F20CDE9FE
:1017600005064FF480600795CDE9080505A802211C
:10177000FEF7C4FF50B9102001900020049001A88A
:10178000FEF734FF002804BF14B070BDFEF77EFDE5
:101790007047000010B504460068D4E902C223690E
:1017A000016921F4405111430161616943EA0C026E
:1017B0001143C26841F20C639A431143C16041690D
:1017C000A26921F44071114343F60002C4F2010200
:1017D0009042416102D0FFF74FF801E0FFF75EF859
:1017E0006268192148439100B0FBF1F048F21F51A3
:1017F000C5F2EB11A0FB01235A096FF0630302FB52
:101800000300322303EB0010A0FB0101F02303EAE5
:101810005113206803EB0212C1F34311114481609C
:1018200010BD00002DE9F04F85B045F6444BC4F2E1
:10183000000BBBF90070B7F1FF3F05DCBBF90000FE
:10184000B0F1FF3F40F3AC807805BDB210D468041E
:101850002DD4A80433D4E80439D428054BD4A805E2
:1018600000F18C80E80500F1928005B0BDE8F08FB2
:1018700041F29034C2F2000420464FF4C871FEF7E2
:101880006AFC4020E06001F009F83BF8440C43F6A4
:101890000F7108404BF2800148402BF8440CBBF814
:1018A000000020F48060ABF800006804D1D5BBF8DC
:1018B000000020F48040ABF80000A804CBD5BBF8B2
:1018C000000020F40050ABF80000E804C5D53BF858
:1018D000040C20F004002BF8040C3BF8040C20F05E
:1018E00008002BF8040CBBF8000020F48050ABF883
:1018F00000002805B3D5ABF148016FF0010201A843
:1019000031F8043F861802320E2A7380F8D13BF872
:10191000041C41F001012BF8041C3BF8041C21F0CD
:1019200001012BF8041C00BFBBF800104905FBD5D2
:10193000BBF8001021F48062594621F848296FF065
:10194000010200BF83185B8802320E2A21F8043F8F
:10195000F8D13BF8040C40F008002BF8040CBBF85D
:10196000000020F40060ABF800003BF8040C40F0ED
:1019700004002BF8040CA8057FF574AFBBF8000039
:1019800020F40070ABF80000E8057FF56EAFBBF8FF
:10199000000020F48070ABF8000005B0BDE8F08FC7
:1019A00041F2903440F60F78C2F20004ABF14406E5
:1019B00000961FE0168AB34238BF1E46118BB2B2A2
:1019C00000F038FABBF80C000BF5707141EA051114
:1019D0000E5237F8190040F63F71084048F2B00146
:1019E000484027F819003E465746BBF9000000283A
:1019F0007FF52AAFBBF8007017F00F056AD036F8F4
:101A000025A04FEA45095FEA0A4038D536F81900A3
:101A100000EA0800803026F81900BBF80C0000EB43
:101A2000C5000BEB400090F8C86305EB450004EBE4
:101A3000C008D8F8DC00B8F8D810324600F0DEF95B
:101A400008F1DC0207CA8B1B304402EB0601C8E92F
:101A50003703C8F8E41000F0A680B8F8D00086423A
:101A6000C0F0A180009E43F60F7136F8190040F6D1
:101A70000F7808404BF28001484026F819005FEAD1
:101A80000A60B2D536F81900BA4600EA080000F537
:101A9000004026F81900BBF80C00374600EBC500E3
:101AA0000BEB4000B0F8C01305EB450004EBC0029F
:101AB000D2E90703566A6FF39F2108445B1A314449
:101AC000C2E9070351627FF475AF05F1800000F0B1
:101AD000BBFE88E73BF8440CF90634D400EA080062
:101AE00000F500402BF8440CBBF80C0004F11C027C
:101AF0000BEB4000B0F8C05307CA6FF39F25284492
:101B00004B1B5119C4E907038020616200F09CFE61
:101B1000E08818B194F90000002804D400200021C6
:101B2000002200F06DFD207A002D7FF45EAF0028CA
:101B30003FF45BAF207A40F08000C0B2ABF8080001
:101B40000020207251E7010538D400047FF54DAF25
:101B50003BF8440C00EA080080302BF8440CBBF83A
:101B60000C00B4F8D8100BEB400090F8C863D4F820
:101B7000DC00324600F042F904F1DC0207CA8B1B9C
:101B800030449119C4E937032846C4F8E41000F042
:101B90006BFE002E009E7FF428AF00200021002263
:101BA00000F02EFD21E7284600F05EFE009E40F684
:101BB0000F785FEA0A607FF518AF63E73BF8440CE3
:101BC00000EA080080302BF8440CBBF80C00B4F895
:101BD000D8100BEB400090F8C823204600F00EF917
:101BE000204600F0C5FD00E7FEE70000002848BFE2
:101BF000704700F01F01012202FA01F14EF20012BB
:101C00004009CEF2000242F8201070474EF60C5008
:101C1000CEF200000068C0F3022070474EF6145365
:101C200000F00F02CEF2000309011A4400F16043F4
:101C3000B0F1FF3FC8BF03F5644211707047000068
:101C40004EF60C51CEF200010A684FF6FF031A401F
:101C500060F30A2242F0806040F0FD700860704737
:101C6000F0B585B005464078AF8822281BD00E46D7
:101C7000212826D0202835D13168EA8803AD2846AE
:101C8000FEF750FAFCB201AE2046314600F05CFA95
:101C9000304629460722FEF769FA00B303A9204619
:101CA00000F06CFA1BE06888FDB200F00101C0F39F
:101CB0004004284600F05CFA2846214600F060FA0D
:101CC0000DE0F8B203A9144600F03EFA3068DDF8E2
:101CD0000F10039AC0F80310026007202060002054
:101CE00005B0F0BD06A001F053FB697808A001F033
:101CF0004FFB11A001F04CFB4FF0FF3005B0F0BDE1
:101D00001B5B33336D5B572F5553425D2000000042
:101D1000556E68616E646C65642043444320436C77
:101D20006173732062526571756573742030782514
:101D30003032780D0A0000001B5B306D000000009F
:101D4000B0B541F28C30C2F200000078002808BF24
:101D5000B0BD40F22004C2F2000404F10A0040F2D7
:101D6000F6716122FEF7F0F941F28D35C2F20005FD
:101D700001202870812021464FF4006200F06CFCA5
:101D800028780028FCD1B0BD80B543F6C200C0F66B
:101D9000000000F061FA41F26050C2F2000000F071
:101DA000DDF900F089F941F28050C2F2000000F044
:101DB000D5F900F081F940F21000C2F2000000F005
:101DC00063F940F20800C2F2000000F05DF941F250
:101DD000A050C2F200000521842200F073FE00F042
:101DE0006BF900F049FE80BD43F60001C4F2010129
:101DF0000A681206FCD548607047000046F2000CE5
:101E0000C4F2000C0023B3EB520F0CEB41030BD0D8
:101E100051080238043B00BF33F804CF013920F8E1
:101E200002CFF9D102300433D1071CBF19880170E9
:101E30007047000001320023B3EB520F08BF704718
:101E400045F6FC73C4F200035208023803EB41016B
:101E500030F8023F013A21F8043FF9D17047000001
:101E600041F22000C2F2000090F81D01002818BFC6
:101E700001207047FEF744FBFFF74EFCFEF750FFD2
:101E8000FEF768FFFFF780FFFFF75AFF6420FEF7B9
:101E900003FAF9E780B541F24011C2F20001087877
:101EA000042811D003281BD0022818D1C87C40F088
:101EB0008000A82813D1FFF775F9002818BF80BD4E
:101EC000012000F087FE80BD42F6C010C2F2000083
:101ED0000022007801F8042B1F2200F091FB80BD46
:101EE000002000F077FE80BD10B541F24014C2F230
:101EF00000042078012817D020BB0846FEF778FFA1
:101F000000BB43F6E810C0F6000001F041FAE17CA6
:101F10000DA001F03DFA43F60420C0F6000001F0E8
:101F200037FA00F0ADFD10BDE07C40F08000AA283B
:101F300008D10846FFF774F9002818BF10BD01202A
:101F400000F048FE10BD00BF436F6D6D616E643AD6
:101F5000307825303278206465636F64652065725F
:101F6000720D0A0010B504464078FE2805D0FF28FF
:101F70000FD100F003FE002010BD41F24010C2F26C
:101F8000000090F8350009680870012010600020FA
:101F900010BD43F60920C0F6000001F0F9F96178A0
:101FA00005A001F0F5F943F60420C0F6000001F0A9
:101FB000EFF94FF0FF3010BD556E68616E646C65CF
:101FC00064204D534320436C6173732062526571EA
:101FD00075657374203078253032780D0A00000062
:101FE00080B5072805D0012818BF80BD00F0C6FDC8
:101FF00080BD42F6C010C2F2000041F240110078EC
:10200000C2F2000104311F2200F0FAFA80BD000084
:1020100080B500F013F845F64041C4F200010120FC
:10202000088000200880888008824FF43F400880A4
:10203000088B40F4004200200A8380BD80B582B046
:1020400041F21C00C4F202000168002241F40001C8
:1020500001600068002100F4000001900198142044
:10206000FEF7B0FA1420FEF7A9FA02B080BD000016
:1020700042F69821C2F200010A4609680029FBD104
:102080000021106001607047017842F638230A068B
:1020900042F6D812C2F20002C2F2000358BF134641
:1020A00001F07F0202EB4202406803F8221003EBCA
:1020B000820188607047000010B541F22004C2F22E
:1020C000000494F81F110177FFF7D2FF94F81F0165
:1020D000013084F81F0110BD10B50AA00C4601F0B4
:1020E00057F944B114F03F0005D1812000210022AE
:1020F00000F0B2FA10BD41F28D30C2F200000021B2
:10210000017010BD61637475616C20696E206C652F
:102110006E3A25640D0A000080B506A001F038F97A
:1021200040F62001C2F2000102204FF4006200F0EC
:1021300067FA80BD61637475616C206F7574206C83
:10214000656E3A25640D0A0048F28040C0F21E0018
:1021500008600820887100208880704741F661413E
:10216000C0F600010022C0E90112C0E90322704755
:1021700041F28C30C2F200000170704770470000DD
:102180007047000070B542F69822C2F2000216684D
:10219000002E08BF70BD0C46054601E0366836B11A
:1021A0003269002AFAD0284621469047F6E770BDEA
:1021B000F0B581B041F22004C2F20004207800F0B2
:1021C000030001281CD0022836D142F69820C2F222
:1021D0000000076887B304F1080504F1100603E066
:1021E000012159B13F683FB3BB68002BF8D02046AE
:1021F00029463246984700210029F3D101B0F0BDAD
:1022000042F69820C2F200000768AFB104F1080559
:1022100004F110067B684BB1397F2279914205D1D8
:102220002046294632469847002100E00121002936
:10223000E4D03F68002FEDD14FF0FF3001B0F0BD8A
:1022400080B540F62001C2F2000102204FF4006286
:1022500000F0D6F980BD0000B0B541F22005C2F211
:102260000005044628464FF49071FDF774FF42F6CE
:102270003821C2F2000180220A7042F2D562C0F613
:1022800000028A6042F6D8110020C2F2000185F8EF
:102290001F01087042F22970C0F60000AC6188602E
:1022A000B0BD000041B2002945F60041C4F2000172
:1022B00014D44000C2B231F812304BF280005B04FB
:1022C00001EB420107D50A8840F60F731A4000F56A
:1022D00080531A430A8043F60F7221E000F07F0218
:1022E00031F8223048F2A0005B0601EB82010AD5EA
:1022F000B1F800C040F60F730CEA030C00F12003A4
:1023000043EA0C030B8041F2903302EB4202C2F22B
:10231000000303EBC202927C012A05D040F63F7213
:102320000B881A40504008800020704742B240009D
:1023300045F6004CC1B2C4F2000C3CF81130002A42
:1023400048F2800004D45A0407D443F60F731DE00A
:102350005A060FD440F63F7318E03CF8112040F6BF
:102360000F731A4000F580431A432CF8112043F6EE
:102370000F730BE03CF8112040F60F731A4000F188
:1023800040031A4340F63F732CF811203CF811200B
:102390001A40024300202CF8112070472DE9F04725
:1023A0000278044602F07F03082B13D343F6E810AB
:1023B000C0F6000000F0ECFF21787CA000F0E8FF00
:1023C00043F60420C0F6000000F0E2FF4FF0FF30BB
:1023D000BDE8F087607848F2800C032808D0012817
:1023E00009D048F28005002808BF0CF5007504E00C
:1023F0000CF5C06501E00CF5806545F6504EC4F261
:10240000000EAEF1500949EA8306378840F60F11F5
:10241000394029433180318840F60F7529401143F6
:1024200041EA0C01318057B26588002F4FEA43081A
:1024300003EB43013AD441F29036C2F2000606EBB8
:10244000C102174637F8D61F07F8040C01208D4249
:1024500027F8065C07F8020C16D9F0682844B0F596
:10246000007F3BD83D80F0680EF56E71A2F8D80071
:10247000BEF80000F26841EA031122F001020A529C
:102480006088F1680844F060BEF80000628846F297
:102490000C01C4F2000141EA03135AB33E2A34D8B6
:1024A00002F0010101EB52018A023BE041F2903A55
:1024B000C2F2000A0AEBC1073A4632F8161F01269B
:1024C0008D4222F8065C02F8040C02F8026C4CD92A
:1024D000DAF80C102944B1F5007F31D943F6E81041
:1024E000C0F6000000F054FF217843F61720C0F634
:1024F000000063E7C15A48F2000221F4F841C152DA
:10250000C15ACFF6FF720A430CE051094FF0FF3772
:10251000D60608BF07EB521148F20002CFF6FF7251
:1025200042EA8122C25239F8180040043AD539F8FB
:10253000180040F60F7108400CF5804108432FE069
:102540001580DAF80C100EF56C723983BEF80010A5
:10255000DAF80C7042EA031227F001035352618843
:10256000DAF80C201144CAF80C1039F81810490692
:1025700009D539F8181040F60F7211400CF14002DD
:10258000114329F8181039F8181040F63F72012845
:1025900001EA02000EBF40EA0C000CF120014840A5
:1025A00029F818000020BDE8F08700BF45702061C1
:1025B000646472202564206F766572666C6F770D97
:1025C0000A00000041B2400045F6004CC2B2C4F21D
:1025D000000C3CF81200B1F1FF3F48F2900140F6C8
:1025E0003F73CFF6FF71C8BF43F60F73C8BF01F545
:1025F0007F611840414000202CF812107047000005
:1026000021B9002A1CBF4FF0FF30704700F07F0C4B
:1026100041F290330CEB4C00C2F2000303EBC00319
:1026200093F8D400002804BF6FF001007047002029
:10263000C3E9371245F60041C3F8E400C4F20001D3
:1026400031F82C2043F60F731A404BF280035A40A6
:1026500021F82C207047000070B521B9002A1CBF5A
:102660004FF0FF3070BD00F07F0541F2903305EB75
:102670004500C2F2000303EBC000037D33B3C0E9A1
:102680000712068A00244462964288BF1646038BCE
:10269000B2B208461946FFF7CDFB45F60040C4F23A
:1026A000000046F20402B0F85010C4F2000242EA00
:1026B0000512565230F8251040F63F72114048F28C
:1026C000B002514020F82510204670BD6FF0010087
:1026D00070BD000080B541F22003C2F2000308463D
:1026E000D3E902120144121AC3E9021203D0802076
:1026F000FFF7B2FF80BD187D38B10020187580202B
:1027000000210022FFF7A8FF80BDD88850B193F9BF
:102710000000B0F1FF3FC8BF80BD002000210022B3
:10272000FFF76EFF80BD000080B5002908BF80BDA7
:1027300041F22003C2F200030846D3E90212014429
:10274000121AC3E9021203D00020FFF759FF80BD1F
:1027500003F11C00986000F073FB28B18020002179
:102760000022FFF779FF80BD8020FFF72BFF80BD9F
:1027700010B50168406841F22004C2F200046060B4
:10278000E28848B2B2F5807F216011D900280FD4C9
:1027900043F6E810C0F6000000F0FAFD23A001F0B7
:1027A00049F843F60420C0F6000000F0F1FD29E0EE
:1027B00004F11C010023C4E90212226123752AB12D
:1027C000002803D40020FFF71BFF10BD00F038FBEA
:1027D000C0B12069E288904238BF0246B2F5807FDE
:1027E000E26013D943F6E810C0F6000000F0D0FD17
:1027F0000EA001F01FF843F60420C0F6000000F020
:10280000C7FD10BD8020FFF7DDFE10BDA168802050
:10281000FFF722FFE1882069884228BF10BD10F031
:102820003F0004BF0120207510BD00BF52657175C7
:102830006573742062756666657220746F6F2073AD
:102840006D616C6C0D00000080B500F07F0242F6F7
:10285000382302EB4202C2F2000303EB82029268C9
:10286000002A18BF904780BD80B500F07F0242F675
:10287000D81302EB4202C2F2000303EB8202926819
:10288000002A18BF904780BD072818BF704780B541
:10289000FFF7D6FCBDE8804070470000B0B582B0BD
:1028A0000020002500F01AFA41F22000C2F20000D8
:1028B000A0F81C518020C0F240006C4600902046D9
:1028C000FFF76CFD20468DF80050FFF767FD0120F3
:1028D0000021FFF757FC0120FFF7D6FF02B0B0BD83
:1028E00070B50321B1EB102FC4B208BFEE2C25D078
:1028F000050A291F022946D30F2D41D143F6F610B0
:10290000C0F6000000F044FD40A000F093FF43F645
:102910000420C0F6000000F03BFD41F28830C2F216
:10292000000004687CB341F22005C2F20005A868EB
:10293000D4E90012FDF7F6FB60681EE043F6F610DE
:10294000C0F6000000F024FD42A000F073FF43F643
:102950000420C0F6000000F01BFD42F6D010C2F2C9
:10296000000004687CB141F22005C2F20005A868AD
:1029700021682279FDF7D6FB20792861012070BDFE
:10298000400A022801D9002070BD41F2200CC2F299
:10299000000CDCF818100A78C2B1002005E000BF76
:1029A00001308B188A5C19463AB14B789D42F8D1B8
:1029B000A042F5D1012666B102E00026194646B1D3
:1029C000072D19D0022D08BF4A8816E00026002ED8
:1029D000F6D143F6E810C0F6000000F0D9FC12A0D2
:1029E0002946224600F0D4FC43F60420C0F600003D
:1029F00000F0CEFC304670BD4A88DCF80800CCF808
:102A00001020FDF78FFB304670BD00BF726561641A
:102A100020424F532064657363726970746F722033
:102A2000737472696E670D006465736372697074A4
:102A30006F72203C747970653A25782C696E6465F4
:102A4000783A25783E206E6F7420666F756E64212B
:102A50000D0A000072656164204D53204F532032EF
:102A60002E302064657363726970746F72207374A2
:102A700072696E670D00000080B5FFF7C9FA80BD6E
:102A8000B0B541F24014C2F20004207C42F6C015F9
:102A9000C2F2000520B9E06810B12878FFF792FD76
:102AA000287AFFF78FFD2878211D1F22FFF7A8FD48
:102AB000B0BD00004FF47A7008604FF400701080D1
:102AC00070470000B0B5044641F66570C0F60000DE
:102AD000002341F6E175C4E9010342F6C010C0F6D7
:102AE0000005C2F20000C4E90335017041F6E96156
:102AF000C0F60001416041F695610546C0F600014F
:102B000005F8082FC160FFF7BFFA2846FFF7BCFAA7
:102B100041F24015C2F2000528464FF41271FDF74C
:102B20001AFB05F1440105F140020020FFF7C2FF46
:102B3000B5F84000B0F5007F0FD943F6E810C0F6B5
:102B4000000000F025FC06A000F074FE43F604200F
:102B5000C0F6000000F01CFC00242046B0BD00BF01
:102B60006D736320626C6F636B206275666665725D
:102B7000206F766572666C6F770D000041F2401031
:102B8000C2F200000021017080F83110704700008F
:102B900009280CD880B541F2C053C2F2000303EB00
:102BA000402308461946FDF7BDFABDE880400020E5
:102BB0007047000009280AD880B541F2C053C2F21C
:102BC000000303EB4020FDF7ADFABDE88040002094
:102BD0007047000080B541F24011C2F2000181F857
:102BE00030000420087042F6C01045F25532C2F29F
:102BF0000000C5F24232007A41F8242F0D22FFF77F
:102C00002BFD80BDB0B541F24015C2F20005EC6865
:102C1000024642F6C010C2F200008C4288BF0C4649
:102C20000321007A297011462246FFF715FDE86A54
:102C3000001BE862002085F83000B0BD80B582B08E
:102C400043F6F610C0F6000000F0A2FB41F22000AF
:102C5000C2F20000017842784388B0F804C0B0F8AE
:102C600006E043F68B10C0F60000CDF800C0CDF8AA
:102C700004E000F08DFB43F60420C0F6000000F0F5
:102C800087FB02B080BD0000B0B58478C57843F6FC
:102C9000F610C0F6000000F07BFB05F0030208A070
:102CA000214600F075FB43F60420C0F6000000F05A
:102CB0006FFB2046FFF73AFBB0FA80F04009B0BD49
:102CC000436C6F73652065703A3078253032782018
:102CD000747970653A25750D0A000000014628B91F
:102CE00045F64C40C4F200008022028041F290324E
:102CF000C2F200020020117270470000F0B581B0EE
:102D000041F22001C2F200018C69217801B305462D
:102D1000FF260020FF2704E0E7782178625C0C445E
:102D2000BAB1617805290BD00429F5D00229F4D174
:102D30006679711BB1FA81F149090843EDE700BFDB
:102D4000002F08BFAE42E8D1204600F007F8E4E7C4
:102D5000002000F0010001B0F0BD000080B582B09D
:102D600081788DF800108188C0786FF3DF2100F042
:102D700003008DF8010043F6F610C0F60000ADF830
:102D8000021000F005FB9DF800109DF80120BDF831
:102D9000023008A000F0FCFA43F60420C0F6000060
:102DA00000F0F6FA6846FFF7F9FAB0FA80F0400949
:102DB00002B080BD4F70656E2065703A3078253066
:102DC000327820747970653A2575206D70733A25D4
:102DD000750D0A002DE9F04381B041F22002C2F2E4
:102DE0000002966932781AB3884681460024FF258E
:102DF000FF2705E0FFF7B2FF3078315C0644C1B130
:102E0000707805280CD00428F6D1B578F77885EAD3
:102E1000090087EA0801084308BF3446ECE700BF11
:102E20004D45E9D130464745E4D0FFF72DFFE3E7B4
:102E3000002408202146FFF7A5F901B0BDE8F08382
:102E400010B541F22004C2F20004207800F06000C6
:102E5000402821D020282CD000281CBF002010BDE5
:102E600000F080F8B0F1FF3FC4BF012010BD6078D2
:102E7000062825D16088B0F5C06F21D130A000F0C0
:102E800087FA33A000F0D6FC43F60420C0F6000019
:102E900000F07EFA002010BD00F0ACF9B0F1FF3F69
:102EA0000CDC43F6E810C0F6000000F071FA12A046
:102EB00015E0FFF77DF9B0F1FF3F09DD012010BDFE
:102EC00043F6E810C0F6000000F062FA16A006E033
:102ED00043F6E810C0F6000000F05AFA0CA000F02B
:102EE000A9FC43F60420C0F6000000F051FAFFF7F9
:102EF000A5FE002010BD00BF76656E646F72207263
:102F0000657175657374206572726F720D000000D3
:102F1000636C61737320726571756573742065727B
:102F2000726F720D000000007374616E64617264F0
:102F30002072657175657374206572726F720D0011
:102F40001B5B33336D5B572F5553425D20000000F0
:102F500049676E6F72652044514420696E20667324
:102F60000D00000080B541F22000C2F200000078A0
:102F700000F00300022809D001280AD000281CBF55
:102F80004FF0FF3080BD00F00BF804E000F058F87F
:102F900001E000F0BDF880F00100404280BD00007B
:102FA000F0B581B041F22006C2F20006717800242B
:102FB000092942D87588DFE801F02C054005403525
:102FC0003C401117012D05D10A20032908BF092013
:102FD000FFF75AFC0020306101242EE006F21D109C
:102FE0000124B060346128E0E8B2FFF787FE0027D3
:102FF0004FF0000458B101240720002186F81D512C
:1030000086F81C41FFF7BEF80720FFF73DFC37614B
:1030100013E0B06800210170B06801244170022003
:1030200030610AE0E8B2FFF759FE00203061012468
:1030300003E02846FFF754FC0446204601B0F0BDEB
:1030400070B541F22005C2F200052C79FEF708FFA9
:1030500070B1687803280DD0012813D040B9A86852
:1030600000210170A868417002202861012070BD14
:10307000002070BD6888002600284FF000001BD09B
:103080002E6170BD688810B10020286170BD43F6C4
:10309000E810C0F6000000F07BF917A0214600F010
:1030A00077F943F60420C0F6000000F071F92046DD
:1030B000FFF7F8F8012070BD43F6E810C0F60000F5
:1030C00000F066F907A0214600F062F943F60420FB
:1030D000C0F6000000F05CF92046FFF773FA01200B
:1030E0002E6170BD65703A2530327820736574208A
:1030F00068616C740D0A000065703A2530327820E2
:10310000636C6561722068616C740D0A00000000D8
:1031100070B541F22004C2F200046688A588FEF76B
:103120009FFE002841D0617800200B2988BF70BD28
:10313000DFE801F0064A4A4A4A4A0D4A4A4A3D43F4
:10314000A06800210170A068417002203AE026F0DA
:10315000FF00B0F5085F28D143F6F610C0F6000076
:1031600000F016F91CA000F065FB43F60420C0F641
:10317000000000F00DF942F69820C2F20000066847
:103180001EB3EDB2307FA84208D1A068D6E905127F
:10319000FCF7C8FFB0692061012000E00020A8B959
:1031A0003668002EEED1002010E0002070BDA0682F
:1031B000002101700120206170BDE8B2F1B2FFF77B
:1031C00009FE00202061012070BD0020002814BFEE
:1031D0000120002070BD00BF7265616420686964D1
:1031E000207265706F7274206465736372697074A5
:1031F0006F720D00F0B581B042F6D015C2F2000535
:10320000286818B341F22004C2F2000461784079C2
:10321000814243D1A08805286FD004285AD143F6B3
:10322000F610C0F6000000F0B3F848A000F002FB72
:1032300043F60420C0F6000000F0AAF82D68A0684C
:10324000A968AA89FCF76EFFA8896CE042F6D4153C
:10325000C2F20005286808B341F22004C2F200045B
:1032600061788079814219D1A088072832D143F64C
:10327000F610C0F6000000F08BF83EA000F0DAFA7D
:1032800043F60420C0F6000000F082F82D68A06824
:103290002968AA88FCF746FFA88844E042F69820EF
:1032A000C2F20000076827B341F22004C2F2000412
:1032B00004F1080504F1100602E000BF3F68C7B141
:1032C000FB68002BFAD02046294632469847002852
:1032D000F4D129E043F6E810C0F6000000F058F8F9
:1032E0001EA000F0A7FA43F60420C0F6000000F08C
:1032F0004FF84FF0FF3001B0F0BD43F6F610C0F6C6
:10330000000000F045F80AA000F094FA43F604200B
:10331000C0F6000000F03CF82D68A0682969AA8A70
:10332000FCF700FFA88A2061002001B0F0BD00BFBB
:1033300067657420436F6D706174206964207072DA
:103340006F706572746965730D00000067657420A5
:10335000436F6D7061742049440D0000756E6B6E93
:103360006F776E2076656E646F7220636F64650D93
:1033700000000000474554204D53204F5320322E6B
:10338000302044657363726970746F720D000000C1
:103390000FB4054B10B503A9044A029800F018F8C1
:1033A00010BC5DF814FB0000E91D000800000020BF
:1033B00002E008C8121F08C1002AFAD170477047FE
:1033C000002001E001C1121F002AFBD1704700005C
:1033D0002DE9FF4F8DB00F460546002606E0252853
:1033E0000BD0DDE90F1290476D1C761C2878002861
:1033F000F5D111B03046BDE8F08F0024A246A146B9
:103400000122EC4900E0044315F8013F203B02FA99
:1034100003F00842F7D128782A2810D06FF02F0245
:103420002878A0F13001092914D80AEB8A0102EBAF
:10343000410144F0020400EB010A6D1CF0E701CFEA
:103440005FEA000A03D544F40054CAF1000A44F0CC
:1034500002046D1C28782E2817D115F8010F44F0AE
:1034600004042A280ED06FF02F022878A0F1300132
:1034700009290AD809EB890102EB410100EB010996
:103480006D1CF2E757F8049B6D1C28786C280FD050
:1034900006DC4C2817D068280DD06A2814D104E027
:1034A000742810D07A280FD10DE044F400140AE0FB
:1034B00044F4801401E044F440146978814202D15C
:1034C00004F580146D1C6D1C2A786E2A1FD00CDC4C
:1034D000632A31D004DC002A8BD0582A11D1A3E012
:1034E000642A68D0692A0CD165E0732A2ED004DCE6
:1034F0006F2A73D0702A04D19BE0752A6FD0782A86
:103500006ED01046DDE90F129047761C50E1C4F3EF
:103510000250022806D0032809D0042801CF09D080
:10352000066045E101CFF117C0E9006140E101CF3C
:1035300006803DE106703BE117F8040B8DF80000B2
:1035400000208DF80100EB46012003E057F804BB92
:103550004FF0FF3061074FF0000102D40DE008F199
:103560000101884649450FDA8045F8DB1BF8081051
:103570000029F4D108E008F1010188468142FADB14
:103580001BF808100029F6D1DDE90F23AAEB08008B
:103590008146214600F036F9304400EB080604E08D
:1035A000DDE90F121BF8010B9047B8F10108F7D2C3
:1035B00021464846F7E00A21C4F302534FF0000BBE
:1035C0000891022B04D001CFC117032B09D00AE0C8
:1035D000FF1D27F00707F7E8020108E032E01FE0CF
:1035E00020E000B2C117042B01D140B2C117031E65
:1035F00071F1000307DA4FF0000CD0EB0C006CEB1C
:1036000001012D2302E0230504D52B238DF824305E
:10361000012303E0E30701D02023F7E7984658E0B1
:103620000A2110E010210EE010204FF0000B08904E
:103630000CE010214FF0000B44F004044FF0080997
:10364000089103E008214FF0000B0891C4F30253E6
:10365000022B04D001CF0021032B06D006E0FF1D72
:1036600027F00707F7E8020103E080B2042B00D13E
:10367000C0B24FF0000823072BD5702A07D0DDF821
:1036800020C08CF0100C5CEA0B0C05D00EE040233F
:103690008DF82430012308E050EA010306D03023DE
:1036A0008DF824308DF8252002239846DDF820C0BF
:1036B0008CF0080C5CEA0B0C0BD150EA010301D131
:1036C000630706D530238DF824304FF00108A9F1A7
:1036D0000109582A04D038A20B9208AA0A920BE0DA
:1036E0003AA2F9E75B46089AFCF74DFD0B9B9B5C01
:1036F0000A9A521E0A92137050EA0102F2D10A98F5
:10370000ADEB000000F1200B600702D524F48034FB
:1037100001E04FF00109D94502DDA9EB0B0000E003
:10372000002000EB0B0141440890AAEB010AE003E2
:1037300006D4DDE90F232146504600F063F8064425
:103740004FF0000908E009A911F80900DDE90F129E
:10375000904709F10109761CC145F4DBE0030CD563
:10376000DDE90F232146504600F04CF8064404E002
:10377000DDE90F1230209047761C0899481E08900A
:103780000029F5DC08E00A980A990078491C0A919A
:10379000DDE90F129047761CBBF10001ABF1010B84
:1037A000F1DC21465046DDE90F2300F019F806440C
:1037B0006D1C1BE6092801003031323334353637B1
:1037C000383961626364656600000000303132336D
:1037D000343536373839414243444546000000000D
:1037E0002DE9F041044600251E461746880404D4FE
:1037F00005E039462020B0476D1C641EF9D52846E7
:10380000BDE8F0812DE9F041044600251E469046B2
:10381000C80301D5302700E02027880404D505E03F
:1038200041463846B0476D1C641EF9D52846BDE8B0
:10383000F081000010B5044601E0FEF7D5FA14F857
:10384000010B04490028F8D1BDE810400A20FEF71A
:10385000CBBA000000000020008002021F00000020
:103860002020202020202020202020202020202058
:1038700020202020202020202020202000260000A2
:10388000000000000812000000000000000000001E
:103890000000000000000000700000000000000AAE
:1038A0000000000000000000000000000000000018
:1038B00000000102030406070809000000000102DD
:1038C000030412010002EF020140FFFFFFFF0001AD
:1038D00001020301090262000301008032080B00AB
:1038E0000202020100090400000102020102052493
:1038F0000010010524010001042402020524060031
:10390000010705830308000A09040100020A0000F8
:10391000000705020240000007058102400000097F
:1039200004020002080650000705050240000007D7
:1039300005840240000004030904140343006800E6
:1039400065007200720079005500530042002603A2
:103950004300680065007200720079005500530052
:103960004200200043002D004D002000440045008F
:103970004D004F001603320030003200320031009B
:103980003200330034003500360000536574757022
:103990003A20626D52657175657374547970652053
:1039A0003078253032782C206252657175657374D9
:1039B000203078253032782C207756616C75652060
:1039C0003078253034782C2077496E646578203043
:1039D00078253034782C20774C656E6774682030F9
:1039E00078253034780D0A001B5B33316D5B452F31
:1039F0005553425D20001B5B33326D5B492F55539D
:103A0000425D20001B5B306D001B5B33336D5B57E9
:103A10002F5553425D2000457020706D6120256454
:103A2000206F766572666C6F770D0A00503A000859
:103A300000000020881300004A020008983A00089D
:103A400088130020181B0000C0330008000000008D
:103A5000614524F4008146D920000802461921005E
:103A6000080142100BFF31323334353637383930E4
:103A700001FF01FF01FF01FF01FF01FF01FF01FF46
:103A800001FF01FF01FF01FF01FF01FF01FF01FF36
:083A900001FF01FF01850000A8
:04000005080000ED02
:00000001FF
