:020000040800F2
:10000000D8300020C1010008AD0D0008210D000806
:10001000A90D000849030008FD1C000800000000AD
:10002000000000000000000000000000011A0008AD
:100030004D03000800000000B1100008551A000828
:10004000DB010008DB010008DB010008DB01000820
:10005000DB010008DB010008DB010008DB01000810
:10006000DB010008DB010008DB010008DB01000800
:10007000DB010008DB010008DB010008DB010008F0
:10008000DB010008DB010008DB010008DB010008E0
:10009000DB010008DB010008DB010008DB010008D0
:1000A000DB010008DB010008DB010008DB010008C0
:1000B000DB010008DB010008DB010008DB010008B0
:1000C000DB010008DB010008DB010008DB010008A0
:1000D000DB010008DB010008DB010008DB01000890
:1000E000DB010008DB010008DB010008DB01000880
:1000F000DB010008DB010008DB010008DB01000870
:10010000DB010008DB010008DB010008DB0100085F
:10011000DB010008DB010008DB010008DB0100084F
:10012000DB010008DB010008DB010008DB0100083F
:10013000DB010008DB010008DB010008DB0100082F
:10014000DB010008DB010008DB010008DB0100081F
:10015000DB010008DB010008DB010008DB0100080F
:10016000DB010008DB010008DB010008DB010008FF
:10017000DB010008DD0D0008DB01000800000000C5
:10018000DB010008DB010008DB010008DB010008DF
:10019000DB010008DB010008DB010008DB010008CF
:1001A000DB010008DB010008DB010008DFF80CD0F0
:1001B00000F09AF80048004745230008D830002096
:1001C0000648804706480047FEE7FEE7FEE7FEE7F1
:1001D000FEE7FEE7FEE7FEE7FEE7FEE7111B00088D
:1001E000AD0100082DE9F05F0546002092469B46D0
:1001F00088460646814640241BE02846414647463D
:10020000224600F060F853465A46C01A914110D376
:1002100011461846224600F047F82D1A67EB0108F0
:100220004F4622460120002100F03EF817EB00095E
:100230004E41201EA4F10104DFDC484631462A4627
:100240004346BDE8F09F40EA01039B0703D009E065
:1002500008C9121F08C0042AFAD203E011F8013BB2
:1002600000F8013B521EF9D27047D2B201E000F80B
:10027000012B491EFBD270470022F6E710B513464A
:100280000A4604461946FFF7F0FF204610BD30B578
:1002900004460020034600E05B1C934203D2E05C6E
:1002A000CD5C401BF8D030BD202A04DB203A00FA98
:1002B00002F1002070479140C2F1200320FA03F3BD
:1002C000194390407047202A04DB203A21FA02F0BB
:1002D0000021704721FA02F3D040C2F12002914080
:1002E0000843194670470000064C074D06E0E068D9
:1002F00040F0010394E8070098471034AC42F6D36D
:10030000FFF758FF2C4300084C43000830B58C1809
:1003100010F8012B12F00F0301D110F8013B120964
:1003200006D110F8012B03E010F8015B01F8015B26
:100330005B1EF9D101E001F8013B521EFBD1A14245
:10034000E6D3002030BD0000FEE70000704700004B
:10035000EFF3108072B600BFFEE70000B0B50446B0
:1003600000F0DAF8054640F21800C2F2000000780A
:10037000611C18BF044400BF00F0CEF8401BA0422F
:10038000FAD3B0BD2DE9F04F83B000F13E4202F147
:10039000FF724FEAB22242F200470192C4F2020712
:1003A0000A22012600254FF000084FF00009B8424C
:1003B00008BF0922009209E009F1010908F10408C7
:1003C000B9F1100F05F1020500F0A3800C6806FAE0
:1003D00009FB14EA0B0CEFD0D1F804A0BAF1120F0C
:1003E00017D806FA0AF414F0061F12D08468032204
:1003F000CF6802FA05FE24EA0E04AF402743876067
:100400004768CAF3001427EA0B0704FA09F42743E4
:1004100047600322C76802FA05F48A68A743AA4026
:100420003A434AF010076FEA040E122FC26010D14F
:100430006FF0030202EA59020244176A08F01C0630
:100440000F230C69B34027EA0303B440012623437A
:10045000136202684B6802EA0E0203F00307AF4022
:100460003A43DB000260A7D5002243F64403029220
:10047000C4F202031A6843F6004442F480421A6050
:100480001A68C4F2010402F480420292029A29F02E
:1004900003024FF6084A2244CFF6FF7A52F80A3098
:1004A00008F00C070F26BE4023EA060E019B009EB3
:1004B000092B38BF1E4606FA07F747EA0E0342F833
:1004C0000A3022684B6842EA0C07DE0358BF22EA72
:1004D0000C07276062689E0342EA0C0758BF22EAB5
:1004E0000C076760A268DE0242EA0C0758BF22EAE6
:1004F0000C07A76043F60C47C4F201073A689B0259
:100500004FF0010642EA0C0358BF22EA0C033B609D
:1005100052E703B0BDE8F08F42F6B040C2F20000EF
:100520000068704740F2180042F6B041C2F2000085
:10053000C2F2000100780A681044086070470000A9
:1005400080B543F60040C4F20200016841F4007136
:100550000160016841F480610160016841F48071CB
:100560000160032000F060F8002000F005F800F0C2
:100570002BF8002080BD0000B0B540F21802C2F296
:10058000000240F204011278C2F200014FF47A73C3
:100590000968B3FBF2F20446B1FBF2F1084600F041
:1005A000EFFA0F2C4FF001050CD858B94FF0FF307F
:1005B00021460022002500F027F840F21C00C2F27C
:1005C000000004602846B0BD82B0002043F6400120
:1005D0000190C4F202014A6842F480424A604A68CB
:1005E00002F480420192019A0090086840F0805025
:1005F0000860086800F080500090009802B07047D2
:1006000080B501F07DFB80BD70B514460D460646F1
:1006100001F086FB2946224600F0CAFB014630461F
:1006200001F086FB70BD000080B501F093FB80BD3A
:100630002DE9F041002800F08B8043F60808C4F251
:1006400002080446D8F8F8030D4600F00F0088426F
:1006500007D288F8F853D8F8F80300F00F00A84242
:1006600076D12068810717D5410705D5D8F8001045
:1006700041F4E051C8F80010010705D5D8F8001082
:1006800041F46041C8F80010D8F80010A26821F0C9
:10069000F0011143C8F80010C0073FD1D8F8F803A3
:1006A00000F00F00A84207D988F8F853D8F8F803EB
:1006B00000F00F00A8424BD12068410707D5D8F8B9
:1006C0000010E26821F4E0511143C8F8001000075F
:1006D00008D5D8F80000216920F4604040EAC10044
:1006E000C8F8000000F07EF8D8F8001044F2BE12FE
:1006F000C1F30311C0F60002515C40F2040220FA7B
:1007000001F140F21C00C2F200000068C2F20002D7
:100710001160FFF731FF0020BDE8F0816068811EA5
:10072000022907D258F8081C89015CBF0120BDE8E6
:10073000F08110E0012807D158F8081C89035CBF3C
:100740000120BDE8F08106E058F8081C890702D4B2
:100750000120BDE8F081D8F8001021F00301084322
:10076000C8F80000FFF7D8FE064641F2883700BF00
:10077000D8F80000616800F00C00B0EB810F8DD05C
:10078000FFF7CAFE801BB842F2D90320BDE8F08112
:1007900040F20400C2F200000068704780B5FFF725
:1007A000F7FF43F60801C4F20201096844F2CE12D1
:1007B000C1F38221C0F60002515CC84080BD000038
:1007C00080B5FFF7E5FF43F60801C4F202010968AE
:1007D00044F2CE12C1F34231C0F60002515CC8406F
:1007E00080BD000010B543F60404C4F20204606842
:1007F00000F00C0008280AD0042819BF42F200407B
:10080000C0F2F40047F64000C0F27D1010BD206831
:1008100021682368490247F64001C0F27D1100F0CB
:100820003F02C3F388105CBF42F20041C0F2F40102
:10083000A1FB00010023FFF7D5FC21680222C1F3D0
:10084000014102EB4101B0FBF1F010BD2DE9F04197
:1008500082B0002800F097800446007843F6000636
:10086000C007C4F2020641D0B06800F00C000428B2
:1008700005D13068800339D56068B8BB83E0B068C3
:1008800000F00C00082802D170684002F1D46568BD
:10089000B5F5803F06D03068B5F5A02F06D140F4FD
:1008A00080203060306840F4803005E020F48030F3
:1008B0003060306820F480203060FFF72DFE002D7E
:1008C000054610D03068800310D4FFF725FE401B8A
:1008D0006428F7D91AE100BFFFF71EFE401B642809
:1008E0004FF003004CD830688003F5D4207880079F
:1008F0001AD5B06810F00C0F09D0B06800F00C00E9
:10090000082840F084807068400200F180803068E0
:10091000800702D5E068012835D13068216920F0D0
:10092000F80040EAC1003060207800072FD420781A
:10093000400742D4A56915B3B06800F00C00082840
:1009400040F09880012D1ED07068E16900F48002AB
:100950008A4218D1216A00F03F028A4213D147F639
:10096000C071626A014091420DD1A16A00F4403227
:100970008A4208D1E16A00F07060884203D1002009
:1009800002B0BDE8F081012002B0BDE8F0816069ED
:10099000002840F20000C4F247205AD00121C0F8DC
:1009A000801EFFF7B9FD0546706F8007BFD4FFF7C3
:1009B000B3FD401B0228F7D9A8E0306C4FF00008C7
:1009C000C0000CD4CDF80480306C4FF0010840F02A
:1009D00080503064306C00F080500190019847F2F4
:1009E0000007C4F200073868C00525D4386840F411
:1009F00080703860FFF790FD054600BF3868C0057D
:100A00001AD4FFF789FD401B0228F7D97EE0E06881
:100A1000002851D00020C4F2472001210160FFF7D7
:100A20007BFD0546306880073FF577AFFFF774FD23
:100A3000401B0228F6D969E0A568012D05D0306F6A
:100A4000052D4DD140F004003067306F40F00100BB
:100A50004CE00021C0F8801EFFF75EFD054600BF98
:100A6000706F80077FF563AFFFF756FD401B0228CC
:100A7000F6D94BE00027C4F2472700203866FFF77D
:100A80004BFD022D05460BD13068800156D5FFF78E
:100A900043FD401B02284FF00300F5D970E700BF6B
:100AA000306880017FF56BAFFFF736FD401B0228F1
:100AB0004FF00300F4D963E70020C4F2472000217F
:100AC0000160FFF729FD0546306880077FF52CAFF0
:100AD000FFF722FD401B02284FF00300F4D94FE737
:100AE00020F001003067306F20F004003067FFF71E
:100AF00013FD002D054641F2883713D0306F800773
:100B000013D4FFF709FD401BB842F7D9032002B008
:100B1000BDE8F081FFF700FD401BB8424FF0030035
:100B20003FF62EAF306F8007F4D4B8F1000F3FF4DA
:100B300001AF306C20F080503064FBE604F11C05FE
:100B40002FCD084340EA8210D9034FF6FF7291433C
:100B5000A1F5803140EA05600843706001203866E5
:100B6000FFF7DAFC044600BF306880013FF507AFAD
:100B7000FFF7D2FC001B02284FF00300F4D9FFE678
:100B800080B500F04FFF80BD002804BF01207047F2
:100B900010B5044690F8390028B9002084F83800D0
:100BA000204600F021F8242084F839002068C1682C
:100BB00021F40051C160204600F0B8FF20680169AF
:100BC00021F490410161416921F02A014161C1682C
:100BD00041F40051C16000202021E06384F8391005
:100BE00084F83A1010BD000080B586B0002205924E
:100BF000CDE9032241F200010068C4F201018842FC
:100C00000292019201D006B080BD43F630000092FE
:100C1000C4F20200436943F010034361436903F0E7
:100C200010030093009B0092036843F001030360EC
:100C3000006800F00100009000984FF4C06001903F
:100C40000220CDE90202032004900720059001F55F
:100C5000704001A9FFF796FB06B080BD2DE9F04179
:100C6000044690F8390020280DD10E4600294FF097
:100C7000010052D01746002A08BFBDE8F08194F861
:100C80003800012802D10220BDE8F081012084F85B
:100C900038004FF0000821201D46C4F83C8084F83D
:100CA0003900FFF739FCA784E78484F83880E18CA9
:100CB000804661B92046402142462B4600F0ECFFB9
:100CC00038B30320BDE8F081E08C0028F2D0E08C3E
:100CD00080210138E084A768204642462B4600F078
:100CE000DBFFB7F5805F0DD10028EAD1308821699C
:100CF00022686FF35F200029506014BF013602366E
:100D0000E2E700BF0028DCD116F8010B216848603B
:100D1000DAE7202084F839000020BDE8F0810000E7
:100D2000FEE7000083B0002043F630010290C4F2D9
:100D300002010A6842F080020A600A6802F080023A
:100D40000292029A01900A6842F002020A600A685E
:100D500002F002020192019A0090086840F001003E
:100D60000860086800F001000090009803B0704728
:100D700080B541F2A84041F20001C2F20000C4F285
:100D8000010100234FF00C0C4FF4E13280E80E001B
:100D9000C0E90333C0E905C3C361FFF7F5FE0028CE
:100DA00008BF80BDFFF7D4FAFEE70000FEE70000B1
:100DB00000F0070080F00703042B28BF04234FF046
:100DC000FF3C03380CFA03F338BF002099438140FD
:100DD0000CFA00F022EA0000084370472DE9F04FBA
:100DE00081B01424C4F2040401F012F9216800282F
:100DF00000F0DC8011F0010140F0D8800090000389
:100E000057D501F039F9002853D0054641F2A038F2
:100E100040F61C00C2F20008C4F2040008F18C0481
:100E200000F539774FF0000B4FF000090BE000BFE1
:100E3000BBEB550F4FEA550509F1010907F12007F2
:100E400004F1140435D0E807F2D05FFA89F6304691
:100E500001F006F98246B8685FEACA71B8601BD033
:100E60002068B9F1000F0AD039694FF6FF72C0F25D
:100E700007021140411A3046C4E900B10AE090B1BE
:100E800039694FF6FF72C0F207021140411AC4E9F6
:100E900000B1002002F044F85FEA0A70C8D540466D
:100EA00001F0C2FFC4E701F039F85FEA0A70F6D436
:100EB000BEE7009840035FD501F0C8F800285BD07A
:100EC000054641F2A03440F61C00C2F20004C4F210
:100ED000040004F1140A00F1E40B4FF000084FF095
:100EE00000090AE0B8EB550F4FEA550509F1010971
:100EF0000BF1200B0AF1140A3ED0E807F2D05FFA9A
:100F000089F6304601F08CF80746DBF80800F9074F
:100F1000CBF8080002D13806E4D529E0DAF8000061
:100F2000DBF810104FF6FF72C0F207021140411AB1
:100F3000B9F1000FCAF80080CAF8041007D049F0D0
:100F40008000C0B201F0DCFF3806CBD510E0802075
:100F500001F0D6FFE08820B1214694F90010002965
:100F600001D50028D7D100F0D9FF3806BAD500BF87
:100F7000304601F06FF9B5E7009C40F21408E00438
:100F8000C4F2040815D4A0045CD4200773D420054F
:100F900079D4B4F1FF3F40F38080600706D558F85C
:100FA000100C58F8101C084348F8100C01B0BDE8AC
:100FB000F08FD8F8000040F48050C8F80000D8F84E
:100FC000F00720F00100C8F8F00700F0F7FF00F08C
:100FD000D9FF40F61C00C4F204004FF6006200F591
:100FE00039700621CFF6FF724FF0006300274FF6ED
:100FF0007F3600BFA0F50075835003602F61AE609F
:1010000007618660013900F12000F3D140F61C0130
:10101000C4F20401086840F001100860092041F89A
:10102000080C012041F80C0C41F2A030C2F2000083
:101030004FF48071FFF720F901F08CFF00F06EFF94
:10104000A004A2D5D8F8000040F40050C8F8000071
:1010500040F20400C2F20000056800F0C7FF01463C
:10106000284601F043F8D8F8F00740F48070C8F83B
:10107000F00720078BD5D8F8000040F00800C8F82A
:101080000000200585D5D8F8000040F40060C8F8BD
:101090000000B4F1FF3F3FF780AFD8F8000040F008
:1010A0000040C8F8000060077FF580AF77E70000D8
:1010B000EFF30980BFF36F8F154B1A681EF0100F06
:1010C00008BF20ED108A20E9F04F10602DE90900DB
:1010D0004FF0500080F31188BFF34F8FBFF36F8F35
:1010E00002F0B2FC4FF0000080F31188BDE8090067
:1010F00019680868B0E8F04F1EF0100F08BFB0EC98
:10110000108A80F30988BFF36F8F704700BF00BF5C
:1011100060290020B0B582B041F22005C2F200057E
:1011200005F14801019100211F28009116D12A1DC7
:101130006B7C07CA012BA962EA6209D845F25531D6
:10114000C4F24231884203D1A87C013810281CD354
:101150004FF4A42000F0FAF8002413E044F29F209A
:10116000C0F6000002F09EFD6BA002F0EDFF44F21D
:10117000BB20C0F6000002F095FD4FF4A42000F063
:10118000E5F80024204602B0B0BDE87C5A2800F201
:1011900063800024DFE810F05B00670067007D00DB
:1011A0006700670067006700670067006700670007
:1011B00067006700670067006700670082006700DC
:1011C00067006700670067006700670087008C00A2
:1011D000670067009100670067006700670096007E
:1011E00067009B0067006700A0006700A30067001E
:1011F000670067006700AE00670067006700670070
:1012000067006700670067006700670067006700A6
:101210006700670067006700670067006700670096
:101220006700670067006700670067006700670086
:101230006700670067006700670067006700670076
:10124000670067006700670067006700A60001A8E5
:10125000694600F023FB4CE0A82848D0AA2802D118
:1012600000F07EFB45E04FF4A42000F06FF844F25C
:10127000AD20C0F6000002F015FDE97C2CA002F0C4
:1012800011FD44F2BB20C0F6000002F00BFD00246B
:1012900030E001A8694600F0B7FA2AE001A86946E3
:1012A00000F062F825E001A8694600F0D3F820E0DC
:1012B00001A8694600F0E0FA1BE001A8694600F0C9
:1012C000F1F816E001A8694600F076FA11E001A8ED
:1012D000694600F04BFA0CE000F072F909E000F00A
:1012E000EFFA06E001A8694600F096F801E000F088
:1012F000D1F90446002C3FF445AF287800287FF44C
:1013000041AF009921B10198C9B201F0D7FF39E787
:10131000002001F0BBFF35E773697A6520213D208D
:1013200073697A656F6628636277290D0000000093
:10133000756E737570706F7274656420636D643A56
:101340003078253032780D0A0000000041F220028A
:10135000010CC2F2000282F83210010A82F8331046
:1013600082F83400704700002DE9F0418AB08846C9
:1013700044F26C11C0F6000191E82C0001F10C0E52
:101380009EE8D050019204AA0293039582E8D050BF
:101390000A6A41F22001C2F20001CB68099242F6CA
:1013A0003062C3F23012099263B10A7DD2070CD1C8
:1013B000CD7D0068242D28BF242501A92A46FEF7EB
:1013C00042FF19E04FF4A42020E0497D802909D094
:1013D000C1B900684FF4004181804FF00071016095
:1013E000062509E000684FF02031416048F2000115
:1013F000C0F6000101600825C8F8005001200AB0BD
:10140000BDE8F08142F20040C0F20500FFF79EFF08
:1014100000200AB0BDE8F081B0B541F22002C2F26E
:101420000002D3687BB1D57E0C46006844F290116F
:101430001B2D28BF1B25C0F600012A46FEF703FF1F
:1014400001202560B0BD4FF4A420FFF77FFF0020EE
:10145000B0BD0000B0B582B041F22002C2F200027D
:10146000D368BBB1D57D0C4692F83110042D4FF0F6
:10147000030228BF0425002901921CBF80218DF89A
:101480000610006801A92A46FEF7DDFE256001204E
:1014900002B0B0BD4FF4A420FFF758FF002002B007
:1014A000B0BD000080B541F22002C2F20002D26855
:1014B0002AB14FF4A420FFF749FF002080BD00228D
:1014C000026001200A6080BD70B541F22006C2F2C0
:1014D0000006F16BB6F84020B06B01FB02F406F198
:1014E0004805B4F5007F28BF4FF400742946224612
:1014F00001F0AAFE38B141F20010C0F20400FFF77B
:1015000025FF002070BD42F64810C2F20000007AAC
:101510002946224601F0B6FBB6F84000D6E90E2374
:10152000B4FBF0F0F16A0244181AC6E90E20A1EBF0
:101530000400F0621CBF012070BD03203070012048
:1015400070BD000070B541F22006C2F20006B16B1A
:10155000054606F14804084621462A4601F086FE63
:1015600038B140F20030C0F20400FFF7EFFE002077
:1015700070BDB6F84000D6F82CC0B5FBF0F1D6E946
:101580000E320B44511AACEB0502C6E90E31F26281
:1015900010D001FB00F242F64810C2F200000078C1
:1015A0002146B2F5007F28BF4FF4007201F0E8FA3F
:1015B000012070BD002001F069FE012070BD000017
:1015C00080B541F22000C2F2000090F91010B1F194
:1015D000FF3F1CDCC168D1B1428BD0F8153012043A
:1015E000D0F844C01BBA12BA836313446345C26384
:1015F00013D942F20010C0F20500FFF7A7FE44F233
:101600009F20C0F6000002F04DFB1DA016E04FF435
:10161000A420FFF79BFE002080BDB0F840305A4365
:10162000914204D102210170FFF74EFF80BD44F2C8
:101630009F20C0F6000002F035FB05A002F084FDFB
:1016400044F2BB20C0F6000002F02CFB002080BD5D
:10165000736373695F626C6B5F6C656E20646F654A
:1016600073206E6F74206D6174636820776974688D
:101670002064446174614C656E6774680D000000FD
:101680004C4241206F7574206F662072616E6765F1
:101690000D00000080B541F22000C2F2000090F978
:1016A0001010B1F1FF3F1DDCC168D9B1D0F8152091
:1016B000D0F819E0D0F844C013BA9EFA8EF28363D2
:1016C00013446345C26313D942F20010C0F205000F
:1016D000FFF73CFE44F29F20C0F6000002F0E2FA61
:1016E0001DA016E04FF4A420FFF730FE002080BDBF
:1016F000B0F840305A43914204D102210170FFF703
:10170000E3FE80BD44F29F20C0F6000002F0CAFA5A
:1017100005A002F019FD44F2BB20C0F6000002F063
:10172000C1FA002080BD00BF736373695F626C6B98
:101730005F6C656E20646F6573206E6F74206D61E1
:1017400074636820776974682064446174614C65CF
:101750006E6774680D0000004C4241206F75742064
:101760006F662072616E67650D000000B0B541F2D2
:101770002002C2F20002D368C3B1536CB2F8402019
:101780000068013B4FEA136C4FEA134E1C0A150A1E
:10179000C370002380F800C080F801E0847083806B
:1017A0008571C271082008600120B0BD4FF4A420EB
:1017B000FFF7CCFD0020B0BD70B541F22002C2F2AF
:1017C0000002D368D3B1536CB2F8402000684FEAEE
:1017D000136C4FEA134E1C0A150A4FF00066C371D2
:1017E0000223066080F804C080F805E0847103815C
:1017F0008572C2720C200860012070BD4FF4A420D5
:10180000FFF7A4FD002070BD2DE9F04186B041F244
:101810002002C2F20002D3682BB344F2AC13C0F62C
:1018200000038846D57DD96892F832C0122D28BFB2
:10183000122593E8D0000491198ACDE90146ADF84C
:101840001410B2F833100068ADF8101001A92A4640
:1018500003978DF806C0FEF7F6FCC8F8005001208B
:1018600006B0BDE8F0814FF4A420FFF76FFD002023
:1018700006B0BDE8F081000080B541F22002C2F25E
:101880000002D2682AB14FF4A420FFF75FFD0020C8
:1018900080BD0022026001200A6080BD80B541F257
:1018A0002002C2F20002D2682AB14FF4A420FFF74E
:1018B0004DFD002080BD0022026001200A6080BD35
:1018C00010B541F22001C2F2000191F91000002888
:1018D0001ED4C868E0B1D1F815204C8B13BA22048D
:1018E000D1F844C012BA8B6313446345CA6315D957
:1018F00044F29F20C0F6000002F0D4F913A002F0D9
:1019000023FC44F2BB20C0F6000002F0CBF91BE040
:101910004FF4A420FFF71AFD002010BDB1F84030AD
:101920005A43904210D142F64810C2F200000124FE
:10193000007801F8484BB2F5007F28BF4FF40072E1
:1019400001F01EF9204610BD002010BD4C42412080
:101950006F7574206F662072616E67650D00000000
:1019600010B541F22001C2F2000191F910000028E7
:101970001ED4C868E0B1D1F81520D1F81930D1F8DB
:1019800044C014BA1ABA131963458C63CA6315D9D3
:1019900044F29F20C0F6000002F084F913A002F088
:1019A000D3FB44F2BB20C0F6000002F07BF91BE041
:1019B0004FF4A420FFF7CAFC002010BDB1F840305E
:1019C0005A43904210D142F64810C2F2000001245E
:1019D000007801F8484BB2F5007F28BF4FF4007241
:1019E00001F0CEF8204610BD002010BD4C42412031
:1019F0006F7574206F662072616E67650D00000060
:101A0000074B19680868B0E8F04F80F30988BFF306
:101A10006F8F4FF0000080F31188704700BF00BF48
:101A200060290020B0B501380024B4EB106F1CBF52
:101A30000120B0BD4EF21005CEF2000568604FF0F7
:101A4000FF300F2100F074F90720AC6028602046B9
:101A5000B0BD000080B502F045F8012818BF02F0C3
:101A600029F8FEF75FFD80BD70B592B006AC204648
:101A70003021FEF701FC002543F640000595CDE935
:101A80000355CDE901550095C4F202000168022614
:101A900041F080510160006800F080500090009893
:101AA00047F200000095C4F20000016841F4404193
:101AB0000160006800F4404000900098012006900A
:101AC0004FF4803007904FF480000D9019200E9055
:101AD0004FF4A8700C96CDE90F0607201190204610
:101AE000FEF7B4FE88B90F20CDE901064FF4A050EF
:101AF00004904FF48050059001A805210395FEF74E
:101B000097FD002804BF12B070BDFEF721FC000055
:101B10004EF68850CEF20000016841F47001016079
:101B20004FF0006140F8801C70470000B0B50546DA
:101B3000006805F108030ECB0469194324F44054EE
:101B4000224302616A69EB691143C26849F20C647D
:101B50001943A2431143C1604169AA6921F440714C
:101B60001143416141F20041B3F5004F40F4806000
:101B7000C4F2010124D1884246D1FEF721FE6B68F0
:101B80001921A0FB01015A00DB0FFEF72BFB48F2E5
:101B90001F51C5F2EB11A0FB01235A096FF063033B
:101BA00002FB0300322303EBC000A0FB01014FF452
:101BB000F87000EA111000EB0210C1F3421167E067
:101BC000884244D1FEF7FCFD6B681921A0FB01019E
:101BD0009A009B0FFEF706FB48F21F51C5F2EB116E
:101BE000A0FB01235A096FF0630302FB03003223B9
:101BF00003EB0010A0FB0101F02000EA511000EB04
:101C00000210C1F3431143E0FEF7C8FD6B681921D0
:101C1000A0FB01015A00DB0FFEF7E4FA48F21F5166
:101C2000C5F2EB11A0FB01235A096FF0630302FB1D
:101C30000300322303EBC000A0FB01014FF4F87056
:101C400000EA111000EB0210C1F3421120E0FEF790
:101C5000A5FD6B681921A0FB01019A009B0FFEF7FF
:101C6000C1FA48F21F51C5F2EB11A0FB01235A093A
:101C70006FF0630302FB0300322303EB0010A0FBB1
:101C80000101F02000EA511000EB0210C1F34311F2
:101C90002A6808439060B0BD2DE9F0410446006811
:101CA00000680840884202D10020BDE8F0811D464E
:101CB0000E4690465F1C04E0206800683040B04249
:101CC000F2D0002FF8D02DB1FEF726FCA0EB0800D3
:101CD000A842F1D92068C16821F4D071C16041697E
:101CE00021F001014161202084F8390084F83A0094
:101CF000002084F838000320BDE8F081FEE70000F2
:101D0000002848BF704700F01F01012202FA01F1CC
:101D10004EF200124009CEF2000242F82010704745
:101D20004EF60C50CEF200000068C0F3022070475F
:101D30004EF6145300F00F02CEF2000309011A44CC
:101D400000F16043B0F1FF3FC8BF03F5644211707A
:101D5000704700004EF60C51CEF200010A684FF6B3
:101D6000FF031A4060F30A2242F0806040F0FD70E9
:101D700008607047F0B585B005464078AF882228E6
:101D80001BD00E46212826D0202835D13168EA887C
:101D900003AD2846FEF757FAFCB201AE20463146A5
:101DA00000F00EFD304629460722FEF770FA00B318
:101DB00003A9204600F01EFD1BE06888FDB200F07C
:101DC0000101C0F34004284600F00EFD28462146DC
:101DD00000F012FD0DE0F8B203A9144600F0F0FC8B
:101DE0003068DDF80F10039AC0F803100260072076
:101DF0002060002005B0F0BD06A001F053FF697817
:101E000008A001F04FFF11A001F04CFF4FF0FF3090
:101E100005B0F0BD1B5B33336D5B572F5553425DEF
:101E200020000000556E68616E646C656420434458
:101E30004320436C617373206252657175657374DE
:101E4000203078253032780D0A0000001B5B306DA1
:101E500000000000B0B541F2A440C2F200000078DA
:101E6000002808BFB0BD40F22004C2F2000404F113
:101E70000A0040F2F6716122FEF7F7F941F2A5453A
:101E8000C2F2000501202870812021464FF4006233
:101E900000F0F8FE28780028FCD1B0BD80B544F2EF
:101EA000D610C0F6000000F013FD41F2E840C2F287
:101EB000000000F08FFC00F03BFC41F20850C2F241
:101EC000000000F087FC00F033FC40F21000C2F28A
:101ED000000000F015FC40F20800C2F2000000F023
:101EE0000FFC41F22850C2F200000521842201F0CB
:101EF00045F900F01DFC01F01BF980BD10B50C2464
:101F0000C4F20404206840F04000206000F0BEF8F5
:101F1000E06A40F48030E06210BD000040F610300E
:101F2000C4F2040000210160016841F40021016055
:101F3000016841F018010160016841F0C041016091
:101F400041F2A031C2F20001416050F8101C41F092
:101F5000802140F8101C704703320023B3EB920F2E
:101F600008BF704741F2000C920800030439C4F224
:101F7000040C00BF51F8043F013A40F80C30F9D18D
:101F80007047000081B010200021C4F204000091CD
:101F90001021016040F64051C0F20301009A013265
:101FA0008A42009205D80268D206F7D4002001B018
:101FB00070474FF0FF3001B07047000081B0102033
:101FC0000021C4F2040000914FF48461016040F6E6
:101FD0004051C0F2030100BF009A01328A420092D0
:101FE00002D802689206F7D401B0704740F60800A4
:101FF000C4F20400006800F0060141F004020F2062
:10200000062A08BF0320002908BF084670470000C1
:102010001420C4F2040001684068084070470000C2
:1020200040F61001C4F20401D1F800C04B6A00F080
:10203000070223FA02F2D20101EB4010D2B2D0F82B
:10204000F80042EA0C0108407047000040F6180012
:10205000C4F2040001684068084080B27047000084
:1020600040F61401C4F2040101EB4010D0F8F40270
:10207000096808407047000040F61800C4F20400E8
:10208000016840680840000C7047000081B01020D3
:1020900040F64051C4F20400C0F203010022009255
:1020A000009A01328A42009212D80268B2F1FF3FD0
:1020B000F6DC00220092026842F00102026000BFDA
:1020C000009A01328A42009202D80268D207F7D100
:1020D00001B070470C20C4F20400016821F0C04137
:1020E0000160016841F080410160704703290DD112
:1020F00045F24031CFF6277143F200520144C0F25D
:102100000C0291420FD24FF4705001E04FF4105086
:102110000C21C4F204010A6822F470520A600A68B1
:1021200010430860704741F64061CFF61B7144F2DE
:1021300040220144C0F20F02914202D24FF460509B
:10214000E6E7A0F5740144F68072A1F51051C0F2E3
:102150001202914202D24FF45050D9E7A0F183719C
:102160004DF22062A1F5E741C0F21302914202D282
:102170004FF44050CCE74BF26061CFF6E5614EF290
:1021800060320144C0F21602914202D24FF4305044
:10219000BEE74DF20031CFF6CE6147F24072014406
:1021A000C0F21B02914202D24FF42050B0E745F634
:1021B000C031CFF6B36149F2C0120144C0F221022E
:1021C000914202D24FF41050A2E7A0F1B77147F24A
:1021D0002052A1F55851C0F23802914202D24FF478
:1021E000005095E745F2E041CFF6596149F6E042EB
:1021F0000144C0F241024FF4C050914238BF4FF445
:10220000E05085E710B540F2280CC4F2040C5CF8ED
:10221000042CD0B1DCF80030B0F1010E02EB134316
:102220000CD00020002200BF0CEB8000D0F8DC4076
:102230000132D0B2864503EB1443F5D843EA01409E
:102240000CEB8E01C1F8DC0010BD42EA0140CCF875
:10225000000010BD2DE9F04F81B041F2A031814660
:1022600000EB8000C2F2000101EB800A3AF8080F8F
:1022700040F634035746564657F80C1F56F8102FB1
:10228000C4F20403891A814288BF0146C81C4FEA80
:10229000900B03EB491000F1CC050AF1080400BFD4
:1022A000A86980B2584501D2002006E0306839683C
:1022B00088424FF0000038BF012039683268A0B171
:1022C000BAF80000A1EB0208804588BF804621686B
:1022D0001FFA88F24846FFF73FFE20683168404405
:1022E000206001EB08003060DAE791420CD840F63C
:1022F0003403C4F2040309F00F0001211A6801FA43
:1023000000F022EA0000186001B0BDE8F08F000084
:1023100080B582B0019041F2A840C2F2000001A94C
:1023200001224FF47A73FEF799FC019802B080BD48
:1023300041F26820C2F2000090F81D01002818BF89
:1023400001207047FEF7FCF8FFF78EFBFEF7EAFC72
:10235000FEF70EFDFFF7A2FDFFF77CFD4FF4FA70CC
:10236000FDF7FCFFF8E7000080B541F22001C2F262
:1023700000010878042811D003281BD0022818D1A6
:10238000C87C40F08000A82813D1FFF79DF80028F2
:1023900018BF80BD012000F079FF80BD42F64810D3
:1023A000C2F200000022007801F8042B1F2200F086
:1023B000E7FB80BD002000F069FF80BD10B541F251
:1023C0002004C2F200042078012817D020BB084660
:1023D000FEF7A0FE00BB44F29F20C0F6000001F013
:1023E00061FCE17C0DA001F05DFC44F2BB20C0F675
:1023F000000001F057FC00F09FFE10BDE07C40F0B3
:102400008000AA2808D10846FFF79CF8002818BFCA
:1024100010BD012000F03AFF10BD00BF436F6D6D8D
:10242000616E643A307825303278206465636F6479
:1024300065206572720D0A0010B504464078FE28CA
:1024400005D0FF280FD100F0F5FE002010BD41F2AD
:102450002000C2F2000090F83500096808700120E1
:102460001060002010BD44F2AD20C0F6000001F065
:1024700019FC617805A001F015FC44F2BB20C0F600
:10248000000001F00FFC4FF0FF3010BD556E686189
:102490006E646C6564204D534320436C61737320FC
:1024A0006252657175657374203078253032780D0D
:1024B0000A00000080B5072805D0012818BF80BD9C
:1024C00000F0B8FE80BD42F64810C2F2000041F2B2
:1024D00020010078C2F2000104311F2200F050FBFD
:1024E00080BD000042F66410C2F200000168096875
:1024F00019B10068C068006801E04FF0FF3042F693
:10250000BC41C2F2000108607047000070B541F2A2
:10251000A03040F604050826C2F200004FF4807196
:10252000C4F20405C4F20406FDF7A6FE00F0A2F80A
:10253000286840F002002860306820F00100306018
:10254000FFF7DCFCFFF7C6FD6FF00300002100BFC2
:10255000321804303828C2F80011F9D1306B002449
:1025600040F400103063306B20F400203063306B97
:1025700020F48020306340F60060C4F20400046060
:10258000D6F8F807C6F8F807D6F8F80740F00100C3
:10259000C6F8F807FFF712FDFFF7F4FC6FF0804173
:1025A000EC602C61AC613461F1604FF44321316126
:1025B000316C11F0180F2ED004463068402140F0E5
:1025C00006003060306840F0200030604FF48070CA
:1025D000F0610020FFF716FE01204FF48071FFF735
:1025E00011FE02208021FFF70DFE03208021FFF75E
:1025F00009FE04208021FFF705FE05204021FFF79A
:1026000001FE306840F001003060286820F00201CF
:102610002046296070BD44F29F20C0F6000001F002
:1026200041FB05A001F090FD44F2BB20C0F6000084
:1026300001F038FBFEE700BF5468697320647763DC
:10264000322076657273696F6E20646F6573206ED9
:102650006F7420737570706F727420646D612C20BC
:10266000736F2073746F7020776F726B696E670D74
:1026700000000000B0B586B0002443F63005059494
:10268000CDE90344CDE901440094C4F20205286871
:1026900001A940F002002860286800F002000090C4
:1026A00000984FF4404001900220029003200490D3
:1026B0000C20059040F20040C4F20200FDF762FEDB
:1026C00000942868002140F000502860286800220B
:1026D00000F00050009000984D20FDF795FF4D2030
:1026E000FDF78EFF06B0B0BD42F6AC41C2F200016C
:1026F0000A4609680029FBD100211060016070477B
:10270000017842F64C430A0642F6EC32C2F200026D
:10271000C2F2000358BF134601F07F0202EB4202EF
:10272000406803F8221003EB8201886070470000C4
:1027300010B541F26824C2F2000494F81F11017729
:10274000FFF7D2FF94F81F01013084F81F0110BD7C
:1027500010B50AA00C4601F0A5FA44B114F03F00F0
:1027600005D181200021002200F08CFA10BD41F239
:10277000A540C2F200000021017010BD61637475B4
:10278000616C20696E206C656E3A25640D0A00004C
:1027900080B506A001F086FA40F62001C2F20001E1
:1027A00002204FF4006200F0EBF980BD61637475A4
:1027B000616C206F7574206C656E3A25640D0A009B
:1027C00048F28040C0F21E00086008208871002096
:1027D0008880704741F67551C0F600010022C0E9BB
:1027E0000112C0E90322704741F2A440C2F2000086
:1027F00001707047704700007047000070B542F6E6
:10280000AC42C2F200021668002E08BF70BD0C4632
:10281000054601E0366836B13269002AFAD028460A
:1028200021469047F6E770BDF0B581B041F26824CB
:10283000C2F20004207800F0030001281CD0022816
:1028400036D142F6AC40C2F20000076887B304F10B
:10285000080504F1100603E0012159B13F683FB3B8
:10286000BB68002BF8D02046294632469847002105
:102870000029F3D101B0F0BD42F6AC40C2F2000035
:102880000768AFB104F1080504F110067B684BB18D
:10289000397F2279914205D1204629463246984710
:1028A000002100E001210029E4D03F68002FEDD194
:1028B0004FF0FF3001B0F0BD80B540F62001C2F20C
:1028C000000102204FF4006200F05AF980BD0000C0
:1028D000B0B541F26825C2F20005044628464FF41F
:1028E0009071FDF7C9FC42F64C41C2F20001802212
:1028F0000A7042F68D52C0F600028A6042F6EC3150
:102900000020C2F2000185F81F01087042F6E15074
:10291000C0F60000AC618860B0BD000043B240F674
:10292000001100F07F02C4F20401002B4FEA4210B4
:1029300019D401F50071435802EB820223F400130D
:10294000435041F2A033C2F2000303EB820292F83B
:10295000822002F0FE02022A1AD1425842F080522E
:10296000425000207047435802EB820223F40013C8
:10297000435041F2A033C2F2000303EB8202927A89
:1029800002F0FE02022A03D10A5842F080520A5095
:102990000020704780B543B247F6000E40F61C0C8D
:1029A00000F07F00CEF6334EC4F2040C002B4FEA49
:1029B000401312D40CEB0302D2F8E41200F007002B
:1029C00041F00061C2F8E4124FF4803102F539732E
:1029D00001FA00F00EF1707E0BE0634453F8E41F3F
:1029E00000F0070041F000611960012101FA00F0D8
:1029F00080B2DCF820108143CCF82010DCF8001005
:102A000021EA0000CCF80000186800EA0E0100205E
:102A1000196080BD10B50178044601F07F000628DA
:102A200012D344F29F20C0F6000001F03BF9217858
:102A300039A001F037F944F2BB20C0F6000001F0E4
:102A400031F94FF0FF3010BD49B241F2A03240F6EB
:102A50001C0E6388002948F2000C00EB8001C2F2D2
:102A60000002C4F2040EC1F2000C02EB81011FD47B
:102A700064780122A1F8803081F8824081F88420B6
:102A80004FF48031DEF8002081401143CEF8001071
:102A900060B30EEB4010D0F8E4126FF3DF2341EA8D
:102AA0008441194341EA0C01C0F8E412002010BD32
:102AB000627801240B818A720C7304FA00F1DEF84B
:102AC000004089B22143CEF800106FF3DF230EEBF4
:102AD0004011D1F8E44043EA805040EA824020436C
:102AE00040EA0C00C1F8E400002010BDA3F1080189
:102AF0004FEAF1010729CCD8DFE801F00507040906
:102B00000404040BC5E70323C3E70223C1E7012341
:102B1000BFE70023BDE700BF4570206164647220F9
:102B20002564206F766572666C6F770D0A00000071
:102B300080B542B240F6001100F07F00C4F20401FB
:102B4000002A4FEA401208D41144D1F8002201F5BE
:102B5000007158B1002A05D508E05358114428B136
:102B6000002B03D40A6822F080420A600A68002819
:102B700042F400120A6008BFFFF7D0F9002080BDC0
:102B8000F0B521B9002A1CBF4FF0FF30F0BD00F0B6
:102B90007F0041F2A03500EB8003C2F2000505EB97
:102BA000830393F884509DB38D071CBF6FF0020020
:102BB000F0BD40F6080C1C46C4F2040C44F88C2FFF
:102BC000002544F8041C65600CEB4016D6F8085349
:102BD00003F180076FF3DC45C6F80853D6F80853B5
:102BE00006F53E7E6FF31205C6F808539AB13D888C
:102BF000F0B150190138B0FBF5F00024C1F6F874BB
:102C0000DEF8105004EAC04028436FF3DF4217E0BB
:102C10006FF00100F0BDDEF8100040F40020CEF8A7
:102C200010003888DEF810100843CEF8100021E0BC
:102C3000954238BF2A462260DEF8100040F400209A
:102C4000CEF81000DEF810001043CEF81000CEF8D9
:102C5000141093F8820001280CD1DCF80000DEF893
:102C60000010C0054FF0805058BF4FF0005008438F
:102C7000CEF80000DEF8000040F00440CEF800007E
:102C80000020F0BD70B521B9002A1CBF4FF0FF3005
:102C900070BD00F07F0041F2A03500EB8003C2F26E
:102CA000000505EB83031D7B8DB38D071CBF6FF003
:102CB000020070BD40F6080C1E46C4F2040C46F833
:102CC000142F002546F8041C75600CEB4015D5F850
:102CD000084105F1F80E6FF3DC44C5F80841D5F85A
:102CE00008416FF31204C5F808419AB11D89C0B1BB
:102CF00050190138B0FBF5F00024C1F6F874DEF885
:102D0000105004EAC04028436FF3DF4211E06FF037
:102D1000010070BDDEF8100040F40020CEF8100075
:102D20002CE0954238BF2A463260DEF8100040F4AD
:102D30000020CEF81000DEF810001043CEF810008E
:102D4000987A012818D1DCF80000DEF80020C005D0
:102D50004FF0805058BF4FF000501043CEF80000A5
:102D6000DEF8100020F0C040CEF81000DEF81000B1
:102D700040F00050CEF81000CEF81410DEF800003D
:102D800040F00440CEF80000002070BD80B541F254
:102D90006823C2F200030846D3E902120144121A62
:102DA000C3E9021203D08020FFF76CFF80BD187DBD
:102DB00038B100201875802000210022FFF762FF43
:102DC00080BDD88850B193F90000B0F1FF3FC8BF73
:102DD00080BD002000210022FFF7D2FE80BD000050
:102DE00080B5002908BF80BD41F26823C2F200030C
:102DF0000846D3E902120144121AC3E9021203D0B1
:102E00000020FFF7BDFE80BD03F11C00986000F0BC
:102E100073FB28B1802000210022FFF733FF80BD23
:102E20008020FFF785FE80BD10B50168406841F243
:102E30006824C2F200046060E28848B2B2F5807F84
:102E4000216011D900280FD444F29F20C0F6000061
:102E500000F028FF23A001F077F944F2BB20C0F670
:102E6000000000F01FFF29E004F11C010023C4E969
:102E70000212226123752AB1002803D40020FFF733
:102E80007FFE10BD00F038FBC0B12069E28890429F
:102E900038BF0246B2F5807FE26013D944F29F202A
:102EA000C0F6000000F0FEFE0EA001F04DF944F265
:102EB000BB20C0F6000000F0F5FE10BD8020FFF73B
:102EC00037FE10BDA1688020FFF7DCFEE188206995
:102ED000884228BF10BD10F03F0004BF01202075BC
:102EE00010BD00BF526571756573742062756666AA
:102EF000657220746F6F20736D616C6C0D00000043
:102F000080B500F07F0242F64C4302EB4202C2F26F
:102F1000000303EB82029268002A18BF904780BD2D
:102F200080B500F07F0242F6EC3302EB4202C2F2BF
:102F3000000303EB82029268002A18BF904780BD0D
:102F4000072818BF704780B5FFF7B6FCBDE8804082
:102F500070470000B0B582B00020002500F01AFADA
:102F600041F26820C2F20000A0F81C518020C0F29B
:102F700040006C4600902046FFF74CFD20468DF83F
:102F80000050FFF747FD01200021FFF737FC01202B
:102F9000FFF7D6FF02B0B0BD70B50321B1EB102F23
:102FA000C4B208BFEE2C25D0050A291F022946D33A
:102FB0000F2D41D144F21D30C0F6000000F072FE2A
:102FC00040A001F0C1F844F2BB20C0F6000000F0C0
:102FD00069FE41F2A040C2F2000004687CB341F2F5
:102FE0006825C2F20005A868D4E90012FDF72BF9A4
:102FF00060681EE044F21D30C0F6000000F052FE92
:1030000042A001F0A1F844F2BB20C0F6000000F09D
:1030100049FE42F65810C2F2000004687CB141F249
:103020006825C2F20005A86821682279FDF70BF92E
:1030300020792861012070BD400A022801D90020B2
:1030400070BD41F2682CC2F2000CDCF818100A784E
:10305000C2B1002005E000BF01308B188A5C194620
:103060003AB14B789D42F8D1A042F5D1012666B124
:1030700002E00026194646B1072D19D0022D08BFDF
:103080004A8816E00026002EF6D144F29F20C0F6B2
:10309000000000F007FE12A02946224600F002FEC2
:1030A00044F2BB20C0F6000000F0FCFD304670BDCD
:1030B0004A88DCF80800CCF81020FDF7C4F8304648
:1030C00070BD00BF7265616420424F532064657318
:1030D00063726970746F7220737472696E670D0029
:1030E00064657363726970746F72203C7479706583
:1030F0003A25782C696E6465783A25783E206E6FA3
:103100007420666F756E64210D0A0000726561643B
:10311000204D53204F5320322E302064657363724C
:103120006970746F7220737472696E670D000000AD
:1031300080B5FFF7EBF980BDB0B541F22004C2F2D3
:103140000004207C42F64815C2F2000520B9E06870
:1031500010B12878FFF7ECFC287AFFF7E9FC287813
:10316000211D1F22FFF70CFDB0BD00004FF47A7047
:1031700008604FF40070108070470000B0B504463E
:1031800042F23940C0F60000002342F2B545C4E9DE
:10319000010342F64810C0F60005C2F20000C4E97F
:1031A0000335017042F2BD31C0F60001416042F2C8
:1031B00069310546C0F6000105F8082FC160FFF728
:1031C0009FFA2846FFF79CFA41F22005C2F200055B
:1031D00028464FF41271FDF74FF805F1440105F14F
:1031E00040020020FFF7C2FFB5F84000B0F5007FB5
:1031F0000FD944F29F20C0F6000000F053FD06A056
:1032000000F0A2FF44F2BB20C0F6000000F04AFD2F
:1032100000242046B0BD00BF6D736320626C6F63F5
:103220006B20627566666572206F766572666C6F7C
:10323000770D000041F22000C2F200000021017071
:1032400080F831107047000009280CD880B541F291
:103250004853C2F2000303EB402308461946FCF72B
:10326000F2FFBDE8804000207047000009280AD81E
:1032700080B541F24853C2F2000303EB4020FCF753
:10328000E2FFBDE8804000207047000080B541F2B9
:103290002001C2F2000181F830000420087042F6DB
:1032A000481045F25532C2F20000C5F24232007AAF
:1032B00041F8242F0D22FFF7E5FC80BDB0B541F2A7
:1032C0002005C2F20005EC68024642F64810C2F240
:1032D00000008C4288BF0C460321007A29701146F9
:1032E0002246FFF7CFFCE86A001BE862002085F861
:1032F0003000B0BD80B582B044F21D30C0F6000091
:1033000000F0D0FC41F26820C2F20000017842785F
:103310004388B0F804C0B0F806E044F2C020C0F61C
:103320000000CDF800C0CDF804E000F0BBFC44F292
:10333000BB20C0F6000000F0B5FC02B080BD00006C
:10334000B0B58478C57844F21D30C0F6000000F0B6
:10335000A9FC05F0030208A0214600F0A3FC44F2FA
:10336000BB20C0F6000000F09DFC2046FFF712FBDA
:10337000B0FA80F04009B0BD436C6F736520657092
:103380003A30782530327820747970653A25750D99
:103390000A00000040F60001C4F204010A6800F0CF
:1033A0007F0022F4FE620A600A6842EA00120020EE
:1033B0000A607047F0B581B041F26821C2F20001A5
:1033C0008C69217801B30546FF260020FF2704E021
:1033D000E7782178625C0C44BAB1617805290BD09A
:1033E0000429F5D00229F4D16679711BB1FA81F173
:1033F00049090843EDE700BF002F08BFAE42E8D1FE
:10340000204600F007F8E4E7002000F0010001B0DA
:10341000F0BD000080B582B081788DF80010818801
:10342000C0786FF3DF2100F003008DF8010044F253
:103430001D30C0F60000ADF8021000F033FC9DF81E
:1034400000109DF80120BDF8023008A000F02AFC11
:1034500044F2BB20C0F6000000F024FC6846FFF7F1
:10346000D9FAB0FA80F0400902B080BD4F70656EA5
:103470002065703A30782530327820747970653A5A
:103480002575206D70733A25750D0A002DE9F043FE
:1034900081B041F26822C2F20002966932781AB312
:1034A000884681460024FF25FF2705E0FFF7B2FF8D
:1034B0003078315C0644C1B1707805280CD00428FE
:1034C000F6D1B578F77885EA090087EA080108435C
:1034D00008BF3446ECE700BF4D45E9D130464745CB
:1034E000E4D0FFF72DFFE3E7002408202146FFF793
:1034F00085F901B0BDE8F08310B541F26824C2F24D
:103500000004207800F06000402821D020282CD032
:1035100000281CBF002010BD00F080F8B0F1FF3F74
:10352000C4BF012010BD6078062825D16088B0F5A1
:10353000C06F21D130A000F0B5FB33A000F004FE35
:1035400044F2BB20C0F6000000F0ACFB002010BD30
:1035500000F0ACF9B0F1FF3F0CDC44F29F20C0F664
:10356000000000F09FFB12A015E0FFF75DF9B0F13D
:10357000FF3F09DD012010BD44F29F20C0F600008E
:1035800000F090FB16A006E044F29F20C0F6000079
:1035900000F088FB0CA000F0D7FD44F2BB20C0F681
:1035A000000000F07FFBFFF7A5FE002010BD00BF6C
:1035B00076656E646F7220726571756573742065CF
:1035C00072726F720D000000636C6173732072651C
:1035D0007175657374206572726F720D0000000062
:1035E0007374616E64617264207265717565737461
:1035F000206572726F720D001B5B33336D5B572F4A
:103600005553425D2000000049676E6F726520448B
:10361000514420696E2066730D00000080B541F2B0
:103620006820C2F20000007800F00300022809D0F0
:1036300001280AD000281CBF4FF0FF3080BD00F0E9
:103640000BF804E000F058F801E000F0BDF880F05D
:103650000100404280BD0000F0B581B041F2682613
:10366000C2F2000671780024092942D87588DFE883
:1036700001F02C05400540353C401117012D05D1C6
:103680000A20032908BF0920FFF75AFC00203061F7
:1036900001242EE006F21D100124B060346128E000
:1036A000E8B2FFF787FE00274FF0000458B101246D
:1036B0000720002186F81D5186F81C41FFF79EF86F
:1036C0000720FFF73DFC376113E0B068002101706F
:1036D000B06801244170022030610AE0E8B2FFF7CF
:1036E00059FE00203061012403E02846FFF754FC16
:1036F0000446204601B0F0BD70B541F26825C2F223
:1037000000052C79FEF714FE70B1687803280DD0FF
:10371000012813D040B9A86800210170A868417041
:1037200002202861012070BD002070BD688800263D
:1037300000284FF000001BD02E6170BD688810B1CA
:103740000020286170BD44F29F20C0F6000000F008
:10375000A9FA17A0214600F0A5FA44F2BB20C0F652
:10376000000000F09FFA2046FFF7D8F8012070BD56
:1037700044F29F20C0F6000000F094FA07A0214612
:1037800000F090FA44F2BB20C0F6000000F08AFA84
:103790002046FFF7CDF901202E6170BD65703A25F6
:1037A000303278207365742068616C740D0A0000F3
:1037B00065703A2530327820636C656172206861EB
:1037C0006C740D0A0000000070B541F26824C2F26A
:1037D00000046688A588FEF7ABFD002841D061781B
:1037E00000200B2988BF70BDDFE801F0064A4A4A75
:1037F0004A4A0D4A4A4A3D43A06800210170A06828
:10380000417002203AE026F0FF00B0F5085F28D1B1
:1038100044F21D30C0F6000000F044FA1CA000F095
:1038200093FC44F2BB20C0F6000000F03BFA42F6E5
:10383000AC40C2F2000006681EB3EDB2307FA84271
:1038400008D1A068D6E90512FCF7FDFCB06920613B
:10385000012000E00020A8B93668002EEED100203B
:1038600010E0002070BDA0680021017001202061DF
:1038700070BDE8B2F1B2FFF709FE0020206101201F
:1038800070BD0020002814BF0120002070BD00BFC3
:103890007265616420686964207265706F7274205B
:1038A00064657363726970746F720D00F0B581B0F6
:1038B00042F65815C2F20005286818B341F2682490
:1038C000C2F2000461784079814243D1A088052882
:1038D0006FD004285AD144F21D30C0F6000000F029
:1038E000E1F948A000F030FC44F2BB20C0F6000033
:1038F00000F0D8F92D68A068A968AA89FCF7A3FC94
:10390000A8896CE042F65C15C2F20005286808B38D
:1039100041F26824C2F2000461788079814219D1B1
:10392000A088072832D144F21D30C0F6000000F014
:10393000B9F93EA000F008FC44F2BB20C0F600003C
:1039400000F0B0F92D68A0682968AA88FCF77BFC14
:10395000A88844E042F6AC40C2F20000076827B3F2
:1039600041F26824C2F2000404F1080504F11006D3
:1039700002E000BF3F68C7B1FB68002BFAD02046C9
:103980002946324698470028F4D129E044F29F2086
:10399000C0F6000000F086F91EA000F0D5FB44F24E
:1039A000BB20C0F6000000F07DF94FF0FF3001B001
:1039B000F0BD44F21D30C0F6000000F073F90AA01B
:1039C00000F0C2FB44F2BB20C0F6000000F06AF930
:1039D0002D68A0682969AA8AFCF735FCA88A2061AD
:1039E000002001B0F0BD00BF67657420436F6D70AB
:1039F00061742069642070726F7065727469657398
:103A00000D00000067657420436F6D70617420497C
:103A1000440D0000756E6B6E6F776E2076656E6478
:103A20006F7220636F64650D0000000047455420ED
:103A30004D53204F5320322E3020446573637269FA
:103A400070746F720D00000042F6B440C2F20000C4
:103A5000006830B142F6D040C2F20000012101609E
:103A6000704742F6D040C2F200000021016042F6E9
:103A7000B840C2F200000068B0FA80F0C0B2C0F1F5
:103A80001F0042F66C1100EB8000C2F2000101EB56
:103A9000800050F8041F4968021D9142016001D165
:103AA00049680160006842F66011C068C2F2000116
:103AB0000860704780B54FF0500080F31188BFF365
:103AC0006F8FBFF34F8F00F021F830B14EF60450E6
:103AD000CEF200004FF080510160002080F3118889
:103AE00080BD000042F6C840C2F200000068002815
:103AF00004BF0120704742F6B440C2F200000068E3
:103B0000B0FA80F040094000704700002DE9F04F06
:103B100081B042F6B440C2F20000006850B142F6F3
:103B2000C440C2F20000016801310160002001B010
:103B3000BDE8F08F42F6CC40C2F20000016811F1FE
:103B40000108C0F8008014D342F6641042F66812EF
:103B5000C2F20000C2F2000201681368036042F67C
:103B6000C0401160C2F20000016801310160FEF73F
:103B7000B9FC42F6BC41C2F20001086842F66C1E74
:103B80008045C2F2000E01D2002072E042F6641BB2
:103B9000C2F2000BDBF80000006800285ED042F69D
:103BA000B84A4FF00109C2F2000A00202BE000BF22
:103BB0000021B962296801392960F96ADAF8003010
:103BC00009FA01F63343CAF8003001EB81030EEB2A
:103BD000830675687E61AC68BD60FC60AC68AA60F5
:103BE00062605EF8232001324EF8232042F6601214
:103BF000C2F200021268D26ADBF800309142196802
:103C000028BF484671B3DBF80020D268D7683A462F
:103C100052F8045FA84527D3D7E902637D69B360F2
:103C20006B68D7F80CC09342CCF8046001D1FB68F4
:103C30006B60002179612B68013B2B60BD6A002D10
:103C4000BBD0D7E9073607F118019E606E683C6A61
:103C50008E426360ACD1396A6960A9E74FF0FF35E5
:103C6000002005E04FF0FF3542F6BC41C2F20001F2
:103C70000D6042F66011C2F200010968C96A01EBE9
:103C800081015EF82110012942F6D041C2F2000103
:103C900088BF01200968002918BF012001B0BDE8D4
:103CA000F08F00000FB4054B10B503A9044A029829
:103CB00000F018F810BC5DF814FB00001123000898
:103CC0000000002002E008C8121F08C1002AFAD133
:103CD00070477047002001E001C1121F002AFBD18C
:103CE000704700002DE9FF4F8DB00F4605460026B6
:103CF00006E025280BD0DDE90F1290476D1C761CDD
:103D000028780028F5D111B03046BDE8F08F0024A6
:103D1000A246A1460122EC4900E0044315F8013F08
:103D2000203B02FA03F00842F7D128782A2810D065
:103D30006FF02F022878A0F13001092914D80AEB7E
:103D40008A0102EB410144F0020400EB010A6D1C00
:103D5000F0E701CF5FEA000A03D544F40054CAF14A
:103D6000000A44F002046D1C28782E2817D115F89B
:103D7000010F44F004042A280ED06FF02F02287897
:103D8000A0F1300109290AD809EB890102EB4101B0
:103D900000EB01096D1CF2E757F8049B6D1C2878B5
:103DA0006C280FD006DC4C2817D068280DD06A2864
:103DB00014D104E0742810D07A280FD10DE044F417
:103DC00000140AE044F4801401E044F440146978DB
:103DD000814202D104F580146D1C6D1C2A786E2A74
:103DE0001FD00CDC632A31D004DC002A8BD0582A87
:103DF00011D1A3E0642A68D0692A0CD165E0732A46
:103E00002ED004DC6F2A73D0702A04D19BE0752A6F
:103E10006FD0782A6ED01046DDE90F129047761CDD
:103E200050E1C4F30250022806D0032809D0042828
:103E300001CF09D0066045E101CFF117C0E900616B
:103E400040E101CF06803DE106703BE117F8040B2D
:103E50008DF8000000208DF80100EB46012003E002
:103E600057F804BB4FF0FF3061074FF0000102D458
:103E70000DE008F10101884649450FDA8045F8DB7D
:103E80001BF808100029F4D108E008F10101884668
:103E90008142FADB1BF808100029F6D1DDE90F2377
:103EA000AAEB08008146214600F036F9304400EBC9
:103EB000080604E0DDE90F121BF8010B9047B8F18A
:103EC0000108F7D221464846F7E00A21C4F302531D
:103ED0004FF0000B0891022B04D001CFC117032B28
:103EE00009D00AE0FF1D27F00707F7E8020108E004
:103EF00032E01FE020E000B2C117042B01D140B234
:103F0000C117031E71F1000307DA4FF0000CD0EB6C
:103F10000C006CEB01012D2302E0230504D52B23BB
:103F20008DF82430012303E0E30701D02023F7E7D5
:103F3000984658E00A2110E010210EE010204FF0C2
:103F4000000B08900CE010214FF0000B44F004042B
:103F50004FF00809089103E008214FF0000B089189
:103F6000C4F30253022B04D001CF0021032B06D04F
:103F700006E0FF1D27F00707F7E8020103E080B223
:103F8000042B00D1C0B24FF0000823072BD5702AB4
:103F900007D0DDF820C08CF0100C5CEA0B0C05D0CB
:103FA0000EE040238DF82430012308E050EA01039D
:103FB00006D030238DF824308DF825200223984632
:103FC000DDF820C08CF0080C5CEA0B0C0BD150EA39
:103FD000010301D1630706D530238DF824304FF05B
:103FE0000108A9F10109582A04D038A20B9208AAA5
:103FF0000A920BE03AA2F9E75B46089AFCF7F2F85E
:104000000B9B9B5C0A9A521E0A92137050EA0102A3
:10401000F2D10A98ADEB000000F1200B600702D549
:1040200024F4803401E04FF00109D94502DDA9EB09
:104030000B0000E0002000EB0B0141440890AAEBCC
:10404000010AE00306D4DDE90F232146504600F0C3
:1040500063F806444FF0000908E009A911F80900C7
:10406000DDE90F12904709F10109761CC145F4DB27
:10407000E0030CD5DDE90F232146504600F04CF853
:10408000064404E0DDE90F1230209047761C0899C1
:10409000481E08900029F5DC08E00A980A99007883
:1040A000491C0A91DDE90F129047761CBBF1000113
:1040B000ABF1010BF1DC21465046DDE90F2300F0A6
:1040C00019F806446D1C1BE6092801003031323313
:1040D0003435363738396162636465660000000044
:1040E000303132333435363738394142434445462E
:1040F000000000002DE9F041044600251E46174649
:10410000880404D405E039462020B0476D1C641EA5
:10411000F9D52846BDE8F0812DE9F0410446002597
:104120001E469046C80301D5302700E020278804AA
:1041300004D505E041463846B0476D1C641EF9D5EC
:104140002846BDE8F081000010B5044601E0FEF706
:10415000DFF814F8010B04490028F8D1BDE810403D
:104160000A20FEF7D5B800000000002000800202FF
:104170001F000000202020202020202020202020A0
:10418000202020202020202020202020202020202F
:1041900000260000000000000812000000000000DF
:1041A000000000000000000000000000700000009F
:1041B0000000000A000000000000000000000000F5
:1041C00000000000000001020304060708090000C7
:1041D00000000102030412010002EF020140FFFF90
:1041E000FFFF0001010203010902620003010080D8
:1041F00032080B0002020201000904000001020261
:10420000010205240010010524010001042402021A
:1042100005240600010705830308000A09040100BC
:10422000020A0000000705020240000007058102A3
:1042300040000009040200020806500007050502BC
:104240004000000705840240000004030904140331
:104250004300680065007200720079005500530049
:104260004200260343006800650072007200790076
:10427000550053004200200043002D004D00200057
:10428000440045004D004F0016033200300032005C
:104290003200310032003300340035003600001B9C
:1042A0005B33316D5B452F5553425D20001B5B3303
:1042B000336D5B572F5553425D20001B5B306D0003
:1042C00053657475703A20626D52657175657374CB
:1042D00054797065203078253032782C2062526510
:1042E0007175657374203078253032782C207756BC
:1042F000616C7565203078253034782C2077496ED4
:10430000646578203078253034782C20774C656EC1
:10431000677468203078253034780D0A001B5B33D1
:10432000326D5B492F5553425D2000006043000809
:1043300000000020A01400000C030008A84300089F
:10434000A0140020381C0000D43C0008000000002D
:10435000000000000000000000000000000000005D
:10436000614524F400814651270008024691270048
:10437000080142100BFF31323334353637383930CB
:1043800001FF01FF01FF01FF01FF01FF01FF01FF2D
:1043900001FF01FF01FF01FF01FF01FF01FF01FF1D
:0843A00001FF01FF01FF019F75
:04000005080001AD41
:00000001FF
