:020000040800F2
:10000000780D0120C1010008950E00088D0E000832
:10001000910E000881030008791600080000000016
:100020000000000000000000000000009114000823
:10003000850300080000000021140008B514000822
:10004000DB010008DB010008DB010008DB01000820
:10005000DB010008DB010008DB010008DB01000810
:10006000DB010008DB010008DB010008DB01000800
:10007000DB010008DB010008DB010008DB010008F0
:10008000DB010008DB010008DB010008DB010008E0
:10009000DB010008DB010008DB010008DB010008D0
:1000A000DB010008DB010008DB010008DB010008C0
:1000B000DB010008DB010008DB010008DB010008B0
:1000C000DB010008DB010008DB010008DB010008A0
:1000D000DB010008DB010008DB010008DB01000890
:1000E000DB010008DB010008DB010008DB01000880
:1000F000DB010008DB010008DB010008DB01000870
:10010000DB010008DB010008DB010008DB0100085F
:10011000DB010008DB010008DB010008DB0100084F
:10012000DB010008DB010008DB010008DB0100083F
:10013000DB010008DB010008DB010008DB0100082F
:10014000DB010008DB010008DB010008DB0100081F
:10015000DB010008DB010008DB010008DB0100080F
:10016000DB010008DB010008DB010008DB010008FF
:10017000DB010008990E0008DB0100080000000008
:10018000DB010008DB010008DB010008DB010008DF
:10019000DB010008DB010008DB010008DB010008CF
:1001A000DB010008DB010008DB010008DFF80CD0F0
:1001B00000F0B6F800480047591C0008780D0120EF
:1001C0000648804706480047FEE7FEE7FEE7FEE7F1
:1001D000FEE7FEE7FEE7FEE7FEE7FEE78115000823
:1001E000AD0100082DE9F05F0546002092469B46D0
:1001F00088460646814640241BE02846414647463D
:10020000224600F07CF853465A46C01A914110D35A
:1002100011461846224600F063F82D1A67EB0108D4
:100220004F4622460120002100F05AF817EB000942
:100230004E41201EA4F10104DFDC484631462A4627
:100240004346BDE8F09F40EA01039B0703D009E065
:1002500008C9121F08C0042AFAD203E011F8013BB2
:1002600000F8013B521EF9D27047D2B201E000F80B
:10027000012B491EFBD270470022F6E710B513464A
:100280000A4604461946FFF7F0FF204610BD10B598
:10029000044604E00B7800F8013B03B1491C521EF0
:1002A000F8D2204610BD10B5002200E0521C835C3D
:1002B0008C5CA34201D1002BF8D1D8B2E1B2401A34
:1002C00010BD30B505460020034600E05B1C93429C
:1002D00005D2EC5CC85C201A01D1002CF6D130BDEF
:1002E000202A04DB203A00FA02F1002070479140F6
:1002F000C2F1200320FA03F3194390407047202AEB
:1003000004DB203A21FA02F00021704721FA02F3BF
:10031000D040C2F1200291400843194670470000C6
:10032000064C074D06E0E06840F0010394E8070042
:1003300098471034AC42F6D3FFF73CFF349D0008D9
:10034000549D000830B58C1810F8012B12F00F03E3
:1003500001D110F8013B120906D110F8012B03E07E
:1003600010F8015B01F8015B5B1EF9D101E001F8B7
:10037000013B521EFBD1A142E6D3002030BD00005C
:10038000FEE70000704700002DE9F04F82B000F159
:100390003E4242F2004502F1FF77C4F202050A2212
:1003A0004FEAB726A84208BF0922092E38BF4FEAF4
:1003B000B7224FF0010E002600274FF000080092F0
:1003C00008E000BF023708F10108202F06F10406FB
:1003D00000F0B4800C680EFA08F914EA090FF1D0A5
:1003E000D1F804A00AF0030BABF10104012C19D8D9
:1003F0000322846802FA07FECA6824EA0E04BA409F
:10040000224382604268CAF3001522EA090205FA13
:1004100008F54FEA480C6FEA0E044FF0010E2A432C
:1004200042600BE00322BA40D443BBF1030FBC4649
:1004300004D1BC464FF0030B24E000BFC2688D68B6
:10044000224005FA0CF52A43BBF1020FC26019D114
:100450006FF0030202EA5802024406F01C030F2563
:10046000D2F820E005FA03FA0D692EEA0A0E05FA21
:1004700003F343EA0E031362D1F804A04FF0010E18
:100480000AF0030B02680BFA0CF322401A435FEAEE
:10049000CA03026096D5002243F644030192C4F2D7
:1004A00002031A6843F6004C42F480421A601A684C
:1004B000C4F2010C02F480420192019A28F0030276
:1004C0004FF6084A6244CFF6FF7A52F80A3006F037
:1004D0000C050F24AC40A343009C04FA05F52B4304
:1004E00042F80A30DCF800204B6842EA0905DC03D8
:1004F00058BF22EA0905CCF80050DCF804209C0320
:1005000042EA090558BF22EA0905CCF80450DCF894
:100510000820DC0242EA090543F60C4458BF22EAEF
:100520000905CCF80850C4F2010422689B0242EA93
:10053000090558BF22EA0905256043E702B0BDE876
:10054000F08F00004BF64440C2F200000068704794
:1005500040F210004BF64441C2F20000C2F200012A
:1005600000780A68104408607047000080B543F6C0
:100570000040C4F20200016841F4007101600168AA
:1005800041F480610160016841F4807101600320E1
:1005900000F088F8002000F005F800F02BF80020AB
:1005A00080BD0000B0B540F21002C2F2000240F27D
:1005B0000C011278C2F200014FF47A730968B3FBA0
:1005C000F2F20446B1FBF2F1084600F03BFB0F2CBF
:1005D0004FF001050CD858B94FF0FF3021460022EA
:1005E000002500F033F840F21400C2F2000004606D
:1005F0002846B0BD82B0002043F640010190C4F20D
:1006000002014A6842F480424A604A6802F4804229
:100610000192019A0090086840F0805008600868D4
:1006200000F080500090009802B07047002848BF4A
:10063000704700F01F01012202FA01F14EF2001290
:100640004009CEF2000242F82010704710B54EF675
:100650000C5CCEF2000CDCF80030C3F3022E8EF0FE
:100660000704042C28BF0424BEF103034FF0FF3E0F
:100670000EFA04F438BF0023A14399400EFA03F3A5
:100680009A4300F00F03043B1143634409010C3308
:1006900000F16042B0F1FF3FC8BF02F5644319703A
:1006A00010BD00004EF60C51CEF200010A684FF664
:1006B000FF031A4060F30A2242F0806040F0FD70B0
:1006C000086070472DE9F041002800F08B8043F668
:1006D0000808C4F202080446D8F8F8030D4600F0F2
:1006E0000F00884207D288F8F853D8F8F80300F0D2
:1006F0000F00A84276D12068810717D5410705D59C
:10070000D8F8001041F4E051C8F80010010705D5F1
:10071000D8F8001041F46041C8F80010D8F8001073
:10072000A26821F0F0011143C8F80010C0073FD1C2
:10073000D8F8F80300F00F00A84207D988F8F8535A
:10074000D8F8F80300F00F00A8424BD12068410709
:1007500007D5D8F80010E26821F4E0511143C8F839
:100760000010000708D5D8F80000216920F4604087
:1007700040EAC100C8F8000000F07CF8D8F800108A
:1007800049F2D822C1F30311C0F60002515C40F2D5
:100790000C0220FA01F140F21400C2F200000068DD
:1007A000C2F200021160FFF7FDFE0020BDE8F081FB
:1007B0006068811E022907D258F8081C89015CBFB5
:1007C0000120BDE8F08110E0012807D158F8081C8D
:1007D00089035CBF0120BDE8F08106E058F8081CE1
:1007E000890702D40120BDE8F081D8F8001021F07B
:1007F00003010843C8F80000FFF7A4FE064641F2D3
:10080000883700BFD8F80000616800F00C00B0EB3A
:10081000810F8DD0FFF796FE801BB842F2D90320DE
:10082000BDE8F08140F20C0043F60801C2F200007E
:10083000C4F202010068096849F2E822C1F382218A
:10084000C0F60002515CC8407047000040F20C0046
:1008500043F60801C2F20000C4F202010068096810
:1008600049F2E822C1F34231C0F60002515CC840AF
:100870007047000010B543F60404C4F20204606837
:1008800000F00C0008280AD0042819BF42F20040EA
:10089000C0F2F40047F64000C0F27D1010BD2068A1
:1008A00021682368490247F64001C0F27D1100F03B
:1008B0003F02C3F388105CBF42F20041C0F2F40172
:1008C000A1FB00010023FFF78DFC21680222C1F388
:1008D000014102EB4101B0FBF1F010BD2DE9F04107
:1008E00082B0002868D00446007843F60006C007AE
:1008F000C4F202060BD0B06800F00C00042840F0EF
:10090000A0803068800302D56068002854D0207829
:1009100080071AD5B06810F00C0F09D0B06800F04D
:100920000C00082840F0B4807068400200F1B080EC
:100930003068800702D5E06801283DD13068216920
:1009400020F0F80040EAC10030602078000737D47A
:10095000207840074BD4A56955B3B06800F00C006F
:10096000082840F0DA80012D26D07068E16900F493
:1009700080028A4220D1216A00F03F028A421BD1C4
:1009800047F6C071626A0140B1EB821F14D1A16ABF
:100990004FF6FF73C903994300F44032A1F580314B
:1009A0008A4209D1E16A00F07060B0EB016F03D1B7
:1009B000002002B0BDE8F081012002B0BDE8F08166
:1009C0006069002840F20000C4F2472000F09180E6
:1009D0000121C0F8801EFFF7B5FD0546706F800746
:1009E000B6D4FFF7AFFD401B0228F7D991E0306C79
:1009F0004FF00008C0000CD4CDF80480306C4FF0EC
:100A0000010840F080503064306C00F0805001905C
:100A1000019847F20007C4F200073868C0054DD4BA
:100A2000386840F480703860FFF78CFD054600BFE1
:100A30003868C00542D4FFF785FD401B0228F7D96E
:100A400067E0B06800F00C00082803D1706840022D
:100A50003FF557AF6568B5F5803F07D03068B5F50D
:100A6000A02F40F0B38040F480203060306840F424
:100A700080303060FFF766FD054600BF30688003B8
:100A80003FF545AFFFF75EFD401B6428F6D940E017
:100A9000E068002864D00020C4F2472001210160F2
:100AA000FFF750FD054600BF306880073FF546AFB1
:100AB000FFF748FD401B0228F6D92AE0A568012D62
:100AC00005D0306F052D5FD140F004003067306FE6
:100AD00040F001003067FFF735FD054641F28837E9
:100AE000306F800769D4FFF72DFD401BB842F7D95E
:100AF0000FE00021C0F8801EFFF724FD054600BF6F
:100B0000706F80077FF524AFFFF71CFD401B0228A4
:100B1000F6D9032002B0BDE8F0810027C4F24727D0
:100B200000203866FFF70EFD022D05460CD100BFF0
:100B30003068800164D5FFF705FD401B02284FF0A7
:100B40000300F5D935E700BF306880017FF530AF8D
:100B5000FFF7F8FC401B02284FF00300F4D928E708
:100B60000020C4F2472000210160FFF7EBFC05469E
:100B7000306880077FF5E9AEFFF7E4FC401B0228F0
:100B80004FF00300F4D914E720F001003067306F14
:100B900020F004003067FFF7D5FC002D05469DD1FD
:100BA00041F28837306F800707D5FFF7CBFC401B39
:100BB000B8424FF00300F5D9FBE6B8F1000F3FF45F
:100BC000CAAE306C20F080503064C4E620F480302F
:100BD0003060306820F480203060FFF7B3FC002DD7
:100BE00005467FF44BAF07E0FFF7ACFC401B6428E1
:100BF0004FF003003FF6DDAE30688003F4D486E6A4
:100C000004F11C052FCD084340EA8210D9034FF6AA
:100C1000FF729143A1F5803140EA0560084370609E
:100C200001203866FFF78EFC044600BF3068800163
:100C30003FF5BEAEFFF786FC001B02284FF0030015
:100C4000F4D9B6E6411E0020B0EB116F1CBF0120A5
:100C500070474EF21002CEF2000251604EF6235160
:100C6000CEF20001F0230B700721906011607047F5
:100C7000002804BF0120704710B5044690F83D00DD
:100C800028B9002084F83C00204600F021F82420F8
:100C900084F83D002068C16821F40051C1602046FD
:100CA00000F07CFC2068016921F4904101614169F8
:100CB00021F02A014161C16841F40051C160002066
:100CC0002021206484F83D1084F83E1010BD0000FF
:100CD00080B586B000220592CDE9032241F20001E1
:100CE0000068C4F2010188420292019201D006B06C
:100CF00080BD43F630000092C4F20200436943F025
:100D000010034361436903F010030093009B0092BA
:100D1000036843F001030360006800F001000090E5
:100D200000984FF4C06001900220CDE90202032038
:100D300004900720059001F5704001A9FFF724FBFE
:100D400006B080BD2DE9F04F81B0044690F83D001B
:100D500020280DD18A4600294FF0010000F088803C
:100D60001646002A00F0848094F83C00012803D144
:100D7000022001B0BDE8F08F012084F83C0000277C
:100D800021201D46276484F83D00FFF7DBFBA68485
:100D9000E684A1688046B1F5805F07D1206900280C
:100DA0001CBF5046BA46D146824601E04FF00009CA
:100DB00084F83C70E18CD4F800B00029DBF8000026
:100DC0003ED06F1C00060FD45E4602E0306800067D
:100DD0000BD4002FFAD0F5B1FFF7B4FBA0EB08005D
:100DE0002668A842F2D917E05E46BAF1000F02D099
:100DF0001AF8010B05E039F8020B4FF0000A6FF307
:100E00005F207060E08CB3460138E084E18C30688C
:100E10000029D7D115E05E46F06820F4D070F0606C
:100E2000706920F001007061202084F83D0084F892
:100E30003E00002084F83C00032001B0BDE8F08FA4
:100E40005E46400610D46F1C304602E00168490639
:100E50000AD4002FFAD075B1FFF774FBA0EB08019C
:100E60002068A942F2D907E0202084F83D00002044
:100E700001B0BDE8F08F3046C16821F4D071C16087
:100E8000416921F001014161CEE70000FEE7000069
:100E9000FEE70000FEE700002DE9F04F83B040F2CE
:100EA000004A4FF6144B4FF61841C4F2040ACFF62D
:100EB000FF7BCFF6FF715AF80B005AF8011011EAC8
:100EC00000095AF80B0018BF10F0010002D103B05E
:100ED000BDE8F08F40F240485FEAC910C4F2040850
:100EE00007D45FEA890078D45FEA891000F19C801A
:100EF000EDE7D8F800000290D8F8000001900198C2
:100F000020F02E000190029880070FD50298C007AC
:100F100002D0012005F096FF0198012140F0020067
:100F2000019041F67870C2F200000170029800074B
:100F30003FD50198012140F00800019041F67870FA
:100F4000C2F2000041700298400732D5029800F4C6
:100F5000C020B0F5802F14D141F27070CAF804009F
:100F6000DAF8000000F00300022822D0DAF80000CE
:100F70000090009820F003000090009840F00200DC
:100F800013E04BF68030CAF80400DAF8000000F0F5
:100F9000030001280DD0DAF800000090009820F03E
:100FA00003000090009840F0010000900098CAF8FB
:100FB00000000298800609D50198012140F0200028
:100FC000019041F67870C2F2000081700198C8F873
:100FD00000005FEA89007FF587AF41F67876C2F2BC
:100FE0000006012000276FF06D050024307003E03B
:100FF0003034B4F5107F0CD03019C16A90F820203D
:10100000002AF5D080F82070406ACD6101F05EFDC5
:10101000EEE7012005F016FF4FF000504AF80B00F4
:101020005FEA89107FF553AFDAF8140058F8281CEE
:1010300008F1C00B084086B200254FF0000A4FF0BF
:10104000000817E0386840F0020038605FFA88F066
:1010500000F026FD6FF00400C9F81C000420206099
:101060000AF1300A08F10108BAF5107F0BF1200BE4
:1010700000F0C18126FA08F0C007F1D05C465F4657
:10108000DBF8003054F8080F57F80C1F1B0401EA76
:10109000000141F67870C2F2000000EB0A02D2F8BB
:1010A0002C9002F1040001F0010339D4002B40F030
:1010B00087804B07C6D40B0700F19D80CB0600F15B
:1010C000B6808B0600F1C1804B0600F1C0800B0694
:1010D00000F1CB80CB0500F1D6808B0500F1E280DA
:1010E0004B0500F1EE808907BAD5396821F002017D
:1010F0003960D9F81C1011F10B0300F002810029AE
:1011000040F04081DBF8101057896FF3DF41B2F8EF
:1011100010C0B94240F00581D76901FB0C7106E1AE
:10112000002B5AD14B078DD40B0772D4CB067ED43B
:101130008B0600F18A804B0600F189800B0600F1D6
:101140009480CB0500F19F808B0500F1AB804B05AF
:1011500000F1C68089077FF583AF396821F002016D
:101160003960D9F81C1011F10B0300F0CA80002976
:1011700040F00881DBF81010D2F814E0D2F81CC05F
:10118000178ADBF810306FF3DF41AEEB0101A7EBFC
:10119000D3436144DB07D16105D0137BB3FA83F3FA
:1011A0005B095B0013739379012B00F0D880002B4F
:1011B00040F0E680937B012B40F0FB800421CAE0E5
:1011C000012020605FFA88F000F06AFCC9F81C502A
:1011D000386840F00200386042E7C9F81C503868AF
:1011E00040F0020038605FFA88F000F059FC0120FE
:1011F0002060102033E7386840F0020038605FFA62
:1012000088F000F04DFC4FF0FF30C9F81C000820BA
:1012100025E7386840F0020038605FFA88F000F097
:101220003FFC4FF0FF30C9F81C000820E0E73868A9
:1012300040F0020038605FFA88F000F031FC6FF097
:101240000A00C9F81C00102009E7202007E73868C9
:1012500040F0020038605FFA88F000F021FC6FF087
:101260000A00C9F81C004020F9E6386840F0020086
:1012700038605FFA88F000F013FC6FF00400C9F8E2
:101280001C008020EBE6386840F0020038605FFA0E
:1012900088F000F005FC6FF00400C9F81C004FF462
:1012A0008070DCE6386840F0020038605FFA88F051
:1012B00000F0F6FB6FF01F00C9F81C004FF400703F
:1012C000CDE6386840F0020038605FFA88F000F040
:1012D000E7FB6FF00400C9F81C004FF4806087E75B
:1012E000386840F0020038605FFA88F000F0D8FB00
:1012F0006FF00400C9F81C00102020604FF48060DB
:10130000ADE691798A1E022A06D2D9F80810D9F8DA
:101310000C2000F0B3F96CE000296AD1D9F8041070
:1013200063E0ACF1010303FB0711D36919445FEAE1
:10133000CC73D16105D0137BB3FA83F35B095B00F7
:1013400013739379012B0AD0D3B9937BABB3937BFF
:10135000022B3ED103219173D9F8041045E0136BA1
:1013600009EB0317B963FD63D9F82070591CB94222
:10137000116307D009EB0111303100F0FDFB38E0BB
:10138000C9F81410D56292F8200020B182F82050DC
:10139000506A01F09BFBD9F8282052B3D9F81C10F1
:1013A000D9F82C00B1F1FF3FC8BFD9F8141090470D
:1013B0001FE0907B03280FD01BE0D9F80410CB88E6
:1013C0008BB191F90030002B4FF0020348BF01238D
:1013D0000AE0907B04280CD100209073C9F8141007
:1013E0000025D062CFE703239373D9F8082000F0DB
:1013F0009BF9022033E640F200414FF614424FF0D1
:101400000070C4F20401CFF6FF72885003B0BDE84B
:10141000F08F00000000000000000000000000004D
:10142000EFF30980BFF36F8F154B1A681EF0100F92
:1014300008BF20ED108A20E9F04F10602DE9090067
:101440004FF0500080F31188BFF34F8FBFF36F8FC1
:1014500006F0E8FB4FF0000080F31188BDE80900BA
:1014600019680868B0E8F04F1EF0100F08BFB0EC24
:10147000108A80F30988BFF36F8F704700BF00BFE9
:1014800054220020000000000000000000000000C6
:10149000074B19680868B0E8F04F80F30988BFF37C
:1014A0006F8F4FF0000080F31188704700BF00BFBE
:1014B0005422002080B507F04BF9012818BF06F030
:1014C0005DFCBDE88040FFF743B80000B0B592B0C6
:1014D000002443F64000CDE90A44CDE908440594D0
:1014E000CDE90344CDE901440094C4F2020001684F
:1014F000022541F080510160006800F080500090AA
:10150000009847F200000094C4F20000016841F422
:1015100040410160006800F44040009000980120C4
:1015200006904FF4803007904FF480000D90192002
:101530000E904FF4A8700C95CDE90F05072011907F
:1015400006A8FFF7CBF920B1EFF3108072B600BF09
:10155000FEE70F20CDE901054FF4A05004904FF4B1
:101560008050059001A805210394FFF7ABF820B146
:10157000EFF3108072B600BFFEE712B0B0BD0000FE
:101580004EF68850CEF20000016841F4700101600F
:101590004FF0006140F8801C7047000010B5044611
:1015A0000068D4E902C22369016921F44051114362
:1015B0000161626943EA0C01E3691143C26819439E
:1015C00049F20C639A431143C1604169A26921F455
:1015D000407141F20043114340F48062C4F20103C0
:1015E0009A42416102D1FFF731F901E0FFF71AF9A0
:1015F000E16963681922B1F5004FA0FB02011CD11B
:101600005A00DB0FFEF7EEFD48F21F51C5F2EB1159
:10161000A0FB01235A096FF0630302FB030032238E
:1016200003EBC000A0FB01014FF4F87000EA1110B9
:1016300000EB0210C1F342111AE09A009B0FFEF773
:10164000D1FD48F21F51C5F2EB11A0FB01235A094D
:101650006FF0630302FB0300322303EB0010A0FBD7
:101660000101F02000EA511000EB0210C1F3431118
:1016700022680843906010BDFEE7000010B581B0FD
:10168000B0F806E090F901C002EB0E03013BB3FB9A
:10169000FEF39CB2B4F5807F88BF4FF48073002ABC
:1016A00008BF01239CB2BCF1000F48BF04FB0EF23F
:1016B000DBB290F808E002618381447AD8046EF3CB
:1016C0005E7040F2084E6FF3DF42C4F2040E8318DE
:1016D0000EF1F802600102EB441423616161DEF84F
:1016E00000101358BCF1FF3F23F0005313504FF08C
:1016F0000053145823EA417141EA04011150009942
:10170000CCBF21F4004141F4004100918158009187
:10171000009921F080410091009941F00041009131
:101720000099815001B010BD2DE9F04181B0837A5C
:10173000002B55D0837A012B40F09780CB88C1884D
:1017400040F2180E5F18013FB7FBF1F7C4F2040E28
:10175000BEB2B6F5807F88BF4FF48077002B08BFFC
:101760000127BBB2467A4B435FFA87FC0361A0F8BE
:101770000CC0047805794EEA46104FF0FF37C0F8E8
:10178000F07440F29D57C0F8F47406F00F064FF065
:101790000108DEF8007408FA06F63E43CEF800644D
:1017A000DEF800606FF3DF2146F0007664F39C51B1
:1017B0004FF40044CEF80060012D08BF4FF42034F0
:1017C00021446FF3DF43C0F8E81443EACC4101F150
:1017D0008041C0F8F814C0F8FC24DEF8F013DCE017
:1017E000C2881825D31DB3FBF2FE08231FFA8EFC16
:1017F0000361BCF5807F88BF4FF0000E447A5FFA2A
:101800008EF3C4F20405838190F800C090F804E0E0
:1018100045EA44104FF0FF36C0F8F06440F29D46B0
:10182000C0F8F46404F00F040126D5F8007406FA39
:1018300004F43C43C5F800442C686FF3DF2244F005
:1018400000746CF39C522C60BEF1010F08BF02F5CE
:101850000032C0F8E8240822C6F2000242EAC3427D
:10186000C0F8F824C0F8FC1447E0837A022B59D161
:10187000C988C3880161CF18013FB7FBF3F718256A
:10188000BEB2B6F5807F88BF0027002908BF0127B8
:10189000447AFFB2C4F20405878190F800E090F822
:1018A00004C045EA44104FF0FF36C0F8F06440F23F
:1018B0009D46C0F8F46404F00F044FF00108D5F819
:1018C000006408FA04F43443C5F800442C686FF34C
:1018D000DF2341EAC74144F000746EF39C5301F1E9
:1018E00080412C60BCF1010F08BF03F50033C0F844
:1018F000E834C0F8F814C0F8FC24D5F8F013D0F898
:10190000E82422F00052C0F8E8244FF00052D0F84A
:10191000E83422EA41711943C0F8E814009921F42F
:1019200000414CE0817A03295BD1C188457A1822B5
:101930000123C4F20402016183810778067942EA37
:1019400045104FF0FF34C0F8F04440F29D54C0F809
:10195000F44405F00F05D2F80044AB402343C2F82D
:1019600000341368012E43F00073136041F080438C
:101970006FF3DF2167F39C514FF4004708BF4FF42A
:1019800020373944C0F8E81443F40021C0F8F814B3
:101990000021C0F8FC14D2F8F013D0F8E82422F0AB
:1019A0000052C0F8E8244FF00052D0F8E83422EAA0
:1019B00041711943C0F8E814009941F400410091C5
:1019C000D0F8E8140091009921F08041009100992D
:1019D00041F0004100910099C0F8E81401B0BDE861
:1019E000F081817A042957D1457A18244FF0000CF0
:1019F0000123C4F20404C288C0F810C083810778B0
:101A0000067944EA45104FF0FF31C0F8F01440F277
:101A10009D41C0F8F41405F00F01D4F8005403FA06
:101A200001F12943C4F8001421686FF3DF2241F06B
:101A300000712160002167F39C52C4F20801012E5D
:101A400008BF02F50032C0F8E824C0F8F814C0F866
:101A5000FCC4D4F8F013D0F8E82422F00052C0F807
:101A6000E8244FF00052D0F8E83422EA41711943DB
:101A7000C0F8E814009921F400410091D0F8E8146E
:101A80000091009921F080410091009941F00041BE
:101A900000910099C0F8E81401B0BDE8F0810000A1
:101AA00080B540F2080CC4F2040C40010CF59F61B3
:101AB00051F800E00B58DCF80020002B02D412F0A3
:101AC000200258D142585FEA4E3342F080424250E1
:101AD00027D4DCF8002092064DD4DCF8243042589C
:101AE00013F47F0F23D122F000420A500A5842F02B
:101AF00000420A500A5822F400420A504FF47B7206
:101B0000043A38D00B58002B35D50B58B3F1FF3FB2
:101B100031DC0B58B3F1FF3F2DDC0B58002BEFD419
:101B200029E0DCF80834425813F47F0F03D042F068
:101B300000420A5080BD22F000420A500A5842F08A
:101B400000420A500A5822F400420A504FF47B72B5
:101B5000043A10D00B58002B0DD50B58B3F1FF3FB2
:101B600009DC0B58B3F1FF3F05DC0B58002B58BFC5
:101B700080BD043AEED180BD10B581B04A68C388FB
:101B8000D1F800C0D1180139B1FBF3F190F901E0AF
:101B90008CB2B4F5807F88BF4FF48071002A08BFF3
:101BA00001218CB2BEF1000F48BF04FB03F240F2EA
:101BB00008440261C9B2437A6FF3DF42C4F20404FD
:101BC000818142EAC14104F1F802580102EB43135A
:101BD0001961C3F814C021681358BEF1FF3F23F008
:101BE000005313504FF00053145823EA417141EA57
:101BF00004011150009BCCBF23F4004143F4004189
:101C0000009181580091009921F080410091009944
:101C100041F0004100910099815001B010BD0000D9
:101C200080B582B0019042F20020C2F2000001A90A
:101C300001224FF47A73FFF785F8019802B080BD56
:101C40000129B8BF7047014642F24820C2F20000A5
:101C5000006800F00BBF000084B0FEF787FCFFF7C0
:101C600035FC002143F630000391C4F20200026803
:101C70004FF4E13342F08002026002684FF00C0C36
:101C800002F080020392039A0291026842F002027B
:101C90000260026802F002020292029A0191026856
:101CA00042F001020260006841F2000200F001000F
:101CB0000190019842F20020C2F20000C4F2010239
:101CC000C0E90023C0E90211C0E9041CC0E9061103
:101CD000FEF7CEFF18B1EFF3108072B6FEE705A055
:101CE00007F0E8FA03F0A6FF01F08EFF05F050FFC1
:101CF000FEE700BF53746172742075736220686FD1
:101D00007374207461736B2E2E2E0D00F0B581B0AC
:101D10000D464BF6685142F25426C2F20001C2F25F
:101D200000060F6831680446081D05F071FC10B10B
:101D3000601C0FD027E030684BF65842C06AC2F2F0
:101D400000020121136801FA00F023EA000010608C
:101D5000601C18D1BDB14BF64050C2F20000416882
:101D6000326891608A683368DA6032688B6804325E
:101D70005A60326804328A60316848610168013112
:101D8000016001B0F0BD3068E41944600BD342F249
:101D90006420C2F2000000683168043101B0BDE87F
:101DA000F04005F057BC42F25C20C2F2000000682F
:101DB0003168043105F04EFC4BF6BC40C2F2000025
:101DC00001688C4238BF046001B0F0BD70B505F009
:101DD0007BFC4BF66C56C2F20006306818B1BDE8C9
:101DE000704005F081BC4BF65C44C2F20004204612
:101DF00005F020FC4BF67045C2F20005284605F0C0
:101E000019FC42F25820C2F20000046042F268203D
:101E1000C2F2000005600A201021002205F0D8FF60
:101E200000283060DBD003A105F0F6FCBDE870406F
:101E300005F05ABC546D7251000000004BF64C4541
:101E400042F26C2A4EF604584BF654574BF648466D
:101E5000C2F20005C2F2000ACEF200084FF080592B
:101E6000C2F20007C2F2000615E000BF05F02CFC2C
:101E7000F868C468201D05F0CBFB3068013830607D
:101E800028680138286005F02FFC206B05F03AFC2B
:101E9000204605F037FC28680028E7D1DAF8000072
:101EA0000228F8D3C8F80090BFF34F8FBFF36F8FAD
:101EB000F1E7000008480068006880F308884FF0E8
:101EC000000080F3148862B661B6BFF34F8FBFF392
:101ED0006F8F00DF00BF00BF08ED00E02DE9F04F7D
:101EE00081B0814606F048FC42F25022C2F2000264
:101EF00011688346884245D242F25824C2F2000457
:101F0000206842F2682A0168C2F2000AA9B9DAF828
:101F1000001042F25022CAF800000120C2F2000272
:101F2000216030E000F0FE0086F82400316A30467F
:101F30008847206801680029E9D0C068C668D0F8E1
:101F40000080371D384605F063FB96F824004107F2
:101F5000E8D5B0696FEA080100EB080588427560B2
:101F6000366109D8316A30468847B069E94305448B
:101F7000884275603661F5D9DAF80000394605F017
:101F800069FBD3E70020C9F800005846C2F800B04A
:101F900001B0BDE8F08F000081B0002000904FF04C
:101FA000500080F31188BFF36F8FBFF34F8F00BFD6
:101FB000009830B9009820B9009810B9009800280E
:101FC000F6D001B07047000086B042F2582A42F2C3
:101FD00068244BF66C5BC2F2000A0DF10809C2F2EC
:101FE0000004C2F2000B0DF1040800BFDAF8000093
:101FF0005746066826B1C068D0F800A002E000BFCE
:102000004FF0000A05F006FE4846FFF767FF029909
:1020100021B106F09FFDBA4657E000BF054656B312
:10202000AA4528D806F096FD3868C068C668301DF5
:10203000009005F0EDFA96F8240041070CD400F06A
:10204000FE0086F824003CE0A5EB0A01814230D373
:10205000316A30468847A246B069366100EB0A040F
:10206000AC427460F0D9554501D25445F0D238687D
:102070000099BA46BAE00EB1002204E02068006878
:10208000B0FA80F04209DBF80000AAEB050105F088
:1020900069FC06F05FFDBA46B8B94EF60450CEF2C0
:1020A00000004FF080510160BFF34F8FBFF36F8F7F
:1020B0000BE042F26824C2F200042068009905F0A7
:1020C000C9FABA46316A30468847DBF8000049460B
:1020D000002205F0F7FF00283FF488AF0298B0F126
:1020E000FF3F06DCDDE903200599904702980028B0
:1020F000EBD4049E706910B1301D05F089FA40469A
:10210000FFF7ECFE029901390829DED80746DFE81F
:1021100001F005051B223E05051B220096F8241040
:10212000039AB06941F0010386F8243083183546DC
:1021300045F8043FBB42366121D9974201D2934210
:1021400034D2DAF800001EE096F8240000F0FE0019
:1021500086F82400B9E796F82400366140F00101C2
:10216000039886F82410C219314641F8042FBA4268
:10217000B06114D9DAF8000005F06CFAA5E7BA1AD4
:10218000824213D22068294605F064FA9DE796F84A
:1021900024008107DAD4304605F0B4FA95E7002828
:1021A0003FF493AF206805F055FA8EE74A0705D44F
:1021B00001F0FE0086F8240084E700BF0399014483
:1021C00008E000BF791A814218D3316A3046884747
:1021D000B06921460C18BC4274603661F2D98F4256
:1021E00001D28C42F1D2DAF80000294605F032FA29
:1021F00042F26824C2F2000464E700BF42F268249D
:10220000C2F200042068294605F024FA5AE70000CB
:102210002DE9F04F81B0044605F056FA94F9455087
:10222000012D50DB04F12409E84608E00026002EC9
:1022300018BF05F01FFC68B2013D012843DDA76C03
:10224000C7B10094B86BF96B8842EFD297F845B0EC
:10225000D7F838A03A6CAAB178684146FDF7F3FF89
:10226000396CD7E9010208447860904224BF38688D
:10227000786009E0D9F8000028B3484606F0F8FB7A
:1022800090B9D8E73868B8B100260AF10100BBF16F
:10229000FF0FB8630BD157F8240F0028C7D038467A
:1022A00006F0E6FB0028C2D005F0E4FBC3E70BF123
:1022B000010087F84500BAE7B86806F031FB06462A
:1022C0000020B860E1E7FF2684F8456005F00CFACD
:1022D00005F0FAF994F94470012F0EDB04F11005B2
:1022E000286850B1284606F0C3FB002818BF05F047
:1022F000C1FB78B2013F0128F2DC84F8446001B0F0
:10230000BDE8F04F05F0F0B92DE9F04381B0044687
:1023100005F080FC42F26021C2F2000108684BF631
:102320008449C2F2000930B199F80000002818BFB2
:102330004FF0004033E042F63C40C2F20000C31DC3
:1023400023F0070310F00702A0EB030718BF18469D
:102350004BF63853C2F200030026C3E900064FF4DF
:102360001043002A18BF07F51043C218083A22F09C
:1023700007020A60C2E900660B68121AC0E900325F
:102380004BF6B840C2F2000002604BF6B040C2F219
:1023900000000260012089F800004FF00040002C8E
:1023A0004FF0000500F0B880204040F0B58014F1F7
:1023B000090F4FF0000500F2AF8004F1080020F093
:1023C000070208324BF6B04C824298BF2A46C2F24E
:1023D000000C430708BF0246DCF800E0501E7045C1
:1023E00080F09A804BF63850C2F200000468A04694
:1023F00058F8045F95422DD22668C6B1756895429B
:102400001AD23368C3B15D6895421AD21F68C7B14A
:102410007D6895421AD23C68C4B16568954202D283
:102420002668002EEAD104F10408384612E04BF683
:102430003850C2F200000DE006F104082046344690
:1024400008E003F1040830461C4603E007F10408E5
:1024500018463C460E68B4421CD001682768AB1A87
:10246000112B076037D3A5186B60C8F800204BF616
:102470003852C2F2000200BF1068A8420CD20268B3
:10248000AA420CD21068A84206D202680746AA42A5
:10249000F2D305E000253FE01746024600E007467C
:1024A00078683B18AB4201D0686803E06B683D4632
:1024B000184478602B18934201D02A6008E0B24299
:1024C00005D0D2E900231844C5E9002000E02E60C1
:1024D000AF4218BF3D6001F108054BF6B841D8F88E
:1024E0000000C2F200010B68AEEB00029A42CCF889
:1024F000002038BF0A6099F8001000294BF6C4414B
:10250000C2F2000118BF40F000400A68C8F800009D
:1025100000202060501C086006F01CFB284601B01B
:10252000BDE8F08342F25420C2F20000016819B104
:1025300001688A6C01328A6400687047034641F67C
:102540009970C0F600004FF0807C21F0010103E992
:1025500003106FF0020043F8240CA3F1440043F889
:10256000202C7047F0B581B041F67874C2F20004B7
:10257000102620464FF41171C4F20406FDF77CFECC
:102580000020002700F09EFA6062002000F09AFA16
:102590006065002000F096FAC4F88400002000F086
:1025A00091FAC4F8B400002000F08CFAC4F8E400FA
:1025B000002000F087FAC4F81401002000F082FA2D
:1025C000C4F84401002000F07DFAC4F87401002032
:1025D00000F078FAC4F8A401002000F073FAC4F8FF
:1025E000D401002000F06EFAC4F80402002000F0CC
:1025F00069FAC4F8340200F0E9F949F26A65C0F6F4
:102600000005284606F082FBCCA006F053FE49F2F6
:102610007864C0F60004204606F078FB284606F0F1
:1026200075FBF16ACEA006F071FB204606F06EFB4A
:10263000284606F06BFB316BCCA006F067FB20460A
:1026400006F064FB284606F061FB716BCBA006F038
:102650005DFB204606F05AFB284606F057FBB16B9F
:10266000CAA006F053FB204606F050FB284606F0B1
:102670004DFBF16BC9A006F049FB204606F046FB76
:10268000284606F043FB316CC8A006F03FFB20460D
:1026900006F03CFBB06B10F0180F00F03E8156F8CE
:1026A000080C40F6405420F0010046F8080C56F89B
:1026B000040CC0F2030440F0400046F8040C0097FC
:1026C00000980130A042009042D83068B0F1FF3F3E
:1026D00018DD00980130A042009039D830680028F9
:1026E00010D400980130A042009031D83068002802
:1026F00008D400980130A042009029D83068B0F189
:10270000FF3FDDDC00200090306840F001003060C9
:1027100000980130A04200901AD83068C00717D046
:1027200000980130A042009012D83068C0070FD046
:1027300000980130A04200900AD83068C00707D046
:1027400000980130A042009002D83068C007DFD165
:10275000B06A40F48030B06256F8040C20F0C040FB
:1027600046F8040C56F8040C40F0005046F8040CEF
:10277000322000F09BF940F60060C4F20400002112
:102780000160B06A40F40010B062B06A20F400202A
:10279000B062B06A20F48020B062D6F8F00340F056
:1027A0000100C6F8F003D6F8F00320F00400C6F8E4
:1027B000F0034FF484600091306000980130A04233
:1027C00000901AD83068800617D500980130A042D2
:1027D000009012D8306880060FD500980130A042D2
:1027E00000900AD83068800607D500980130A042D2
:1027F000009002D830688006DFD4002000901020BE
:10280000306000980130A04200901AD83068C006AD
:1028100017D500980130A042009012D83068C00649
:102820000FD500980130A04200900AD83068C00649
:1028300007D500980130A042009002D83068C00649
:10284000DFD440F20C504FF0FF34C4F204000025F6
:10285000C6F8F8440560C4610562C4630564C465D4
:102860000566C467C0F88050C0F89C40C0F8A0500E
:10287000C0F8BC40C0F8C050C0F8DC40C0F8E05020
:10288000C0F8FC40C0F80051C0F81C41C0F820510D
:10289000C0F83C41C0F84051C0F85C41C0F86051FC
:1028A0000095D6F830040090009820F02E0000909B
:1028B0000098C00404D4009840F48050C6F8300456
:1028C0000098C82000F0F2F84FF40070B560746012
:1028D000706140F20020C0F20010B06140F20030A0
:1028E000C0F2E000C6F8F00056F8080C40F0060010
:1028F00046F8080C56F8080C40F0200046F8080C82
:10290000B06840F00C50B06056F8080C40F001017F
:10291000002046F8081C01B0F0BD28A006F0F6F92A
:1029200049F6DF40C0F6000006F0C4FC49F27860CA
:10293000C0F6000006F0EAF9FEE700BF3D3D3D3D70
:102940003D3D3D3D3D3D2044574332207061726125
:102950006D73203D3D3D3D3D3D3D3D3D3D0D000008
:102960004349443A253038780D0A000047534E5009
:102970005349443A253038780D0A000047485743F8
:102980004647313A253038780D0A0000474857430A
:102990004647323A253038780D0A000047485743F9
:1029A0004647333A253038780D0A000047485743E8
:1029B0004647343A253038780D0A00001B5B333126
:1029C0006D5B452F5553425D20000000B0B586B0C9
:1029D000002443F630050194C4F20205286801A9D9
:1029E00040F002002860286800F002000190019881
:1029F0004FF4404001900220CDE9020403200490EE
:102A00000C20059040F20040C4F20200FDF7BCFC2F
:102A100000942868002140F00050286028680022B7
:102A200000F00050009000984D20FDF70FFE4D2063
:102A3000FDF7FCFD06B0B0BD4FF0500080F31188EB
:102A4000BFF36F8FBFF34F8F01207047002080F3DB
:102A5000118870470421002205F0BAB980B505F04D
:102A600031FB013818BF6FF0730080BD80B582B0B4
:102A700001910021009101A96A46002305F0EAF9BD
:102A800001280CD1009951B14EF60451CEF200014B
:102A90004FF080520A60BFF34F8FBFF36F8F013842
:102AA00018BF6FF0730002B080BD00004FF47A7160
:102AB000484344F6D351C1F26201A0FB01018809E9
:102AC00004F074BF0146012005F070B980B582B0F2
:102AD0000021019101A905F07BFA01280CD101998F
:102AE00051B14EF60451CEF200014FF080520A600F
:102AF000BFF34F8FBFF36F8F013818BF6FF07300B4
:102B000002B080BD80B54FF47A72514344F6D3527F
:102B1000C1F26202A1FB0212910905F077FB0138B4
:102B200018BF6FF0730080BD80B584B0864600206A
:102B30009C46069B039003A8CDE90020C1F38F02B9
:102B40006046714605F04AFC039804B080BD000061
:102B50002DE9F04790F87450E5B1814600680E46C3
:102B6000D0F8B88109F120044FF0FF0A002700BF18
:102B700054F8041C3046FDF796FB002807F10107C6
:102B800008BF94F800A0AF4204F12C04F0D3BAF1CE
:102B9000FF0F03D16FF01200BDE8F08749F26A60C1
:102BA000C0F6000006F0B2F81DA0314606F0AEF8FF
:102BB00049F27860C0F6000006F0A8F8D9F80000E5
:102BC000002100EB8A1090F9700089F81410B0F120
:102BD000FF3F08DDD9F80C0068B103F067FC002066
:102BE000C9F80C0007E0D9F8080020B103F05EFC3A
:102BF0000020C9F8080040F60130C8F80000D9F8F4
:102C000000105FFA8AF0A8F80400486800234146E3
:102C10000022A8F80630BDE8F04701F02DB800BF4B
:102C2000436C6F736520617564696F206D6F6475A7
:102C30006C65203A25730D0A000000002DE9F04F65
:102C40008BB081467820884606F0FEFA002800F016
:102C5000E88178218346FDF70FFB41F67070C2F2E0
:102C6000000001680F260127A6F10F0207FA02F300
:102C70000B4254D0A6F10E0207FA02F30B424ED0DB
:102C8000A6F10D0207FA02F30B4248D0A6F10C029E
:102C900007FA02F30B4242D0A6F10B0207FA02F345
:102CA0000B423CD0A6F10A0207FA02F30B4236D0DF
:102CB000A6F1090207FA02F30B4230D0A6F108028E
:102CC00007FA02F30B422AD0F21F07FA02F30B4273
:102CD00025D0B21F07FA02F30B4220D0721F07FA69
:102CE00002F30B421BD0321F07FA02F30B4216D03D
:102CF000F21E07FA02F30B4211D0B21E07FA02F3DA
:102D00000B420CD0721E07FA02F30B4207D007FAEF
:102D100006F30B4204D010362F2EA5D104E0164640
:102D2000194301608BF8056009EB881292F8A50041
:102D3000D9F8B411CBF800908BF804808BF8190007
:102D4000C2F83CB00A78002A00F07D810138029078
:102D50000020089000200BF11C0A4FF0000CFF250A
:102D60002C27FF23FF260A9000200790CDF814900F
:102D700008E000BF8D78CE7808780A5C0144002A0C
:102D800000F03E8148780428F4D0242804D00B2891
:102D900008BFCB78F0E700BF454514D188780138EB
:102DA000052800F2A9804546DFE800F0043C560300
:102DB000036DE1E7B1F803004546ABF81600C879AA
:102DC0008BF81800D8E7D7D958FA83F0A842D3D99E
:102DD00088780228D0D10A98CDF80CC05FFA80FC20
:102DE0001CFB07A2F0B2157102EB001ECA79049019
:102DF000CF780C79887909932C23002A8EF81C400F
:102E00008EF81D708EF81E008EF81F2000F0D38003
:102E1000501E032802F00304CDE9008406966DD20B
:102E200000229CE0B6464E4699465FFA8CF313FBAF
:102E300007A28F88C8780D8940F20124A7425071FB
:102E4000D780158100F0C38040F201139F424FF0FC
:102E50002C0708BF1076C0E0089CB6461E46E3B2B9
:102E600013FB07A28F88C87840F20135AF429072F9
:102E7000978100F0B98040F201139F424FF02C0778
:102E800008BF1076B6E0079809938146C0B210FBE0
:102E900007A24F79CB7806962C269373D7730FB37E
:102EA00010FB06B2002300BFC8188579D71887F831
:102EB0002C504D795C1CAC4214D2C6799D1C87F80D
:102EC0002D604E79B5420DD2067ADD1C87F82E6052
:102ED0004E79B54206D2407A043387F82F004879FC
:102EE0008342E1D309F10109CDF81C90099BDDE98A
:102EF000059645462C273FE745463DE70CFB03F08A
:102F0000049BA2EB040C00EB03100BEB0008002267
:102F10008818477A90F80A90047A3F0247EA0947EE
:102F20003C4408EB8207FC63837AC67A447A1B022E
:102F300043EA064323443B64C47A067B837A240233
:102F400044EA064423447B64047BC37A407B240226
:102F500044EA0040043218449445B864D8D101983A
:102F6000DDF80080DDE9059628B35018477A847AA9
:102F700090F808C03F0247EA044404EB0C07019CA8
:102F80000EEB8202012C176215D0877A3346C67A7F
:102F900090F809C03F0247EA06471E4607EB0C03BC
:102FA000022C536207D0C77A837A007B3F0247EA3C
:102FB0000040184490620298049A2C2790420A9884
:102FC00008BF0130DDF80CC0099B0A90D4E62C271D
:102FD00003FB07F047A24AF800200CF1010C45461C
:102FE0004B46B1467646C7E62C2703FB07F03FA2C7
:102FF0004AF8002001340894454633467646BBE63D
:103000000A995FFA8CF0C9B2884220D00899C9B2F7
:1030100088421CD00799C9B2884218D06FF01507B2
:103020004DE049F25C60C0F6000005F06FFE46A07E
:1030300006F040F949F27860C0F6000005F066FE3F
:103040006FF00B073BE000208BF8740015E05FEA9F
:103050000C608BF874C010D0002500BFDAF80010A7
:103060005846FFF775FDB0F1FF3F2CDD9BF874006B
:10307000013585420AF12C0AF0D3584600F0BCF81D
:1030800009EB88109BF8053000F1280523A228469B
:10309000102105F04BFE49F26A60C0F6000005F011
:1030A00035FE22A0294605F031FE49F27860C0F6CF
:1030B000000005F02BFE584600F0DAF900273846EC
:1030C0000BB0BDE8F08F074649F25C60C0F6000027
:1030D00005F01CFEDAF8001007A005F017FE49F213
:1030E0007860C0F6000005F011FEE8E773706561D6
:1030F0006B6572006D6963004661696C20746F20B6
:10310000636C6F736520617564696F206D6F6475A2
:103110006C65203A25730D0A000000002F64657667
:103120002F617564696F256400000000526567694E
:103130007374657220417564696F20436C617373A9
:103140003A25730D0A0000004661696C20746F20F7
:10315000616C6C6F6320617564696F5F636C617330
:10316000730D0000B0B500EB8115EC6B84B3607992
:103170001F280AD841F67072C2F2000201211368BA
:1031800001FA00F023EA00001060A068002818BFD0
:1031900003F08CF9E068002818BF03F087F915F8F0
:1031A000280F90B149F26A60C0F6000005F0AEFD4C
:1031B00008A0294605F0AAFD49F27860C0F6000093
:1031C00005F0A4FD204600F055F9204606F014F85D
:1031D0000020B0BD556E72656769737465722041D9
:1031E0007564696F20436C6173733A25730D0A002F
:1031F00000207047002070472DE9F04F83B049F25E
:103200006A66C0F600060446304605F07FFD49F6C2
:103210009330C0F6000006F04DF849F27865C0F62C
:103220000005284605F072FD304605F06FFDE18A85
:103230006AA005F06BFD284605F068FD304605F0F4
:1032400065FD94F8741069A005F060FD284605F04E
:103250005DFD304605F05AFD617E6AA005F056FD21
:10326000284605F053FD94F87400002800F0A08073
:1032700049F26A6549F2786749F6513A04F13C002F
:103280000026C0F60005C0F60007C0F6000AA046FA
:1032900001900AE0009E94F874000136864201987D
:1032A00000F12C00019080F08380284605F02EFD6F
:1032B0002C20009606FB004658A0F16905F026FD7B
:1032C000384605F023FD284605F020FD96F82A1023
:1032D00057A0029605F01AFD384605F017FD607EEE
:1032E0000028D7D0DDF804904FF0000B12E000BFAB
:1032F00049F67830C0F6000005F0DCFF384605F0EE
:1033000005FD98F819000BF1010B4446834509F1BE
:103310001009BFD2284605F0F9FCBBF1000FE7D039
:1033200049F6F220C0F60000594605F0EFFC384699
:1033300005F0ECFC284605F0E9FC029800EB0B16C2
:1033400096F8381042A005F0E1FC384605F0DEFCA6
:10335000284605F0DBFC96F83A1049F62C30C0F60A
:10336000000005F0D3FC384605F0D0FC284605F0F7
:10337000CDFC16F83B1F49F60830C0F6000005F0FA
:10338000C5FC384605F0C2FC30780028B9D00024CE
:10339000284605F0BBFC59F82410504605F0B6FC51
:1033A000384605F0B3FC307801348442F0D3A8E706
:1033B00049F26A60C0F6000005F0A8FC49F69330B7
:1033C000C0F6000005F076FF49F27860C0F6000014
:1033D00003B0BDE8F04F05F099BC00BF62636441E3
:1033E0004443203A253034780D0A00004E756D2094
:1033F0006F66206D6F64756C6573203A25750D0AD4
:10340000000000004E756D206F6620616C7473655E
:103410007474696E67733A25750D0A0020206D6F0C
:1034200064756C65206E616D65203A25730D0A0028
:1034300020206D6F64756C652066656174757265BA
:1034400020756E6974206964203A25640D0A0000B5
:10345000202020202020202020206D6F64756C65A6
:10346000206368616E6E656C73203A25750D0A00E5
:1034700070470000704700002DE9F0478246C068A1
:10348000554645F8400F0C4600202E461F2146F8B1
:10349000100FC5E90104E96041F28831C5E9050171
:1034A000C5E90700C5E90900E86228469846914643
:1034B00003F0E2FC0746002808BFDAF85470002F3A
:1034C00021D4A16800294DD0E47B2A2C1DD10020F5
:1034D000C6E90000C6E90200DAF80C20306170612C
:1034E000CAE91020CAE9128141F28831CAF858109D
:1034F000CAE91A00284603F0BFFC0746002808BFA7
:10350000DAF854702CE04AA47EE0DAF8082050463D
:1035100040F8102F002241F288334262C0E90128AE
:10352000C0E90312C0E90523C0E90722C0E90A2265
:1035300003F0A2FC0746002808BFDAF82470252C07
:103540000ED1002F0CD4D8F8000000BA0130CAF810
:103550007000B8F8060000BA000CAAF8740001E088
:10356000002F50D4002189F80C10C9F80810C9F8B0
:103570000410C9F80010DAF80820504640F8102F5F
:103580000D2241F288334162C0E90119C0E90321EB
:10359000C0E90513C0E90711C0E90A1103F06CFC8A
:1035A0000746002808BFDAF82470002F16D4D9F88F
:1035B000000045F25531C5F24231884210D199F8E8
:1035C0000C0080B349F25C60C0F6000005F09EFB81
:1035D00099F80C102DA005F099FB0AE020A413E047
:1035E00049F25C60C0F6000005F090FB21A005F0F8
:1035F00061FE49F27860C0F6000005F087FB6FF0CD
:103600001500BDE8F0870FA449F25C60C0F6000029
:1036100005F07CFB204605F04DFE49F27860C0F6CF
:10362000000005F073FB07EAE770BDE8F08700BF14
:10363000636277207472616E736665722065727260
:103640006F720D006D736320646174612074726128
:103650006E73666572206572726F720D00000000F5
:10366000637377207472616E73666572206572721F
:103670006F720D00637377207369676E6174757282
:1036800065206572726F720D000000006373772011
:10369000625374617475732025640D0A0000000084
:1036A0000129B8BF7047F0B581B040F21C0749F25C
:1036B00073350C460026C2F20007C0F6000500BFB5
:1036C000B95D284605F022FB0136B442F8D149F233
:1036D0005030C0F60000214601B0BDE8F04005F0D2
:1036E00015BB00002DE9F04F81B0834618208846B5
:1036F00005F0AAFD002800F0F18004460020C4E98E
:103700000000C4E90200C4E9040041F66470C2F29A
:10371000000001680F260127A6F10F0207FA02F345
:103720000B4254D0A6F10E0207FA02F30B424ED020
:10373000A6F10D0207FA02F30B4248D0A6F10C02E3
:1037400007FA02F30B4242D0A6F10B0207FA02F38A
:103750000B423CD0A6F10A0207FA02F30B4236D024
:10376000A6F1090207FA02F30B4230D0A6F10802D3
:1037700007FA02F30B422AD0F21F07FA02F30B42B8
:1037800025D0B21F07FA02F30B4220D0721F07FAAE
:1037900002F30B421BD0321F07FA02F30B4216D082
:1037A000F21E07FA02F30B4211D0B21E07FA02F31F
:1037B0000B420CD0721E07FA02F30B4207D007FA35
:1037C00006F30B4204D010362F2EA5D103E0164687
:1037D00019430160E67308F101050BF1280000EBC5
:1037E000881100EB85104FF00009C0F814904FF4D9
:1037F000E1304C6160600820DBF8B811A07242F241
:103800002100C4F800B084F80B802573A4F8089058
:1038100008600720A1F80480C880D4F8070040F2AF
:103820000472C2F20002C2F803006368DBF804000D
:10383000136000F021FAB0F1FF3F61DD216842F230
:1038400021224868D1F8B811C0F203020A60E27A76
:10385000A1F806908A8040F20112A4F80D200022FF
:1038600000F00AFA824600285BD40BEB851515F8A8
:10387000440FA8B10BEB881000F18B07002600BFA6
:10388000BA1E17F9070B594600284FF0140048BF1D
:103890001020204401F02CF9287801368642EFD31D
:1038A0000BEB8810E37B00F1280527A228461021A6
:1038B00005F03CFA49F26A60C0F6000005F026FA0D
:1038C00025A0294605F022FA49F27860C0F60000EA
:1038D00005F01CFA204600F0BDF831E049F25C60CA
:1038E000C0F6000005F012FA2EA005F0E3FC49F244
:1038F0007860C0F6000005F009FA6FF00B0A1FE0CF
:10390000824649F25C60C0F6000005F0FFF91FA096
:1039100005F0D0FC49F27860C0F6000005F0F6F939
:103920000EE049F25C60C0F6000005F0EFF911A06E
:1039300005F0C0FC49F27860C0F6000005F0E6F939
:10394000504601B0BDE8F08F2F6465762F7474790E
:1039500041434D25640000005265676973746572C8
:10396000204344432041434D20436C6173733A2507
:10397000730D0A004661696C20746F2073657420B2
:103980006C696E652073746174650D004661696CC5
:1039900020746F20736574206C696E65636F646951
:1039A0006E670D004661696C20746F20616C6C6FEE
:1039B00063206364635F61636D5F636C6173730D48
:1039C00000000000B0B500EB8115EC6B84B3E07B28
:1039D0001F280AD841F66472C2F20002012113685E
:1039E00001FA00F023EA000010602069002818BFE7
:1039F00002F05CFD6069002818BF02F057FD15F861
:103A0000280F90B149F26A60C0F6000005F07EF917
:103A100008A0294605F07AF949F27860C0F600005E
:103A200005F074F9204600F017F8204605F0E4FB95
:103A30000020B0BD556E726567697374657220436E
:103A400044432041434D20436C6173733A25730D09
:103A50000A000000704700007047000049F27B3404
:103A600040F21C0641F2B07741F2E07949F2733836
:103A7000C0F60004C2F20006C2F2000700254FF0B3
:103A8000400AC2F20009C0F6000807E055A005F0A0
:103A900011FC4FF47A70FFF709F800BF204600F0E0
:103AA000B5FD83460028F1D030464FF40071FCF795
:103AB000E3FBDBF8100087E8610440F6B830B8613A
:103AC0003846C7E90A5503F0D7F9B0F1FF3F13DDD7
:103AD000796936A005F01AF97869A0B14FF0000AAB
:103AE00016F80A10404605F011F978690AF1010A42
:103AF0008245F5D307E000BF014649F25C30C0F6CD
:103B0000000005F003F949F67A10C0F6000005F050
:103B1000D1FB02203060DBF814000025C9F800005A
:103B2000082040F20221C9E90156C9F80C0040F60C
:103B3000B830C1F20841C9F8180048467160C9E9B7
:103B40000A5503F099F9B0F1FF3F03DDD9F81410DD
:103B50001AA001E001461DA005F0D8F8DBF810001E
:103B60004FF0400A87E8610440F6B830B86143F28C
:103B7000A160C0F60000C7E90A0B384603F07CF9E3
:103B8000B0F1FF3F0CDC014649F25C30C0F60000AA
:103B900005F0BCF804E000BF4FF47A70FEF786FF32
:103BA000204600F033FD0028F6D177E77265637692
:103BB000206F7665723A25640D0A000073656E64A5
:103BC000206F7665723A25640D0A000062756C6B91
:103BD000206F7574206572726F722C7265743A254D
:103BE000640D0A00646F206E6F742066696E642035
:103BF0002F6465762F74747941434D300D000000B9
:103C0000002070470020704710B582B043F65D2356
:103C1000002410A0C0F600034FF4006105220094B8
:103C2000FEF782FF44F619230DA0C0F600034FF4FF
:103C3000006105220094FEF777FF46F2F5130BA012
:103C4000C0F600034FF4006105220094FEF76CFFFC
:103C500002B010BD757362685F63646300000000AA
:103C6000757362685F68696400000000757362685C
:103C70005F6D736300000000F0B581B0074630202F
:103C800015460E4605F0E0FA04460020C4E904009B
:103C9000C4E90700F1886062C4E90076C4E9025112
:103CA0004FF4FA71A161C4E90A00204603F0E4F878
:103CB00005460028204608BF656905F09DFA28469C
:103CC00001B0F0BD2DE9F04F85B08346D0F8BC01BE
:103CD00040F29C4280799BF80110C2F2000202EB94
:103CE000401000EBC1094FF4807049F8260D4FF4E5
:103CF000D0604F4627F8020D0824484620F8044FAC
:103D0000DBF8045004903020CBF8B87105F09CFA31
:103D100006460020C6E90400C6E907007062C6E94D
:103D2000005740F2DC45C2F200054FF4FA71C6E9D3
:103D30000254B161C6E90A00304603F09DF880469E
:103D40000028304608BFD6F8148005F055FAB8F1BF
:103D5000FF3F12DD2878A9F10101122809F10200C4
:103D6000019102901DD12E4616F8010F01282DD089
:103D700049F22C54C0F6000418E049F25C60C0F629
:103D8000000004F0C3FF49F22140C0F600004146A4
:103D900004F0BCFF49F27860C0F6000004F0B6FF02
:103DA000FFE049F2EC44C0F600042E4649F25C60A4
:103DB000C0F6000004F0AAFF3178204604F0A6FF08
:103DC00049F27860C0F6000004F0A0FFE878E979D5
:103DD00000970124022888BF04FA01F1CDF80CB045
:103DE000DBF804005FFA81FB00215A46002300F053
:103DF00007FC42F2BC10C2F2000001788A4600BF04
:103E00005FFA8AF70AF101027E2F88BF0222C7F308
:103E1000421300EB83030AF01F0553F8046F04FA02
:103E200005F535420CD0B9429246E9D1027049F20B
:103E30005C60C0F6000004F069FF0FF24070A5E07E
:103E4000027045EA06000199186005200870029882
:103E5000002505800398009ED0F8048004983570F2
:103E600005803020A9F8007005F0EEF90446C0E99D
:103E70000455C0E907554562C0E90086C0E902550E
:103E80004FF4FA70A0612046C4E90A5502F0F4FF2D
:103E900080460028204608BFD4F8148005F0ACF90D
:103EA000B8F1FF3F68DD0220FEF700FE039B3946B4
:103EB000586883F802A05A469B460023002500F06C
:103EC0009FFBDDF800A0802001998AF80000062001
:103ED00008704FF48070A9F800000298122605803F
:103EE0000498DBF804700680302005F0ADF9044634
:103EF000C0E90455C0E907554562C0E9007A40F2BF
:103F0000DC40C2F20000C4E902064FF4FA70A0617E
:103F10002046C4E90A5502F0AFFF8046002820463B
:103F200008BFD4F8148005F067F9B8F1FF3F44DD0D
:103F300040F2DC44C2F200042078122848D16078B4
:103F4000012851D14FF48970ABF80800D4F8020071
:103F5000D4F80610D4F80A20CBF80A00CBF80E10DB
:103F6000A07BE17B8BF81600208A8BF81710CBF82A
:103F70001220ABF818004AE049F25C60C0F600007D
:103F800004F0C4FE49F2C830C0F60000414604F017
:103F9000BDFE49F27860C0F6000004F0B7FEDDF81F
:103FA0000CB0DBF8B40120B105F026F90020CBF805
:103FB000B401404605B0BDE8F08F49F25C60C0F640
:103FC000000004F0A3FE49F2ED30C0F60000DEE68A
:103FD00049F25C60C0F6000004F098FE217849F2D6
:103FE000EC40C0F600000AE049F25C60C0F6000058
:103FF00004F08CFE617849F22C50C0F6000004F009
:1040000085FE49F27860C0F6000004F07FFE49F2B8
:104010006A60C0F6000004F079FE21896289A389F4
:104020000FF2845004F072FE49F27860C0F600008E
:1040300004F06CFE802001998AF8000006200870C8
:104040004FF40070A9F8000002980025058004983C
:104050000926DBF8047006803020A04605F0F4F84D
:104060000446C0E90455C0E907554562C0E9007A35
:10407000C0E902864FF4FA70A0612046C4E90A55EF
:1040800002F0FAFE80460028204608BFD4F81480CB
:1040900005F0B2F8B8F1FF3F0FDD40F2DC45C2F2A7
:1040A00000052878092813D115F8010F022823D01C
:1040B00049F25254C0F600040EE049F25C60C0F6CA
:1040C000000004F023FE49F28440C0F600005EE6E2
:1040D00049F20C54C0F6000449F25C60C0F60000DE
:1040E00004F014FE2978204604F010FE49F27860AE
:1040F000C0F6000004F00AFE802001998AF8000052
:10410000062008704FF4007040F2DC48A9F8000067
:104110000298C2F200080025B8F8026005800498F1
:10412000DBF804700680302005F08EF80446C0E904
:104130000455C0E907554562C0E9007AC0E9028626
:104140004FF4FA70A0612046C4E90A5502F094FECB
:1041500080460028204608BFD4F8148005F04CF8AB
:10416000B8F1FF3F40F38A8140F2DC44C2F2000420
:104170002078092840F08D816078022840F09581F0
:104180000A2E67D340F2DC44C2F20004618840F298
:104190000920ABF81C00ABF81E102079D4F80510EC
:1041A0008BF82000CBF821100BF128004FF4C071E0
:1041B000FCF762F8627A002A4CD040F2DC40C2F28E
:1041C000000009304FF0FF0A09214FF0250E4FF093
:1041D000010CFF274FF0FF084578052D20D0042D56
:1041E00031D18778062F80F0A781C378002B40F06B
:1041F000AE810279052A80F0B5810BEB8712047A33
:1042000013FB0E2383F84840446805685C641D6412
:1042100082F865C002784FF000084FF0000A12E003
:104220005FFA88F55FFA8AF30BEB871415FB0E44EF
:10423000C3EBC3032344D0F8034005680AF1010A25
:10424000DC64C3F84950855C25B129441044B1426F
:104250002A46C1D949F26A60C0F6000004F056FD52
:1042600040F2DC40C2F20000017949F2CD40C0F6D4
:10427000000004F04BFD49F27860C0F6000004F045
:1042800045FD304604F0E0FF0028CBF8B40100F013
:10429000328140F2DC41C2F200013246FBF7D3FF2B
:1042A0000199092008700120A9F800000298002552
:1042B00005800498009FDBF80460058030203D7085
:1042C00004F0C2FF0446C0E90455C0E90755456241
:1042D000C0E90067C0E902554FF4FA70A0612046BA
:1042E000C4E90A5502F0C8FD80460028204608BFF0
:1042F000D4F8148004F080FFB8F1FF3F40F3108140
:1043000049F26A60C0F6000004F000FD49F2F05086
:10431000C0F6000004F0CEFF49F27860C0F600005D
:1043200004F0F4FC9BF8200000283FF43AAE00248F
:104330000BEB841ACDF810A01AF8450F4BF63C4150
:104340004BF64042C2F20001C2F20002D346D1460F
:10435000096812681BF801EF19F802CF91426CD27C
:10436000039B1E8A5F8A01F1080307E013F8071C0C
:10437000814242D0191D0C3391425ED213F8081CC1
:1043800001F01F051F2D09D133F8041CB142F1D1F2
:1043900033F8021CB942EDD104E000BF01F01C0566
:1043A0001C2D0DD113F8071C8142E3D113F8061C14
:1043B0007145DFD113F8051C6145DBD11DE000BF5D
:1043C00001F00705072D08D133F8041CB142D1D103
:1043D00033F8021CB942C9D0CCE701F00C050C2D12
:1043E00008D113F8071C8142C4D113F8061C71458B
:1043F000C0D102E04907B9D4BCE71E68EEB1049D04
:1044000049F26A60C0F60000AE6304F07FFC3168D8
:1044100049F2B340C0F6000004F078FC49F278603D
:10442000C0F6000004F072FCA86BDDF80CB0426826
:10443000E1B258469047804619E049F25C60C0F608
:10444000000004F063FC9AF800109BF8002099F833
:10445000003049F27850C0F6000004F057FC49F2F1
:104460007860C0F6000004F051FCDDF80CB09BF859
:10447000200001348442FFF45BAF92E549F25C60B6
:10448000C0F6000004F042FC49F25040C0F60000C3
:104490007DE449F25C60C0F6000004F037FC21784E
:1044A00049F20C50C0F600000AE049F25C60C0F628
:1044B000000004F02BFC617849F25250C0F6000075
:1044C00004F024FC6FF0150849F27864C0F600048B
:1044D000204604F01BFC49F25C60C0F6000004F0CA
:1044E00015FC49F2DD50C0F6000004F0E3FE204662
:1044F00004F00CFC55E549F25C60C0F6000004F0E5
:1045000005FC49F2B550C0F6000004F0D3FE49F2B4
:104510007860C0F6000004F0F9FB6FF00B0840E58E
:1045200049F25C60C0F6000004F0F0FB49F29D30F7
:10453000C0F60000FFF72BBC49F25C60C0F600003B
:1045400004F0E4FB49F22160C0F6000011E049F2FA
:104550005C60C0F6000004F0D9FB49F23960C0F697
:10456000000006E049F25C60C0F6000004F0CEFBFB
:104570001DA004F09FFE6FF00B08A5E74661696C73
:10458000656420746F20616C6C6F63617465206476
:104590006576616464722C6572726F72636F6465B4
:1045A0003A25640D0A0000004E657720646576693F
:1045B000636520666F756E642C696456656E646F02
:1045C000723A253034782C696450726F6475637464
:1045D0003A253034782C6263644465766963653AC1
:1045E000253034780D0A0000456E64706F696E7472
:1045F000206E756D206F766572666C6F770D0000AA
:10460000034601700020DA80704700002DE9F04F6A
:1046100081B042F24421C2F20001D1F80090B9F118
:10462000000F3CD0044699F842100846009169B347
:1046300009F14C0A09F18808002505E000980135C8
:10464000854208F5E07821D2C5EBC50081011AF852
:1046500001100029F2D00AEB801090F82070002F92
:10466000ECD00026C34604E00136BE420BF1400BFD
:10467000E4D2ABF1140021461022FBF722FE002801
:10468000F2D1DBF800000028EED005E0D9F8009068
:10469000B9F1000FC7D1002001B0BDE8F08F0020B4
:1046A00001B0BDE8F08F00000129B8BF7047F0B538
:1046B00081B040F21C2749F273350C460026C2F245
:1046C0000007C0F6000500BFB95D284604F01EFBD8
:1046D0000136B442F8D149F25030C0F6000021460C
:1046E00004F014FB42F2D010C2F2000001B0BDE8A9
:1046F000F04002F0C1BB00002DE9F0478246902057
:104700000E4604F0A1FD002800F0E7809021044649
:10471000FBF7B2FD41F66C70C2F2000001680F2594
:104720000127A5F10F0207FA02F30B4254D0A5F1BD
:104730000E0207FA02F30B424ED0A5F10D0207FA62
:1047400002F30B4248D0A5F10C0207FA02F30B4228
:1047500042D0A5F10B0207FA02F30B423CD0A5F1BF
:104760000A0207FA02F30B4236D0A5F1090207FA52
:1047700002F30B4230D0A5F1080207FA02F30B4214
:104780002AD0EA1F07FA02F30B4225D0AA1F07FA24
:1047900002F30B4220D06A1F07FA02F30B421BD030
:1047A0002A1F07FA02F30B4216D0EA1E07FA02F399
:1047B0000B4211D0AA1E07FA02F30B420CD06A1E5C
:1047C00007FA02F30B4207D007FA05F30B4204D0B5
:1047D00010352F2DA5D104E015461943016084F84A
:1047E0008550DAF8B8110AEB861040F62122C4F899
:1047F00000A084F88460C463DAF804000A60002230
:10480000CA8000228E80FFF737FAB0F1FF3F0BDC41
:104810003AA004F07BFA3DA004F04CFD49F2786028
:10482000C0F6000004F072FA216840F28162486824
:10483000D1F8B811C2F200220A6094F884208A806C
:104840008022CA8040F22C72C2F20002FFF714FAF2
:10485000814600283ED440F22C71201DA9F10802A7
:10486000C2F20001FBF7EFFC0AEB8618464616F889
:10487000440F98B108F14B07002500BFBA1E17F985
:10488000070B514600284FF08C0048BF8820204479
:1048900000F02EF9307801358542EFD394F8853059
:1048A00008F1280520A22846102104F03FFA49F219
:1048B0006A60C0F6000004F029FA1FA0294604F03F
:1048C00025FA49F27860C0F6000004F01FFA20468D
:1048D00000F09EF84846BDE8F0871DA004F016FAE7
:1048E0001FA004F0E7FC49F27860C0F6000004F075
:1048F0000DFA6FF00B00BDE8F08700BF1B5B333390
:104900006D5B572F5553425D20000000446F206EB1
:104910006F7420737570706F727420736574206982
:10492000646C650D000000002F6465762F696E7061
:1049300075742564000000005265676973746572C0
:104940002048494420436C6173733A25730D0A0073
:104950001B5B33316D5B452F5553425D20000000DA
:104960004661696C20746F20616C6C6F63206869AC
:10497000645F636C6173730D00000000B0B500EB01
:104980008115EC6B9CB394F885001F280AD841F67A
:104990006C72C2F200020121136801FA00F023EAEE
:1049A00000001060D4F88800002818BF01F07EFDD8
:1049B000D4F88C00002818BF01F078FD15F8280FF6
:1049C00090B149F26A60C0F6000004F09FF909A0B6
:1049D000294604F09BF949F27860C0F6000004F023
:1049E00095F9204600F016F8204604F005FC00205A
:1049F000B0BD00BF556E72656769737465722048FB
:104A0000494420436C6173733A25730D0A0000001A
:104A1000704700007047000049F2883442F2D01617
:104A200040F21C2944F2A965C0F600040FF25C08AC
:104A3000C2F200060027C2F200094FF0080AC0F6D1
:104A4000000507E0404604F035FC00BF40F2DC50B2
:104A5000FEF72CF82046FFF7D9FD0028F2D0D0F859
:104A6000881086E88206B761C6E90A50304602F02F
:104A700003FA0028EAD400BF2046FFF7C7FD00284C
:104A8000E8D040F2DC50FEF711F8F5E7646F206ED5
:104A90006F742066696E64202F6465762F696E706E
:104AA0007574300D0000000080B584B0C1788A1E96
:104AB000022A4FF000020392CDE9012205D34A1FDA
:104AC000022A04D24FF4007105E0402103E00129DD
:104AD00014BF40210821ADF80A1000218DF80910FB
:104AE0000190043001A901F0EBFB002004B080BD6F
:104AF0002DE9F04385B080460020CDE9030015463E
:104B000092F80290D0789479928800F003001746CA
:104B10008DF80D006FF3DF2749F26A608DF80C9075
:104B2000ADF80E708DF81040C2F3C126C0F600003B
:104B30008DF81160029104F0E9F8EA7809A049467D
:104B40003B460094019604F0E1F849F27860C0F623
:104B5000000004F0DBF802A9404601F0B1FB05B00B
:104B6000BDE8F08345703D25303278204174747281
:104B70003D25303275204D70733D256420496E749B
:104B8000657276616C3D25303275204D756C743DD3
:104B9000253032750D0A000010B504468078C8B182
:104BA000411E7D2916D842F2BC1CC0F34212C2F24B
:104BB000000C00F01F0101230CEB820203FA01FE3E
:104BC00051689CF8003021EA0E018342516088BF91
:104BD0008CF800006068002818BF01F067FC002115
:104BE00000206160A17010BD2DE9F04F89B08146B1
:104BF00041F66070C2F2000000684FF0100C012313
:104C000002260424082220254FF0400E4FF0800B8E
:104C10004FF4807A4FF010080491A8F10E0703FAC0
:104C200007F1014245D006FA07F1014243D004FAE8
:104C300007F1014242D002FA07F1014241D00CFAD9
:104C400007F1014240D005FA07F101423FD00EFAC8
:104C500007F101423ED00BFA07F101423DD00AFABA
:104C600007F101423CD04FF40071B94001423AD003
:104C70004FF48061B940014238D04FF40061B9402F
:104C8000014236D04FF48051B940014234D04FF444
:104C90000051B940014232D04FF48041B940014245
:104CA0002FD008F10F08B8F12E0FB6D16FF017080A
:104CB00055E0B84625E0A8F10D0822E0A8F10C085F
:104CC0001FE0A8F10B081CE0A8F10A0819E0A8F100
:104CD000090816E0A8F1080813E0A8F1070810E099
:104CE000A8F106080DE0A8F105080AE0A8F10408FB
:104CF00007E0A8F1030804E0A8F1020801E0A8F128
:104D0000010841F66074C2F200040843B8F1030FD1
:104D1000206024D349F25C60C0F6000003F0F6FF87
:104D200049F6A000C0F6000004F0C4FA49F2786029
:104D3000C0F6000003F0EAFF6FF0010050FA88F0BF
:104D40001D2800F29C805FFA88F00121226801FA98
:104D500000F022EA000020606FF00B062EE141F621
:104D60001007A8F1020AC2F200074FF4EA600AFB3A
:104D7000007B4FF4EA615846FBF77EFA99F802008F
:104D800099F803208BF80700584600F8068F039027
:104D90000498CBF84C9709EB8010D9F8B811C0F8FB
:104DA0003CB04FF4D4600880501F4FF424520228C6
:104DB0004FF4102038BF4FF428524A80486040F228
:104DC000E464D9F80400C2F200042246FEF754FF5E
:104DD000002857D4207A0BF140063072D4E9000144
:104DE0003060C0B2092871604ED14FF4EA600AFB0E
:104DF00000752C4614F8410F29284FD149F68F0031
:104E0000C0F6000004F056FA317849F27D60C0F631
:104E1000000003F07BFF217849F2DA60C0F6000061
:104E200003F074FF95F8421049F29C60C0F6000050
:104E300003F06CFFB5F8431049F21870C0F600009B
:104E400003F064FF95F8451049F2BB60C0F600001E
:104E500003F05CFF95F8461049F2F960C0F60000D7
:104E600003F054FF95F847100FF2204003F04EFF77
:104E700095F848100FF2344003F048FF1FE06FF040
:104E80000B069BE0064699E049F25C60C0F6000024
:104E900003F03CFF31780FF2B43008E049F25C6077
:104EA000C0F6000003F032FF21780FF2C03003F0AB
:104EB0002DFF49F27860C0F6000003F027FF4FF4A1
:104EC000EA600AFB007111F8420F002805916CD0CE
:104ED000411E032900F0030C04D20021BCF1000F95
:104EE0003AD162E04FF4EA6108FB0172ACEB0001D9
:104EF0004FF6C52E4FF680464FF685454FF640607B
:104F0000A2F618130222CFF6FF7ECFF6FF76CFF679
:104F1000FF75CFF6FF706FF4DD7400BF571E03F806
:104F20000E70571C5A551F55971C04325F718F180D
:104F300043F806B043F800B0C3F800B0C3F8C0B1FE
:104F4000022F03F5E063E9D141F61007911EC2F28A
:104F50000007BCF1000F28D04FF4EA620AFB02728E
:104F6000C1EBC103481C02EB8313BCF1010F83F8B2
:104F70004D00C3F808B218D0C0EBC0008B1C02EB88
:104F80008010BCF1020F80F84D30C0F808B20CD090
:104F90004FF4EA600AFB0070C3EBC30200EB82101F
:104FA000033180F84D10C0F808B2049809EB801165
:104FB00091F94B00002805D44FF0FF36304609B078
:104FC000BDE8F08F0BF24C7004904FF4EA60CDF81E
:104FD00008A00AFB007A009101F149020AF10800D9
:104FE00049460190FFF784FD99F8030005284AD14E
:104FF000002000BFD9F8BC110246D1F84C17C9B146
:10500000D1F8BC01D0F84C0778B1D0F8BC01D0F889
:105010004C0768B1D0F8BC01D0F84C97101DB9F11D
:10502000000FE7D142F0030204E042F0010201E088
:1050300042F0020241F61001029BC2F200014FF45D
:10504000EA6003FB0010407960B14FF44260ADF8B4
:105050001C000020089007A80021ADF81E2001F0D8
:105060000BFE0DE004984FF4426301684868D1F8E4
:10507000B8114A8000224A6000220B80FEF7FCFD36
:10508000064600289AD440F223350AF1050A002783
:10509000C0F208050DF11C094FF000080FE000BF39
:1050A0005FFA88F0ADF82000484600210795ADF87A
:1050B000227001F0E1FD064600283FF57FAF05981C
:1050C0000078804513D29AF8000008F10108002802
:1050D000E6D104985FFA88F20068D0F8B811406809
:1050E0008A8000220D60CF80FEF7C6FDE3E700282E
:1050F0004DD049F26A6849F6670749F27869012597
:10510000C0F60008C0F60007C0F600099AF80000D3
:1051100068B1A3200790E8B2ADF820000420ADF8F4
:10512000220007A806A901F0A7FD064618E004988A
:10513000A32200683C46D0F8B81140680A60EAB281
:1051400040F2E4678A800422C2F20007CA803A462D
:10515000FEF792FD064600285CBF38680690274699
:10516000404603F0D3FDBDF81820BDF81A3038468C
:10517000294603F0CBFD484603F0C8FD002E3FF55D
:105180001DAF05980078854205F10105BED3029C4C
:1051900041F610084FF4EA60C2F2000804FB0080F8
:1051A00001210171039F00983B7800F1280547A277
:1051B0002846102103F0BAFD42F24421C2F2000158
:1051C0000A6808464AB11168104631B10A680846B3
:1051D0001AB1116810460029F2D1C0F800B049F2A6
:1051E0006A600026C0F60000CBF8006003F08EFD78
:1051F00049F63200C0F60000294603F087FD49F267
:105200007860C0F6000003F081FD387840F2DC6180
:10521000C2F20001019A01EB80014FF4EA6004FB45
:1052200000801268043940F8102F40F8041CC0E9CF
:10523000016141F641410122C0F60001C260866170
:10524000C0E90A1B01F018FEB8E600BF696E76617E
:105250006C69642064657669636520624C656E677D
:105260007468203078253032780D0A00756E6578C4
:105270007065637465642064657363726970746FCC
:1052800072203078253032780D0A00004465766946
:10529000636552656D6F7661626C653A2030782582
:1052A00030327820202020200D0A0000506F7274C8
:1052B0005077724374726C4D61736B3A203078256D
:1052C00030327820202020200D0A00002F646576DF
:1052D0002F687562256400002DE9F04F83B000EB64
:1052E0008117D7F83CB0BBF1000F00F099809BF814
:1052F0000600811E1D290AD841F66072C2F2000222
:105300000121136801FA00F023EA00001060DBF8C5
:1053100008000197002818BF01F0C8F89BF8420068
:10532000B0B30BF14C000BF184094FF0000A0027D9
:1053300002900AE09BF842000137874209F5E079C4
:1053400086F800A0C5F8BCA122D20299C7EBC7001D
:1053500001EB80152846FFF71FFC2E4616F8200F9C
:105360000028E7D04FF000084C4605E008F101089E
:10537000804504F14004DDD221680029F6D08A6816
:10538000002AF3D05FFA88F1284690473078EDE79D
:1053900042F24420019CC2F200000368B3FA83F198
:1053A0005B454FEA511118BF002B1BD01868B0FAAB
:1053B00080F158454FEA511136D0A8B30368B3FACB
:1053C00083F15B454FEA511118BF002B0AD01868D2
:1053D000B0FA80F158454FEA511125D000281A46FD
:1053E000DBD101E002461846002904BF00681060C6
:1053F00058464FF4EA61FAF73FFF14F8280F78B1E6
:1054000049F26A60C0F6000003F080FC07A0214664
:1054100003F07CFC49F27860C0F6000003F076FCF3
:10542000002003B0BDE8F08F1A46DDE7556E7265C7
:105430006769737465722048554220436C617373C9
:105440003A25730D0A000000B0B582B042F2EC4478
:10545000C2F20004204640F24C71FAF70DFF4FF003
:1054600001306060002042F24421C4F84C07012062
:10547000C2F2000184F842000A6808464AB1116885
:10548000104631B10A6808461AB111681046002961
:10549000F2D10460002507202560FDF7DBFA42F217
:1054A0004821C2F200010860A0B145F2ED430CA012
:1054B000C0F600034FF4006104220095FDF734FBB1
:1054C00042F24C21C2F200010860002808BF4FF0F0
:1054D000FF3501E04FF0FF35284602B0B0BD00BFF8
:1054E000757362685F687562000000008AB0FDF73E
:1054F00039F842F24824C2F2000406AD4FF0A30A84
:105500004FF004091EE049F25C60C0F6000003F0B1
:10551000FDFB49F64A000299C0F6000003F0F6FBD5
:1055200049F27860C0F6000003F0F0FBF06800215B
:105530000170707942F248240028C2F2000406ADDE
:1055400000F02D83206829464FF0FF32FDF786FAE0
:105550000028F7D4069E30790028F3D096F8420050
:105560000028E3D006F184004FF0000B01901DE00D
:1055700049F25C60C0F6000003F0C8FB49F29C7081
:105580000099C0F600002A4603F0C0FB49F278609B
:10559000C0F6000003F0BAFBDDF808B096F8420050
:1055A0008345019800F5E0700190BFD2F068D846BD
:1055B000007820FA0BF080070BF1010BEED5707923
:1055C000A0B15FFA8BF0ADF8240008A807A9CDF8C8
:1055D00020A0ADF8269001F04FFB002800F10882D2
:1055E000BDF81C40BDF81E101BE000BFD6F84C07EC
:1055F00040F2E464D0F8B81140685FFA8BF2C2F26E
:1056000000048A802246C1F800A0A1F80690FEF7A7
:1056100033FBB0F1FF3F40F3EB81206884B2010C13
:1056200007900029CDF800805CD004945F465FFAB3
:105630008BFA01244FF0100907E000BF0599A14340
:105640006400080409F1010944D001EA04000004DF
:10565000F6D0A5B25FFA89F8059100BF707978B1EC
:1056600040F22310ADF820000020ADF8260008A875
:105670000021ADF82280ADF824A001F0FDFA10E081
:10568000D6F84C0740F22312D0F8B81140680A80CF
:105690000022CA800022A1F80280A1F804A0FEF72F
:1056A000EBFA8346B0F1FF3FC8DC49F25C60C0F61C
:1056B000000003F02BFB0FF2F84039462A465B4608
:1056C00003F024FB49F27860C0F6000003F01EFBF3
:1056D000C4E700BFBDF81E10049C4FF0A30A4FF0B2
:1056E0000409BB46C8073FF459AF5FFA8BF004903A
:1056F000002040F2E467CDF808B003906FF0180B7B
:105700000020C2F2000705901CE0D6F84C0740F2DA
:105710002312D0F8B811C0F2100240680A60049A4F
:105720008A800022CA800022FEF7A6FA1920FDF71F
:10573000BDF90394444605950BF1190B40F2C35093
:10574000834567D2707988B1049807A9ADF8240021
:1057500008A8CDF820A0ADF8269001F08DFA002819
:1057600042D4BDF81C10BDF81E0014E0D6F84C075A
:10577000049AD0F8B81140688A803A46C1F800A06F
:10578000A1F80690FEF778FAB0F1FF3F2CDD3868FB
:10579000079081B2000C884601F00105059900F0E0
:1057A00001008D424FF0000408BF002806D1039984
:1057B000059D01F11904A1B263296ED80028B5D066
:1057C00070790028A1D040F22310C0F21000089098
:1057D00004980021ADF824000020ADF8260008A8A8
:1057E00001F04AFAA2E700BF054649F25C60C0F644
:1057F000000003F08BFA49F26D700299C0F60000C8
:105800002A4603F083FA49F27860C0F6000003F0FC
:105810007DFA91E7039880B26428FFF474AEE00744
:105820003ED10098C0EBC00006EB8018C3461BF8C1
:105830004C0F18B300208BF800005846FFF7ACF966
:1058400018F86C0F019DA0B10027002405E000BFEF
:105850000134844207F140070BD2E9590029F7D0FF
:105860008A68002AF4D0E1B25846904798F80000C0
:10587000EEE700204FF0040988F8000049F26A6062
:10588000C0F6000003F042FADDF808B0B17949F241
:10589000F070C0F600005A46B7E04446E007C0D0BA
:1058A000707978B140F22330C0F204000890049877
:1058B0000021ADF824000020ADF8260008A801F072
:1058C000DBF910E0D6F84C0740F22332D0F8B811DB
:1058D000C0F2040240680A60049A8A800022CA80EA
:1058E0000022FEF7C9F90546B0F1FF3F7FF740AE51
:1058F000C820FDF7DBF8707988B1049807A9ADF8E6
:10590000240008A8CDF820A0ADF8269001F0B4F945
:10591000DDF808B000286BD4BDF81C0014E0D6F800
:105920004C07049AD0F8B81140688A803A46C1F80A
:1059300000A0A1F80690FEF79FF9B0F1FF3F54DDFB
:105940003868DDF808B0079000F0120102291AD17A
:10595000BDF81E10DDF804B0C90687B240F187809B
:10596000707900285AD040F22310C0F21400089039
:1059700004980021ADF824000020ADF8260008A806
:1059800001F07AF95BE00098C0EBC00006EB8018EC
:10599000454615F84C0F18B3002028702846FFF72D
:1059A000FBF818F86C0F019C98B1002705E000BFC8
:1059B0000137874204F140040BD221680029F7D057
:1059C0008A68002AF4D0F9B22846904798F8000077
:1059D000EEE7DDF808B000204FF0040988F8000079
:1059E00082A003F093F985A0D5E0DDF808B000BFF0
:1059F000054649F25C60C0F6000003F087F949F201
:105A00006D70C0F6000059462A4603F07FF949F24E
:105A10007860C0F6000003F079F9BFE5D6F84C07CE
:105A200040F22312D0F8B811C0F2140240680A60A4
:105A3000049A8A800022CA800022FEF71DF90546DA
:105A4000B0F1FF3F13DC49F25C60C0F6000003F0E8
:105A50005DF949F237700099C0F600002A4603F05C
:105A600055F949F27860C0F6000003F04FF9B80527
:105A70004FF0010958BF4FF0020978050098C0EBBC
:105A8000C00006EB8017B84618F84C0F48BF4FF01F
:105A9000030908B3002088F800004046FFF77CF8AF
:105AA000059717F86C0FA0B10024002505E000BF92
:105AB0000135854204F140040BD25BF80410002943
:105AC000F6D08A68002AF3D0E9B240469047387889
:105AD000EEE700203870059F40464FF4E071FAF77A
