:020000040800F2
:10000000C8170024AD020008C91F0008111F00080E
:10001000C11F000839040008192F00080000000063
:10002000000000000000000000000000692500083A
:10003000410400080000000021230008A125000859
:10004000C7020008C7020008C7020008C70200086C
:10005000C7020008C7020008C7020008C70200085C
:10006000C7020008C7020008C7020008C70200084C
:10007000C7020008C7020008C7020008C70200083C
:10008000C7020008C7020008C7020008C70200082C
:10009000C7020008C7020008C7020008C70200081C
:1000A000C7020008C7020008C7020008C70200080C
:1000B000C7020008C7020008C7020008C7020008FC
:1000C000C7020008C7020008C7020008C7020008EC
:1000D000C7020008C7020008C7020008C7020008DC
:1000E000C7020008C702000800000000C70200089D
:1000F000C7020008C7020008C7020008C7020008BC
:10010000C7020008C7020008C7020008C7020008AB
:10011000C7020008C7020008C7020008C70200089B
:10012000C7020008C7020008C7020008C70200088B
:10013000C7020008C7020008C7020008C70200087B
:1001400000000000000000000000000000000000AF
:10015000C7020008C7020008C7020008C70200085B
:10016000C7020008C7020008C7020008C70200084B
:10017000C7020008C7020008C7020008C70200083B
:10018000C7020008C7020008C7020008C70200082B
:10019000C7020008C7020008C7020008C70200081B
:1001A000C7020008C7020008C7020008C70200080B
:1001B000C7020008C7020008C7020008C7020008FB
:1001C000C7020008C7020008C7020008C7020008EB
:1001D000C702000801200008C7020008C702000883
:1001E000C7020008C7020008C7020008C7020008CB
:1001F000C7020008C7020008C7020008C7020008BB
:10020000C7020008C7020008C7020008C7020008AA
:10021000C7020008C7020008C7020008C70200089A
:10022000C7020008C7020008C7020008000000005B
:10023000C7020008C702000800000000C70200084B
:10024000C7020008C7020008C7020008C70200086A
:10025000C7020008C7020008C7020008C70200085A
:10026000C7020008C7020008C7020008C70200084A
:10027000C7020008C7020008C7020008000000000B
:10028000C7020008C7020008C702000800000000FB
:1002900000000000C7020008DFF80CD000F09AF858
:1002A00000480047A9350008C817002406488047C1
:1002B00006480047FEE7FEE7FEE7FEE7FEE7FEE74B
:1002C000FEE7FEE7FEE7FEE7692600089902000860
:1002D0002DE9F05F0546002092469B46884606467B
:1002E000814640241BE0284641464746224600F00E
:1002F00060F853465A46C01A914110D31146184629
:10030000224600F047F82D1A67EB01084F462246B7
:100310000120002100F03EF817EB00094E41201E9D
:10032000A4F10104DFDC484631462A464346BDE8D5
:10033000F09F40EA01039B0703D009E008C9121FA0
:1003400008C0042AFAD203E011F8013B00F8013B8F
:10035000521EF9D27047D2B201E000F8012B491EBB
:10036000FBD270470022F6E710B513460A46044652
:100370001946FFF7F0FF204610BD30B504460020B7
:10038000034600E05B1C934203D2E05CCD5C401B63
:10039000F8D030BD202A04DB203A00FA02F1002018
:1003A00070479140C2F1200320FA03F319439040B3
:1003B0007047202A04DB203A21FA02F0002170471E
:1003C00021FA02F3D040C2F12002914008431946BD
:1003D00070470000064C074D06E0E06840F001035E
:1003E00094E8070098471034AC42F6D3FFF758FF63
:1003F0007C4F00089C4F000830B58C1810F8012B7A
:1004000012F00F0301D110F8013B120906D110F8C8
:10041000012B03E010F8015B01F8015B5B1EF9D1D1
:1004200001E001F8013B521EFBD1A142E6D30020BE
:1004300030BD000000000000FEE7000000000000EA
:100440007047000000000000EFF3108072B600BF9C
:10045000FEE7000000000000B0B5044600F0ECF834
:1004600040F21C010546C2F20041621C097818BF27
:100470000C4400BF00F0E0F8401BA042FAD3B0BD2E
:100480002DE9F04F83B00E68002E00F0C98000F116
:1004900026420A2302F1FF7240F2040C4FEAB22214
:1004A000019242F20042C5F6000CC5F602024FF07E
:1004B000010B90424FF0000508BF092300274FF0C1
:1004C000010800930AE000BF0E68043736FA08F20C
:1004D00008F1010805F1020500F0A280A8F1010A67
:1004E0000BFA0AF216EA0209EED04E68122E17D85D
:1004F0000BFA06F414F0061F12D00323D0F808E01C
:10050000AB40CC682EEA0303AC40234383604368CE
:10051000C6F3001423EA020204FA0AF31A43426003
:100520000323C268AB4046F010046FEA030E9A43FF
:100530008B68122C03FA05F342EA0302C26012D15F
:100540006FF0030207F01C0402EA5A020F2602446D
:10055000A640136AD1F810B0B3430BFA04F44FF07D
:10056000010B2343136202684B6803F0030402EAA1
:100570000E02AC40DB0042EA04020260A4D544F261
:10058000F443C5F602031A6842F002021A601A68C0
:1005900007F00C0302F002020292029A2AF0030210
:1005A00040F2084A019C009EC5F6000A092C38BF9B
:1005B00026460F2452F80AE09C402EEA040406FA6C
:1005C00003F3234342F80A30DCF87C204B6842EA0C
:1005D0000906DC0358BF22EA09069C034FF0B04E1F
:1005E000CCF87C60DCF8802042EA090658BF22EA99
:1005F0000906DC02CCF88060DEF8002042EA090639
:1006000058BF22EA09069B02CEF80060DCF8002001
:1006100042EA090658BF22EA0906CCF8006053E70F
:1006200003B0BDE8F08F000041F20000C5F60040C5
:100630000068000C7047000041F2C030C2F2004078
:10064000006870470000000040F21C0041F2C03119
:10065000C2F20040C2F2004100780A68104408600B
:10066000704700000000000080B5032000F080F813
:1006700001F00AF844F2184144F61463C5F6020189
:10068000C0F600030A68C2F30322096801F00F01F3
:100690009A5C595C02F01F02D04040F20802C2F29C
:1006A000004201F01F0120FA01F1116040F2040143
:1006B000C2F200410860002000F00AF800281CBFC8
:1006C000012080BD00F030F8002080BD0000000057
:1006D000B0B540F21C01C2F20041097801B30446F2
:1006E00040F20400C2F200404FF47A72B2FBF1F122
:1006F0000068B0FBF1F001F0AFFA0F2C4FF00105EC
:100700000CD858B94FF0FF3000222146002500F0E8
:100710001FF840F22000C2F2004004602846B0BD3D
:100720000120B0BD0000000081B044F2F440C5F6E5
:100730000200016841F002010160006800F002005F
:100740000090009801B0704780B502F0E9FB80BDD1
:1007500070B514460D46064602F0F2FB29462246C5
:1007600001F036FC0146304602F0F2FB70BD00009D
:1007700080B502F001FC80BDB0B544F60C05C5F6AD
:10078000020529684907296805D401F00701081AFC
:1007900018BF0120B0BD21F0070108432860FFF712
:1007A0004BFF044655F8080C800407D4FFF744FFBC
:1007B000001BB0F57A7FF5D90120B0BD0020B0BD97
:1007C00044F60C00C5F60200016841F0807101603A
:1007D000704700000000000080B500F005FF44F203
:1007E000204144F61462C5F60201C0F60002096811
:1007F000C1F30211515C01F01F01C84080BD00002F
:1008000080B544F2384EC5F6020E5EF8103C5EF834
:10081000102CC2F3053C5EF80C2CBCF1000FC2F3A7
:100820000012DEF80410C1F3CC0102FB01F100EE6E
:10083000101AB8EE400A0BD003F00303022B0CD0C1
:1008400073B95EF8381C89060DD49FED351A18E08F
:100850000021C0E90011816080BD9FED301A10E0D9
:100860009FED2D1A0DE05EF8381C49F20002C0F22F
:10087000D032C1F3C10122FA01F101EE101AB8EE33
:10088000411A02EE10CA9FED274AB8EE422ADEF85E
:1008900000106FF35F2103EE101A81EE021AB8EE1A
:1008A000433ADEF8001000EE043AB7EE000AC1F356
:1008B000462133EE002A03EE101AB8EE433A21EE39
:1008C000021A33EE002A81EE022ABCEEC22A80ED23
:1008D000002ADEF80010C1F3064102EE101AB8EE4D
:1008E000422A32EE002A81EE022ABCEEC22A80EDB4
:1008F000012ADEF80010C1F3066102EE101AB8EE0C
:10090000422A32EE000A81EE000ABCEEC00A10EE66
:10091000101A816080BD00BF0024744A20BCBE4B09
:100920000024744C0000003980B544F2404EC5F6F6
:10093000020E5EF8183C5EF8182CC2F3055C5EF8F7
:10094000142CBCF1000FC2F30022DEF80410C1F336
:10095000CC0102FB01F100EE101AB8EE400A0BD0F8
:1009600003F00303022B0CD073B95EF8401C890618
:100970000DD49FED351A18E00021C0E90011816007
:1009800080BD9FED301A10E09FED2D1A0DE05EF84E
:10099000401C49F20002C0F2D032C1F3C10122FA78
:1009A00001F101EE101AB8EE411A02EE10CA9FEDE5
:1009B000274AB8EE422ADEF800106FF35F2103EEFB
:1009C000101A81EE021AB8EE433ADEF8001000EE7B
:1009D000043AB7EE000AC1F3462133EE002A03EED3
:1009E000101AB8EE433A21EE021A33EE002A81EED5
:1009F000022ABCEEC22A80ED002ADEF80010C1F304
:100A0000064102EE101AB8EE422A32EE002A81EEBA
:100A1000022ABCEEC22A80ED012ADEF80010C1F3E2
:100A2000066102EE101AB8EE422A32EE000A81EE9A
:100A3000000ABCEEC00A10EE101A816080BD00BF33
:100A40000024744A20BCBE4B0024744C00000039C2
:100A50002DE9F04381B00446C07844F22C490007E8
:100A6000C5F6020901D400262DE0606E4FEA305031
:100A700003280DD80026DFE800F0020E1613D9F87F
:100A80000000002640F40030C9F800004EB912E022
:100A9000012636B90FE0201D022101F045FC064673
:100AA0004EB1B04611E004F12400022101F0CCFC6B
:100AB0000646002EF5D1D9F82400616E20F44010CE
:100AC0000843C9F824004FF000086078C0072FD011
:100AD000606D042807D8DFE800F00A131B03030049
:100AE000F6B1B04624E00126002EFAD118E0D9F87C
:100AF000000040F40030C9F80000002EF1D10FE0F2
:100B0000201D002101F010FC0646002EE9D107E06F
:100B100004F12400002101F097FC0646002EE0D1EC
:100B2000D9F82400616D20F007000843C9F82400BB
:100B30006078800731D5A06D4FEAB010042807D83F
:100B4000DFE800F00A131B030300F6B1B04624E00F
:100B50000126002EFAD118E0D9F8000040F4003048
:100B6000C9F80000002EF1D10FE0201D002101F096
:100B7000DBFB0646002EE9D107E004F1240000214A
:100B800001F062FC0646002EE0D1D9F82400A16DE8
:100B900020F4E0700843C9F824006078400733D59A
:100BA000D4F8A4004FEA7050042807D8DFE800F01A
:100BB0000A131B030300F6B1B04625E00126002E00
:100BC000FAD118E0D9F8000040F40030C9F800006C
:100BD000002EF1D10FE0201D002101F0A5FB0646FB
:100BE000002EE9D107E004F12400002101F02CFCE3
:100BF0000646002EE0D1D9F82C00D4F8A41020F439
:100C000060000843C9F82C006078000733D5D4F899
:100C1000A8004FEA3060042807D8DFE800F00A1384
:100C20001B030300F6B1B04625E00126002EFAD1E1
:100C300018E0D9F8000040F40030C9F80000002E98
:100C4000F1D10FE0201D002101F06EFB0646002EC1
:100C5000E9D107E004F12400002101F0F5FB06468C
:100C6000002EE0D1D9F82C00D4F8A81020F0E060D4
:100C70000843C9F82C00E078800727D5A06C4FEA1C
:100C80003010032806D8DFE800F002091202AEB1E6
:100C9000B0461BE00126002EFAD10FE0D9F8000083
:100CA00040F40030C9F80000002EF1D106E0201D0C
:100CB000022101F039FB0646002EE9D1D9F82000C7
:100CC000A16C20F030000843C9F820006078C0060D
:100CD00031D5E06D4FEA3030042807D8DFE800F066
:100CE0000A131B030300F6B1B04624E00126002ED0
:100CF000FAD118E0D9F8000040F40030C9F800003B
:100D0000002EF1D10FE0201D002101F00DFB064661
:100D1000002EE9D107E004F12400002101F094FB4A
:100D20000646002EE0D1D9F82400E16D20F4E04021
:100D30000843C9F824006078800625D5206E4FEA64
:100D40003040052807D8DFE800F0030A0F0303034B
:100D500096B1B04618E00126002EFAD10CE0201D15
:100D6000012101F0E1FA04E004F12400012101F085
:100D70006BFB0646002EECD1D9F82400216E20F43E
:100D8000E0200843C9F824006078400627D5D4F84D
:100D9000AC004FEA3070052807D8DFE800F0030AFE
:100DA0000F03030396B1B04619E00126002EFAD1D5
:100DB0000CE0201D012101F0B7FA04E004F1240049
:100DC000012101F041FB0646002EECD1D9F82C00A0
:100DD000D4F8AC1020F0E0400843C9F82C0060784B
:100DE00000061FD5E06ED0B1B0F1005F12D0B0F1B7
:100DF000805F24D1D9F8000040F40030C9F8000029
:100E00007EB9D9F82400E16E20F040500843C9F8BB
:100E1000240007E0201D012101F086FA0646002E7D
:100E2000EFD0B046E078C00729D0606C03280AD81C
:100E3000DFE800F0020D1602CEB1B0461FE0012639
:100E4000002EEED1DDE70126002EF6D10FE0D9F815
:100E5000000040F40030C9F80000002EEDD106E09B
:100E6000201D022101F060FA0646002EE5D1D9F8D6
:100E70002000616C20F003000843C9F82000A0782E
:100E8000400643D5D9F8D40340F48070C9F8D403A0
:100E9000FFF7D2FB074600BFD9F8D403C00505D43D
:100EA000FFF7CAFBC01B6528F6D303266EBBD9F833
:100EB0004410D4F8B000414011F4407F11D0D9F86B
:100EC0004410D9F8442042F48032C9F84420D9F8BB
:100ED000442021F4407122F48032C9F84420C9F83A
:100EE0004410B0F5807F0FD1FFF7A6FB074641F213
:100EF000893500BFD9F84400800705D4FFF79CFB73
:100F0000C01BA842F6D3032686B1B0462078C0079E
:100F100041D0A06F4FEAF000052823D8DFE800F0A9
:100F200003262B03030376B3B04634E04FF6CF73AA
:100F3000D4F8B00059F81C2CC0F2FF0300F4407143
:100F400022F47C5203EA1013B1F5407F08BF1A4324
:100F50006FF31F3049F81C2CD9F844100843C9F826
:100F60004400D3E70126002EDED10CE0201D012134
:100F700001F0DAF904E004F12400012101F064FA3F
:100F80000646002ED0D1D9F82800A16F20F03800F5
:100F90000843C9F828002078800723D5606F05280A
:100FA00007D8DFE800F0030A0F03030396B1B04649
:100FB00018E00126002EFAD10CE0201D012101F0DD
:100FC000B3F904E004F12400012101F03DFA0646E2
:100FD000002EECD1D9F82800616F20F007000843FB
:100FE000C9F828002078400725D5D4F890000528B6
:100FF00007D8DFE800F0030A0F03030396B1B046F9
:1010000019E00126002EFAD10CE0201D012101F08B
:101010008BF904E004F12400012101F015FA0646E1
:10102000002EECD1D9F82C00D4F8901020F0070055
:101030000843C9F82C002078800627D5D4F88C0006
:101040004FEA3070052807D8DFE800F0030A0F03E5
:10105000030396B1B04619E00126002EFAD10CE048
:10106000201D002101F060F904E004F124000221B8
:1010700001F0EAF90646002EECD1D9F82800D4F8A0
:101080008C1020F0E0400843C9F828002078400682
:1010900027D5D4F898004FEAB020052807D8DFE814
:1010A00000F0030A0F03030396B1B04619E00126CE
:1010B000002EFAD10CE0201D002101F035F904E0EA
:1010C00004F12400022101F0BFF90646002EECD104
:1010D000D9F82C00D4F8981020F4E0500843C9F84F
:1010E0002C002078000627D5D4F89C004FEA7030F9
:1010F000052807D8DFE800F0030A0F03030396B1C1
:10110000B04619E00126002EFAD10CE0201D002186
:1011100001F00AF904E004F12400022101F094F93D
:101120000646002EECD1D9F82C00D4F89C1020F4FF
:1011300060400843C9F82C002078000716D5D4F881
:101140008000B0F5805F08D104F12400022101F095
:101150007BF9002818BF4FF00108D9F82800D4F80F
:10116000801020F440500843C9F828002078C006B9
:1011700016D5D4F89400B0F5807F08D104F124008E
:10118000022101F061F9002818BF4FF00108D9F8D9
:101190002C00D4F8941020F440700843C9F82C00B7
:1011A000A078000721D5D4F8A000B0F5003F19D0F1
:1011B000B0F5803F10D0C0BB201D002101F0B4F875
:1011C00006468EB9D9F82C00D4F8A01020F440308F
:1011D0000843C9F82C0008E004F12400022101F0C2
:1011E00033F90646002EEDD0B046A078400729D549
:1011F000D4F88400B0F5401F21D0B0F5001F18D0FE
:10120000B0F5801F40F0B480D9F8000040F4003001
:10121000C9F80000AEB9D9F82800D4F8841020F439
:1012200040100843C9F828000CE00126002EDBD14D
:10123000C8E704F12400012101F006F90646002E5A
:10124000E9D0B046A078C0071FD0E06CB0F5803F71
:1012500010D0B0B9D9F8000040F40030C9F800004F
:1012600096B9D9F82000E16C20F480300843C9F821
:1012700020000AE0201D022101F056F806461EB9A2
:10128000EFE70126002EECD0B046E078800608D5C6
:1012900004F12400022101F0D7F8002818BF4FF014
:1012A00001082068810313D4C10229D4C10031D4BC
:1012B00081023AD4410042D4B0F1FF3F4FDDB8F192
:1012C000000F18BF4FF00108404601B0BDE8F083A1
:1012D000E16F6FF0010202EB3122022A0AD34FEADA
:1012E00031223AB1012A48D1D9F8002042F4003223
:1012F000C9F80020002E43D04FF00108C102D5D517
:10130000D9F82410226F21F000411143C9F82410AC
:10131000C100CDD559F81C1CD4F8B42021F480416B
:10132000114349F81C1C8102C4D5D9F82410A26EBF
:1013300021F080711143C9F824104100BCD559F83F
:101340001C1C21F4004149F81C1CD4F8B81059F8B1
:101350001C2C114349F81C1CB0F1FF3FAFDCD9F83D
:101360002000216D20F040500843C9F82000A6E776
:101370000126002E7FF465AF4DE70126002EBBD17C
:10138000D9F8282022F440721143C9F82810C1026C
:101390007FF58CAFB4E700002DE9F04381B0002861
:1013A00000F0F28042F200080446C5F200288946A7
:1013B000D8F8000000F00F0088420ED2D8F80000E4
:1013C00020F00F0040EA0900C8F80000D8F800003B
:1013D00000F00F00484540F0D780206844F21847DD
:1013E0004107C5F602070AD521693A6802F0700282
:1013F000914204D93A6822F0700211433960010722
:101400000AD561697A6802F07002914204D97A685B
:1014100022F0700211437960C1060AD5A1697A6889
:1014200002F4E062914204D97A6822F4E062114346
:10143000796081060AD5E169BA6802F070029142CA
:1014400004D9BA6822F070021143B96081070AD545
:10145000E1683A6802F00F02914204D93A6822F03A
:101460000F0211433960C0077ED1206881070AD579
:10147000E1683A6802F00F02914204D23A6822F021
:101480000F0211433960D8F8001001F00F014945EF
:101490000DD9D8F8001021F00F0141EA0901C8F870
:1014A0000010D8F8001001F00F0149456CD1410738
:1014B0000AD521693A6802F07002914204D23A6872
:1014C00022F070021143396001070AD561697A6818
:1014D00002F07002914204D27A6822F07002114345
:1014E0007960C1060AD5A1697A6802F4E062914286
:1014F00004D27A6822F4E0621143796080060AD54A
:10150000E069B96801F07001884204D2B96821F03D
:1015100070010843B86000F0B7F8396844F6146207
:10152000C0F60002C1F303213B6803F00F03515CD6
:10153000D25C01F01F01C84002F01F0140F2080216
:1015400020FA01F1C2F20042116040F2040140F2BF
:101550002002C2F20041C2F2004208601068FFF7A8
:10156000B7F801B0BDE8F083386820F47061D4E9C1
:101570000102032841EA0201396009D0022829D179
:1015800057F8181C890307D4012001B0BDE8F08387
:1015900057F8181C8901F7D557F8081C21F00701E6
:1015A000084347F8080CFFF747F8064641F288352C
:1015B00057F8080C616800F03800B0EBC10F3FF439
:1015C00054AFFFF739F8801BA842F1D9032001B0CE
:1015D000BDE8F083012857F8181C02D1C905D3D5FE
:1015E000DAE74907D0D5D7E780B500F04DF844F2E7
:1015F000184144F61463C5F60201C0F600030A68F8
:10160000C2F30322096801F00F019A5C595C02F0F1
:101610001F0220FA02F201F01F0040F2080122FA34
:1016200000F0C2F20041086040F20401C2F2004141
:101630000A6080BD0000000080B5FFF7D5FF44F2CE
:101640001C4144F61462C5F60201C0F600020968A6
:10165000C1F30211515C01F01F01C84080BD0000C0
:1016600080B5FFF7C1FF44F21C4144F61462C5F691
:101670000201C0F600020968C1F30221515C01F0C9
:101680001F01C84080BD000044F20041C5F60201C0
:101690000869C0F3C20003280FD002282BD078BB02
:1016A0000868800649F20000C0F2D03058BF704789
:1016B0000968C1F3C101C84070478A6A886AC0F3EB
:1016C000051CCB6A486B03F00103BCF1000FC0F3AB
:1016D000CC0003FB00F000EE100AB8EE400A14D074
:1016E00002F00302022A12D0A2B90868800614D4BC
:1016F0009FED251A1EE047F64000C0F27D107047AE
:1017000040F60010C0F23D007047002070479FED8A
:101710001D1A0FE09FED1A1A0CE0086849F200024A
:10172000C0F2D032C0F3C10022FA00F001EE100A7C
:10173000B8EE411A02EE10CA9FED144AB8EE422AE2
:10174000086B6FF35F2003EE100A81EE021AB8EE09
:10175000433A086B00EE043AB7EE000AC0F34620A5
:10176000013033EE000A21EE000A01EE100AB8EE55
:10177000411A80EE010ABCEEC00A10EE100A704752
:101780000024744A20BCBE4B0024744C0000003975
:101790002DE9F041002800F046810446007844F22B
:1017A0000046C007C5F602064AD0306900F038018D
:1017B000B06A102905D018290AD100F003000228C8
:1017C00006D13068800337D56068A8BB012726E0C2
:1017D00065686DB1B5F5803F06D0B5F5A02F3068CE
:1017E00007D140F480203060306840F4803006E05B
:1017F000306820F480303060306820F48020306021
:10180000FEF71AFF002D054613D000BF3068800395
:1018100012D4FEF711FF401B6428F7D903270020DC
:10182000002800F016820BE0FEF706FF401B64283C
:10183000F4D830688003F7D40120002800F0098232
:101840002078800755D5306910F03801B06A18D07B
:10185000182908BF5FEA807013D0E068316858B378
:1018600021F0190108433060FEF7E6FE054600BF8F
:10187000306840070AD4FEF7DFFE401B0228F7D984
:1018800028E03068400701D5E06868B3FEF7CCFE79
:1018900041F20301884208D820697168402821F488
:1018A0007C3119D141F4003018E07068216920F0D2
:1018B000FE4040EA016011E021F001003060FEF7D7
:1018C000BBFE05463068400709D5FEF7B5FE401B54
:1018D0000328F7D3032708E041EA003070600120B5
:1018E000002800F0B68104E001270020002800F065
:1018F000B0812078C0065AD5306900F03801B06A4E
:10190000082905D0182918D100F00300012814D1A6
:101910003068C00502D5E069802843D1FEF784FE17
:1019200041F2030188421CD8206A7168202821F006
:10193000F8412FD141F080402EE0E0690028306866
:1019400017D040F080003060FEF776FE054600BFFD
:101950003068C005E2D4FEF76FFE401B0228F7D9BD
:1019600016E0F068216A20F07C5040EA0160F060E7
:1019700013E020F080003060FEF75EFE054600BFF9
:101980003068C00509D5FEF757FE401B0328F7D382
:10199000032708E041EA806070600120002800F021
:1019A000588104E001270020002800F052812078AF
:1019B00000073CD4207880064DD4207840075ED4C0
:1019C000656A65B3306900F03800182840F09E80E1
:1019D000012DB16A306B26D001F00302A36A9A424E
:1019E00021D1C1F30511E26A91421CD10146226B5B
:1019F0006FF35F21013A914215D1C0F34621626B2A
:101A0000013A91420FD1C0F30641A26B013A9142D3
:101A100009D1C0F30660E16B0139884203D1002788
:101A2000F8B2BDE8F0810127F8B2BDE8F081606945
:101A30000028706F39D040F001007067FEF7FCFDA0
:101A4000054600BF706F8007B4D4FEF7F5FD401B5C
:101A50000228F7D925E0A0690028306844D040F476
:101A600080503060FEF7E8FD054600BF3068800416
:101A7000A3D4FEF7E1FD401B0228F7D911E0D6F808
:101A8000000440F48070C6F80004FEF7D5FD05465A
:101A9000D6F80004C00519D4FEF7CEFD401B64281B
:101AA000F6D90327F8B2BDE8F08120F00100706795
:101AB000FEF7C2FD05460327706F80077FF57AAFFA
:101AC000FEF7BAFD401B0228F6D9C2E0A568EDB3C7
:101AD000012D05D0052D306F39D140F0040030675D
:101AE000306F40F0010038E020F480503060FEF7A5
:101AF000A3FD0546032700BF306880047FF55DAF76
:101B0000FEF79AFD401B0228F6D9A2E0306820F0CB
:101B100080703060FEF790FD022D05464FF0030700
:101B20000AD100BF3068800135D5FEF785FD401B26
:101B30000228F7D98DE000BF306880017FF56FAFD4
:101B4000FEF77AFD401B0228F6D982E0306F20F0C4
:101B500001003067306F20F004003067FEF76CFD45
:101B6000002D054641F288384FF003070FD000BF23
:101B7000306F80073FF524AFFEF75EFD401B404508
:101B8000F6D966E0FEF758FD401B404561D8306F3E
:101B90008007F7D414E704F12807B06A40F2F33164
:101BA00088438ECF0843591E40EA02104FF47E420C
:101BB000B06202EB47206FF35F214FF4FE0280B268
:101BC000E36B0844A16B02EB01414FF0FE4201F4CC
:101BD000FE0102EB0362084402F0FE410844306358
:101BE000F06A4FF6F87120F00100F062706BA26CA1
:101BF000884340EAC2007063F06A216C20F00C0058
:101C00000843F062F06A616C20F002000843F06261
:101C1000F06A40F48030F062F06A40F40030F06224
:101C2000F06A40F48020F062F06A40F00100F06257
:101C3000306840F080703060FEF7FEFC04460327F9
:101C4000306880013FF5EBAEFEF7F6FC001B022882
:101C5000F6D9F8B2BDE8F08180B500F089FC80BD0E
:101C600090F87C10012901D1022070472421C0F88E
:101C7000801002681368116823F0005321F00101FD
:101C800011600021416613602022C0F8802080F896
:101C90007C10084670470000B0B5044690F87C0000
:101CA000012801D10220B0BD012084F87C0024204D
:101CB000C4F8800020680568026822F00102026012
:101CC000826822F0606211438160204600F03CFD92
:101CD000206805602020C4F88000002084F87C0083
:101CE000B0BD000000000000B0B5044690F87C00D4
:101CF000012801D10220B0BD012084F87C002420FD
:101D0000C4F8800020680568026822F001020260C1
:101D1000826822F0604211438160204600F014FD89
:101D2000206805602020C4F88000002084F87C0032
:101D3000B0BD00000000000010B5B0B10446D0F8FE
:101D4000800028B9002084F87C00204600F028F8A4
:101D50002420C4F880002068016821F0010101609E
:101D6000204600F0C1FD012801D1012010BDA06A6C
:101D700010B1204600F014FD2068416821F4904124
:101D80004160816821F02A018160016841F0010110
:101D90000160204600F074FD10BD0000000000004E
:101DA000B0B5B6B0044602A8BC210025CDE9345533
:101DB000CDE932553195FEF7D5FA41F200012068A0
:101DC000C4F20101884201D036B0B0BD01200290BA
:101DD00002A82095FEF73CFE08B1FEF735FB44F261
:101DE000E040C5F60200016941F01001016101699E
:101DF00001F0100101910199016841F001010160B8
:101E0000006831A900F00100019001984FF4C06012
:101E10003190022032900020CDE933000720359028
:101E20000020C5F60200FEF72BFB36B0B0BD000067
:101E30002DE9F04381B00446D0F8800020280BD172
:101E40000E4600294FF001005CD01746002A59D0F9
:101E500094F87C00012803D1022001B0BDE8F08392
:101E60001D46012084F87C004FF00009C4F88890DA
:101E70002120C4F88000FEF7DFFBA4F85470A4F81A
:101E800056700746A168B1F5805F07D12069002828
:101E90001CBF30464E46B046064601E04FF00008F3
:101EA00084F87C9009E000BF206816F8011B81626D
:101EB000B4F856000138A4F85600B4F8560088B1BA
:101EC0008021002220463B46009500F0C9FF88B9DA
:101ED000002EE9D138F8020B216800266FF35F204D
:101EE0008862E5E74021002220463B46009500F04D
:101EF000B7FF18B1032001B0BDE8F0832020C4F87B
:101F00008000002001B0BDE8F08300000000000068
:101F1000FEE700000000000082B044F2E040C5F699
:101F20000200016841F080010160016801F0800158
:101F300001910199016841F001010160006800F020
:101F400001000090009802B07047000000000000FF
:101F500080B541F2282041F20001C2F20040C4F2F3
:101F600001010C2201604FF4E13141600021C0E920
:101F700002110161C0E90521C0E90711C0E9091199
:101F8000FFF7DAFEC0B941F228200021C2F200407A
:101F9000FFF7AAFE80B941F228200021C2F20040DA
:101FA000FFF77AFE40B941F22820C2F20040FFF765
:101FB00057FE002808BF80BDFEF746FA000000006B
:101FC000FEE7000000000000FEE700000000000047
:101FD00000F007004FF0FF3C80F00703042B28BF00
:101FE0000423033838BF00200CFA03F399430CFA9A
:101FF00000F301FA00F022EA0301084370470000F1
:102000002DE9F04F81B01426C4F2080601F028F93A
:1020100007460028306800F0098110F0010040F008
:102020000581F8062BD5706820F010007060F0680C
:10203000C0F34341062916D002291CD1C0F30A156A
:10204000CDB100F00F0041F26011C2F2004100EB8F
:10205000800001EB80042946206E01F08DF8206E8F
:102060002844206607E0C0F30A1141F26010C2F272
:10207000004001F081F8706840F010007060380393
:10208000009757D501F024F9002853D0054641F2B6
:10209000601840F61C00C2F20048C4F2080008F1C3
:1020A000640400F539774FF0000B4FF000090AE0A7
:1020B000BBEB550F09F101094FEA550507F1200760
:1020C00004F1140436D0E807F2D05FFA89F63046FE
:1020D00001F0F2F88246C007B868B8601DD0B9F1C7
:1020E000000F20680BD04FF6FF723969C0F207026B
:1020F000C4F800B01140411A304661600BE098B15D
:102100004FF6FF723969C0F20702C4F800B01140FF
:10211000411A6160002001F053FF5FEA0A70C7D5E1
:10212000404601F0CDFEC3E701F012F85FEA0A7005
:10213000F6D4BDE7009840035AD501F0B1F8002865
:1021400056D0054641F2601440F61C00C2F200442D
:10215000C4F2080004F1140A00F1E40B4FF0000887
:102160004FF000090BE000BFB8EB550F09F1010972
:102170004FEA55050BF1200B0AF1140A38D0E80795
:10218000F2D05FFA89F6304601F072F80746C007D0
:10219000DBF80800CBF8080024D04FF6FF72DAF81D
:1021A0000000DBF81010C0F207021140B9F1000F77
:1021B000A0EB0101CAF80080CAF8041005D049F06C
:1021C0008000C0B201F0E8FE0CE0802001F0E4FEE7
:1021D000E08820B1214694F90010002900D508B903
:1021E00000F0B6FF3806BFD5304601F061F9BBE715
:1021F000DDF8008014245FEAC840C4F2080418D453
:102200005FEA88405CD45FEA087071D45FEA0850E6
:1022100075D4B8F1FF3F7ADD5FEA487006D554F80F
:10222000100C54F8101C084344F8100C01B0BDE821
:10223000F08F206840F480502060D4F8F00720F040
:102240000100C4F8F00700F0DFFF00F0C1FF40F626
:102250001C004FF60062C4F20800042100F539703A
:10226000CFF6FF724FF0006300274FF67F3600BFB6
:10227000A0F500758350036001392F61AE600761DE
:10228000866000F12000F3D140F61C01C4F2080181
:10229000086840F001100860092041F8080C01208E
:1022A00041F80C0C41F26010C021C2F20040FEF770
:1022B00059F801F0A5FE00F04BFF5FEA8840A2D577
:1022C000206840F40050206040F20400C2F2004058
:1022D000056800F0B1FF0146284601F035F8D4F852
:1022E000F00740F48070C4F8F0075FEA08708DD5FD
:1022F000206840F0080020605FEA085089D5206817
:1023000040F400602060B8F1FF3F3FF785AF2068E0
:1023100040F0004020605FEA487087D57FE700000A
:102320007047000000000000F0B581B044F22C4777
:10233000C5F6020757F8042C02F00302032A02D163
:10234000012001B0F0BD054657F82C0C0C4620F0DA
:10235000806047F82C0CFEF76FF9064657F82C0CF6
:10236000000105D5FEF768F9801B0228F6D964E064
:1023700057F8040CEE6895E80E0020F47C3040EA33
:102380000130A2F101014FF47E4247F8040C02EB48
:1023900043224FF0FE436FF35F2192B202EB010044
:1023A0004FF4FE012A6901EB064101F4FE0103EB43
:1023B0000262084402F0FE410844F8603868696926
:1023C00020F0C00040EA010038603868A96920F0B8
:1023D000200040EA0100386038684FF6F87120F0BC
:1023E000100038603869EA6920EA010040EAC2005A
:1023F0003861386840F0100038602CB1012C386822
:1024000006D140F4801005E0386840F4002001E077
:1024100040F40010386057F82C0C40F0806047F80A
:102420002C0CFEF709F9044657F82C0C000107D4D0
:10243000FEF702F9001B0328F6D3032001B0F0BD1C
:10244000002001B0F0BD0000F0B581B044F22C478F
:10245000C5F6020757F8042C02F00302032A02D142
:10246000012001B0F0BD054657F82C0C0C4620F0B9
:10247000805047F82C0CFEF7DFF8064657F82C0C76
:10248000800005D5FEF7D8F8801B0228F6D964E055
:1024900057F8040CEE6895E80E0020F07C7040EAD6
:1024A0000150A2F101014FF47E4247F8040C02EB07
:1024B00043224FF0FE436FF35F2192B202EB010023
:1024C0004FF4FE012A6901EB064101F4FE0103EB22
:1024D0000262084402F0FE41084478613868696984
:1024E00020F4406040EA010038603868A96920F4AF
:1024F000007040EA0100386038684FF6F87120F447
:1025000080703860B869EA6920EA010040EAC200D8
:10251000B861386840F4807038602CB1012C38689C
:1025200006D140F4000005E0386840F4800001E086
:1025300040F08070386057F82C0C40F0805047F81D
:102540002C0CFEF779F8044657F82C0C800007D4C1
:10255000FEF772F8001B0328F6D3032001B0F0BD8C
:10256000002001B0F0BD0000704700000000000036
:10257000B0B501380024B4EB106F01D00120B0BD1C
:102580004EF210050F21CEF2000568604FF0FF30CB
:1025900000F0DEFCAC60072028602046B0BD0000E3
:1025A00080B5FEF751F880BDB0B59CB044F6180474
:1025B00009A84C21C5F60204FDF7D4FE022000252F
:1025C000CDE90755CDE90555CDE90355CDE90155CF
:1025D000FEF7D2F840F22C400095C5F600000168E5
:1025E00021F001010160006800F001000090206806
:1025F00040F440402060206800F440400090009883
:1026000020688004FCD5212009904FF480300A9086
:1026100001200F9002200521CDE912001491A02184
:10262000CDE91510CDE9170009A808241994002553
:10263000CDE91A55FFF7ACF8A0B93F20019003206F
:102640004FF48061CDE9020504944020CDE90500F6
:10265000CDE9071001A80221FEF79EFE002804BF65
:102660001CB0B0BDFDF7F0FE80B54EF6885C42F2BE
:10267000000ECEF2000CC5F2002EDCF8001041F482
:102680007001CCF80010DEF8001001F00F010629EF
:1026900006D8DEF80010072262F30301CEF800101E
:1026A00044F200414EF67F53C5F60201CEF6F62302
:1026B0000A6842F001020A6000220A6108681840B4
:1026C0000860DEF80000000706D5DEF800000723EA
:1026D00063F30300CEF8000040F200208A61CA6173
:1026E000C0F202200A6288620020C0F2FF10C862B5
:1026F00040F28020C0F2011008634A638863CA6315
:1027000008644A64086820F48020086041F20000F0
:102710000A66C5F600400068B2EB507F05D148F26A
:1027200008100121C5F20010016044F2000043F2DC
:10273000D201C5F2002001604FF000604CF8800C1F
:1027400080BD00000000000010B5416E01B30168BB
:1027500044F6EE6CC0F6000C44F6F66E8A68C0F6DD
:10276000000EC2F3426289684C0F1CF802301EF85A
:1027700002101A011EF80430B2FBF1F11CF804201B
:10278000A0F868101201B2FBF3F2A0F86A2010BDA5
:102790000121A0F86A10A0F8681010BD0000000028
:1027A000816ACA070CD18A0715D44A071ED40A07C2
:1027B00027D4CA0630D48A0639D44A0655D541E012
:1027C0000268D0F82CC0536823F4003343EA0C03AA
:1027D00053608A07E9D50268D0F830C0536823F403
:1027E000803343EA0C0353604A07E0D50268D0F80F
:1027F00034C0536823F4802343EA0C0353600A0770
:10280000D7D50268D0F838C0536823F4004343EAB0
:102810000C035360CA06CED50268D0F83CC093685A
:1028200023F4805343EA0C0393608A06C5D50268FB
:10283000D0F840C0936823F4005343EA0C0393603C
:102840004A0612D50268D0F844C0BCF5801F536810
:1028500023F4801343EA0C03536006D1536823F436
:10286000C00C836C43EA0C035360090658BF7047E1
:102870000168C06C4A6822F4002210434860704727
:10288000B0B582B004460020C4F88800FDF7D4FE3D
:1028900021680546096809070AD54FF4001100228E
:1028A0006FF07E40009020462B4600F0D9FA70B9B8
:1028B0002068006840070DD54FF4800100226FF0BA
:1028C0007E40009020462B4600F0CAFA10B103204B
:1028D00002B0B0BD2020C4F88000C4F884000020FD
:1028E00084F87C0002B0B0BDF0B583B00446036844
:1028F000806846F6F316D4E9031210436269104368
:10290000E2691043626E1F68CCF6FF76104307EA57
:1029100006021043186058684FF2FF4720F44052F7
:1029200040F6004011435960C5F60000A16983429A
:10293000C1F2FF171CBF226A11439A6847F2FF7663
:102940003A40C4F2000611439960DA6A44F25441F5
:1029500022F00F02676AC5F602013A43B342DA6217
:102960004FF0800225DD40F6FF77C4F20107BB423D
:102970003FDD834200F0718041F20047C4F201075D
:10298000BB4200F0758041F20007C4F20107BB4270
:1029900040F0A5800A68C2F3C203052B00F29680BE
:1029A0000122DFE813F09C00910095009700990048
:1029B0009B0044F6FF37C4F20007BB4233DC44F20D
:1029C0000047C4F20007BB4200F05D8044F60007F8
:1029D000C4F20007BB4240F082800A6802F007039D
:1029E000052B00F273800022DFE803F0796E727429
:1029F000767847F60007C4F20007BB4200F04E802D
:102A000047F60047C4F20007BB4240F068800A68FE
:102A100002F00703052B00F259800022DFE803F0E3
:102A20005F54585A5C5E44F60047C4F20007BB424C
:102A300000F03F8045F20007C4F20007BB4240F0BF
:102A40004E800A6802F00703052B00F23F80002247
:102A5000DFE803F0453A3E4042444A6802F007038B
:102A6000052B33D80222DFE803F03A2F333537390C
:102A70000A68C2F3C203052B28D80122DFE803F05D
:102A80002F24282A2C2E0A6802F00703052B1DD8B4
:102A90000022DFE803F024191D1F21230A6802F039
:102AA0000703052B12D80022DFE803F0190E1214D9
:102AB00016180A6802F00703052B07D80022DFE882
:102AC00003F00E0307090B0D042208E0802206E044
:102AD000082204E0102202E0202200E040222368C5
:102AE000834240F60010C0F23D0000F05380E369DD
:102AF000B3F5004F40F07880402A00F21A8100259B
:102B0000DFE812F041001201170117011B01170144
:102B1000170117011F0117011701170117011701ED
:102B200017011701260117011701170117011701D6
:102B300017011701170117011701170117011701D5
:102B400017011701340117011701170117011701A8
:102B500017011701170117011701170117011701B5
:102B600017011701170117011701170117011701A5
:102B70001701170117011701170117011701170195
:102B80001701170131010025FEF756FD002840F01E
:102B9000EF8040E1931E1E2B00F274800027DFE8D7
:102BA00013F01F0077007A007700770077007E002F
:102BB0007700770077007700770077007700B8001C
:102BC000770077007700770077007700770077004D
:102BD0007700770077007700770077007700830031
:102BE0000027FDF7F9FD5FE0402A00F2E1800025B3
:102BF000DFE812F04100D900DE00DE00E200DE0076
:102C0000DE00DE00E600DE00DE00DE00DE00DE00CC
:102C1000DE00DE00ED00DE00DE00DE00DE00DE00B5
:102C2000DE00DE00DE00DE00DE00DE00DE00DE00B4
:102C3000DE00DE00FB00DE00DE00DE00DE00DE0087
:102C4000DE00DE00DE00DE00DE00DE00DE00DE0094
:102C5000DE00DE00DE00DE00DE00DE00DE00DE0084
:102C6000DE00DE00DE00DE00DE00DE00DE00DE0074
:102C7000DE00DE00F8000025FEF7DEFC002840F054
:102C8000B580C8E0402A03D14FF4004000270BE094
:102C90000020012708E06846FDF7B2FD02E0684623
:102CA000FDF742FE0027019878B3616A44F624627A
:102CB000C0F600026668012532F8112006EB4603D3
:102CC000B0FBF2F19942C0F0A6803303994200F2C2
:102CD000A28000210023FDF7FBFA0902002341EA4C
:102CE00010613246000210EB560041F10001FDF781
:102CF000EFFA4FF6FF42A0F54071C0F20F02914289
:102D000005D821683D46C86085E03D4683E0012541
:102D100081E051F8540C800649F20000C0F2D03036
:102D200000F182800027BFE70025FEF799FCF8B983
:102D300071E000200125D8B96DE06846FDF760FD1F
:102D400002E06846FDF7F0FD0025019880B962E0D9
:102D500051F8540C800649F20000C0F2D0306AD419
:102D6000002528B957E04FF400400025002852D034
:102D7000616A44F62462C0F6000232F811106268FB
:102D8000B0FBF1F0510801EB4000B0FBF2F14FF65F
:102D9000F070084005D0C1F3420122680843D060BA
:102DA00039E0012537E00025FEF75AFCF0B932E0A2
:102DB00000200125D0B92EE06846FDF721FD02E094
:102DC0006846FDF7B1FD0025019878B923E051F878
:102DD000540C800649F20000C0F2D03035D40025F2
:102DE00020B918E04FF400400025A0B1616A44F614
:102DF0002462C0F6000232F811106268B0FBF1F0F4
:102E000000EB5200B0FBF2F080B2102802D3216830
:102E1000C86000E001254FF00110A0660020C4E961
:102E20001B00284603B0F0BD51F8541C0027C1F325
:102E3000C101C84038E751F8541C0025C1F3C10155
:102E4000C84000287FF494AFE5E751F8541C0025F2
:102E5000C1F3C101C8400028C8D1DCE70000000070
:102E60002DE9F04381B004460068C0690840401A6B
:102E7000B0FA80F04009904237D1DDF820800D464D
:102E80001646994608F1010709E000BF2068C069AD
:102E90002840401BB0FA80F04009B04225D1002FF5
:102EA000F4D0FDF7C9FB2168B8F1000F0A6820D003
:102EB000A0EB090040451CD8500744BFC8695FEA31
:102EC0000050E3D54FF400600862086820F4D07029
:102ED0000860886820F0010088602020C4F8800025
:102EE000C4F88400C4F888000FE0002001B0BDE8F9
:102EF000F08322F4D0700860886820F001008860B8
:102F00002020C4F88000C4F88400002084F87C00ED
:102F1000032001B0BDE8F083FEE7000000000000E0
:102F2000002848BF70474EF2001300F01F0140090F
:102F3000CEF20003012202FA01F143F8201070479B
:102F40004EF60C50CEF200000068C0F3022070472D
:102F50004EF6145300F00F02CEF20003B0F1FF3F23
:102F60001A4400F16043C8BF03F5644208011070C1
:102F700070470000000000004EF60C514FF6FF03B2
:102F8000CEF200010A681A4060F30A2242F0806023
:102F900040F0FD7008607047F0B585B00446407899
:102FA000A78822281BD00D46212826D0202835D1DD
:102FB000E288296803AD2846FDF7BBF9FCB201AEF3
:102FC0002046314600F03CFC072230462946FDF7FA
:102FD000D4F900B303A9204600F052FC1BE060883E
:102FE000FDB200F00101C0F34004284600F040FCAF
:102FF0002846214600F048FC0DE0F8B203A9164629
:1030000000F01EFC28680399DDF80F20C0F80320AB
:10301000016007203060002005B0F0BD06A001F07F
:1030200095FC617808A001F091FC11A001F08EFCE4
:103030004FF0FF3005B0F0BD1B5B33336D5B572F96
:103040005553425D20000000556E68616E646C65EA
:10305000642043444320436C617373206252657162
:1030600075657374203078253032780D0A000000C1
:103070001B5B306D0000000010B541F22420C2F24D
:1030800000400078002808BF10BD41F2252440F61A
:103090002401C2F200440120C2F200414FF4006258
:1030A0002070812000F038FE20780028FCD110BD6F
:1030B00080B540F6240043F23901C2F2004043F2E9
:1030C0003562C3F63702018143F23121C3F2334145
:1030D000C0E900120A3040F2F6716122FDF73BF9B7
:1030E00044F63C60C0F6000000F03EFC41F2B42023
:1030F000C2F2004000F0B0FB00F05AFB41F2D420D5
:10310000C2F2004000F0A8FB00F052FB40F21400B5
:10311000C2F2004000F034FB40F20C00C2F200406A
:1031200000F02EFB01F05CF880BD00000000000004
:1031300010B50C24C4F20804206840F04000206060
:1031400000F0D2F8E06A40F48030E06210BD000088
:1031500040F610300021C4F208000160016841F41B
:1031600000210160016841F018010160016841F02F
:10317000C04101607047000003310022B2EB910FA3
:1031800008BF704741F2000289080438C4F20802FF
:103190000139136840F8043FFAD17047000000007D
:1031A00003320023B3EB920F08BF704741F2000CCB
:1031B000920800030439C4F2080C00BF013A51F828
:1031C000043F40F80C30F9D17047000000000000C7
:1031D00081B010200021C4F208000091102101608C
:1031E00040F64051C0F20301009A013200928A4237
:1031F00005D80268D206F7D4002001B070474FF01E
:10320000FF3001B07047000081B010200021C4F2EF
:10321000080000914FF48461016040F64051C0F213
:10322000030100BF009A013200928A4202D802686C
:103230009206F7D401B0704740F60800C4F20800C7
:10324000006800F006010F2041F00402062A08BFC2
:103250000320002908BF0846704700000000000056
:103260001420C4F20800016840680840704700005C
:1032700040F6100C00F00701C4F2080C0CEB4010F3
:10328000DCF80020DCF8243023FA01F1D0F8F80053
:10329000C901C9B211430840704700000000000096
:1032A00040F61800C4F2080001684068084080B287
:1032B000704700000000000040F61401C4F208014D
:1032C00001EB4010D0F8F402096808407047000094
:1032D00040F61800C4F20800016840680840000C7D
:1032E000704700000000000081B0102040F64051FF
:1032F000C4F20800C0F2030100220092009A0132D9
:1033000000928A4212D80268B2F1FF3FF6DC002236
:103310000092026842F00102026000BF009A01328E
:1033200000928A4202D80268D207F7D101B07047F2
:103330000C20C4F20800016821F0C041016001685E
:1033400041F080410160704703290DD145F24031C1
:1033500043F20052CFF62771C0F20C0201449142B1
:103360000FD24FF4705001E04FF410500C21C4F212
:1033700008010A6822F470520A600A681043086063
:10338000704741F6406144F24022CFF61B71C0F213
:103390000F020144914202D24FF46050E6E7A0F5DB
:1033A000740144F68072A1F51051C0F212029142EC
:1033B00002D24FF45050D9E7A0F183714DF2206250
:1033C000A1F5E741C0F21302914202D24FF44050FE
:1033D000CCE74BF260614EF26032CFF6E561C0F2AD
:1033E00016020144914202D24FF43050BEE74DF232
:1033F000003147F24072CFF6CE61C0F21B020144A9
:10340000914202D24FF42050B0E745F6C03149F264
:10341000C012CFF6B361C0F221020144914202D240
:103420004FF41050A2E7A0F1B77147F22052A1F576
:103430005851C0F23802914202D24FF4005095E741
:1034400045F2E04149F6E042CFF65961C0F241024F
:1034500001444FF4C050914238BF4FF4E05085E72B
:1034600010B540F2280CC4F2080C5CF8042CD0B162
:10347000DCF80030B0F1010E02EB13430CD0002059
:10348000002200BF0CEB80000132D0F8DC40D0B24B
:10349000864503EB1443F5D80CEB8E0043EA01415B
:1034A000C0F8DC1010BD42EA0140CCF8000010BDAD
:1034B0002DE9F04F81B0814600EB800041F26011B0
:1034C000C2F2004101EB800A3AF8080F5746554610
:1034D0000AF1080457F80C1F55F8102F891A814279
:1034E00088BF0146C81C40F63401C4F208014FEA07
:1034F000900B01EB491000F1CC0600BFB06980B21F
:10350000584501D2002006E02868396888424FF00B
:10351000000038BF012000283868296813D0BAF8A5
:103520000020A0EB01084846904588BF90462168DE
:103530001FFA88F2FFF734FE2068404420602868B4
:1035400040442860DAE788420CD840F6340209F09B
:103550000F00C4F20802012101FA00F0116821EA0B
:103560000000106001B0BDE8F08F00000000000016
:1035700080B582B0019041F22820C2F2004001A93A
:1035800001224FF47A73FEF753FC019802B080BD1C
:1035900041F22400C2F2004090F81D01002818BF3B
:1035A0000120704700000000FDF75EF8FEF7FCFF09
:1035B000FEF7B2FCFEF7CCFCFFF77AFD00F0CCF88A
:1035C0000028FBD0FFF758FD4FF4FA70FCF744FFDA
:1035D000F8E700000000000070B541F2601040F60E
:1035E00004050026C2F20040C021C4F20805C4F25E
:1035F0000806FCF7B7FE00F063F8286840F0020008
:103600002860B06820F00100B060FFF791FDFFF77F
:103610008FFE6FF003000021321804303828C2F802
:103620000811F9D1B06B002420F40010B0633068A9
:1036300040F040003060306840F08000306040F67C
:103640000060C4F208000460D6F80008C6F800085C
:10365000D6F8000840F00300C6F80008FFF7D4FDD4
:10366000FFF7B6FDEC606FF080412C61AC61B46196
:10367000044671614FF44321B1611021B06940F0FB
:103680001000B061802070620020FFF7E9FE012089
:103690002021FFF7E5FE02202021FFF7E1FE0320B5
:1036A0002021FFF7DDFEB06840F00100B06028681F
:1036B00020F002002860204670BD000000000000DD
:1036C000B0B5B6B002ACBC21204600253595CDE999
:1036D0003355CDE93155FCF745FE4FF4802002907B
:1036E0004FF4401023902046FDF7B2F988BBFDF758
:1036F00067F844F2D84431A9C5F60204A06840F046
:103700000100A060A06800F00100019001984FF452
:10371000C05031900220CDE93205032034900A20B8
:1037200035900020C5F60200FCF7AAFE20680021B3
:1037300040F0006020602068002200F000600190EE
:1037400001986520FDF704F86520FCF7FDFF36B011
:10375000B0BDFCF779FE000041F22400C2F2004047
:1037600090F81C017047000041F2BC31C2F20041E8
:103770000A4609680029FBD11060002101607047EA
:10378000017841F2FC2C41F25C33C2F2004C0A0693
:10379000C2F2004301F07F0258BF634602EB4202CF
:1037A000406803EB820C03F82210CCF80800704745
:1037B00010B541F22404C2F2004494F81F110177BD
:1037C000FFF7D2FF94F81F01013084F81F0110BDEC
:1037D00010B50AA00C4601F0B9F844B114F03F004E
:1037E00005D181200021002200F096FA10BD41F29F
:1037F00025200021C2F20040017010BD6163747584
:10380000616C20696E206C656E3A25640D0A0000BB
:1038100080B506A001F09AF840F224010220C2F21D
:1038200000414FF4006200F007FA80BD61637475D7
:10383000616C206F7574206C656E3A25640D0A000A
:1038400048F28040C0F21E00086008208871002005
:10385000888070470000000042F69971C0F60001B0
:1038600041600021C0E902110161704700000000C1
:1038700041F22420C2F200400170704700000000B5
:1038800070470000000000007047000000000000CA
:1038900070B541F2BC32C2F200421668002E08BF79
:1038A00070BD0C46054601E0366836B13269002A23
:1038B000FAD0284621469047F6E770BD0000000088
:1038C000F0B581B041F22404C2F20044207800F047
:1038D000030001281CD0022836D141F2BC30C2F2CC
:1038E0000040076887B304F1080504F1100603E0FF
:1038F000012159B13F683FB3BB68002BF8D0204687
:1039000029463246984700210029F3D101B0F0BD85
:1039100041F2BC30C2F200400768AFB104F10805C3
:1039200004F110067B684BB1397F2279914205D1B1
:103930002046294632469847002100E0012100290F
:10394000E4D03F68002FEDD14FF0FF3001B0F0BD63
:1039500080B540F224010220C2F200414FF400621F
:1039600000F06AF980BD0000B0B541F224050446BC
:10397000C2F200454FF490712846FCF7F3FC41F287
:103980005C318022C2F20041002085F81F010A70DC
:1039900043F62162C0F600028A6041F2FC21AC616C
:1039A000C2F20041087043F67960C0F600008860FA
:1039B000B0BD00000000000041B200F07F0200290D
:1039C00040F60011C4F208014FEA421019D401F583
:1039D000007102EB820241F26013C2F2004303EB7A
:1039E0008202435823F40013435092F85A2002F005
:1039F000FE02022A1AD1425842F080524250002060
:103A0000704702EB820241F26013C2F2004303EB03
:103A10008202435823F400134350927A02F0FE02CC
:103A2000022A03D10A5842F080520A5000207047FF
:103A300080B542B247F6000C00F07F0340F61C0E42
:103A4000CEF6334C002AC4F2080E4FEA431212D4C9
:103A50000EEB02010CF1707C01F53972D1F8E40231
:103A600040F00060C1F8E40203F007004FF4803139
:103A700001FA00F30BE0724403F00701012352F84E
:103A8000E40F40F00060106003FA01F083B2DEF84A
:103A900020009843CEF82000DEF800009843CEF8CE
:103AA00000001168002001EA0C01116080BD0000D7
:103AB00010B50178044601F07F0004280CD33BA028
:103AC00000F044FF21783DA000F040FF41A000F04D
:103AD0003DFF4FF0FF3010BD49B241F260130029A5
:103AE00000EB8001628840F61C0E48F2000CC2F226
:103AF0000043C4F2080EC1F2000C03EB810121D493
:103B00006478A1F85820012381F85C304FF48033A9
:103B100081F85A4003FA00F1DEF8003041EA03016F
:103B2000CEF8001060B30EEB40106FF3DF22D0F838
:103B3000E41241EA8441114341EA0C01C0F8E41265
:103B4000002010BD637801240A818B720C7304FA83
:103B500000F189B2DEF800406FF3DF2221430EEB63
:103B60004014CEF8001042EA8050D4F8E41040EA45
:103B70008340084340EA0C00C4F8E400002010BD74
:103B8000A2F108014FEAF1010729CCD8DFE801F0E2
:103B9000050704090404040BC5E70322C3E7022256
:103BA000C1E70122BFE70022BDE700BF1B5B333145
:103BB0006D5B452F5553425D20000000457020612C
:103BC000646472202564206F766572666C6F770D71
:103BD0000A0000001B5B306D0000000000000000C8
:103BE00041B200F07F0040F600120029C4F2080242
:103BF0004FEA40130DD41A44002802F50071D2F8A0
:103C0000000211D000280FD4086820F0804008601E
:103C10000AE0002803EB0201985805D000285EBF97
:103C2000086820F0804008600A68002042F4001212
:103C30000A6070470000000070B521B9002A1CBF5F
:103C40004FF0FF3070BD00F07F0341F26015C2F20B
:103C5000004503EB830005EB800E9EF85C0068B323
:103C6000744640F6080CC4F2080C002044F8642F97
:103C70000EF1580544F8041C0CEB4311606001F58B
:103C80003E70D1F808636FF3DC46C1F80863D1F8E1
:103C900008636FF31206C1F8086392B12988CBB1AB
:103CA0005318013BB3FBF1F10023C1F6F87303EAAB
:103CB000C14103696FF3DF42194312E06FF0010065
:103CC00070BD016941F40021016129880269114335
:103CD000016119E0914238BF0A462260016941F44E
:103CE000002101610169114301619EF85A10012907
:103CF0000AD1DCF80010C9054FF0805158BF4FF0D1
:103D00000051026811430160016841F00441016003
:103D1000002070BD0000000070B521B9002A1CBF52
:103D20004FF0FF3070BD00F07F0641F26013C2F229
:103D3000004306EB860003EB8004207B70B340F663
:103D4000340C2346C4F2080C43F8142F0CEB461035
:103D500043F8041C4FF00001596000F1CC01D0F889
:103D6000DC506FF3DC45C0F8DC50D0F8DC506FF36A
:103D70001205C0F8DC50A2B12089E6B113184FF04B
:103D8000010E013BB3FBF0F00023C1F6F87303EA28
:103D9000C0400B696FF3DF42184314E06FF001007D
:103DA00070BD086940F400200861086840F00440D4
:103DB0000860002070BD904238BF02461A609646E7
:103DC000086940F400200861086910430861A07A7E
:103DD000012812D15CF82C0CC0054FF0805058BF60
:103DE0004FF000500A6810430860086920F0C04096
:103DF0000861086940F0005008610868BEF1000FD2
:103E000040F004400860D4D006F00F00012101FA10
:103E100000F0DCF800100843CCF80000002070BD72
:103E200080B541F224030846C2F20043D3E90212EE
:103E30000144121AC3E9021203D08020FFF76CFF7D
:103E400080BD187D38B10020187580200021002227
:103E5000FFF762FF80BDD88850B193F90000B0F140
:103E6000FF3FC8BF80BD002000210022FFF7E4FE15
:103E700080BD00000000000080B5002908BF80BDA3
:103E800041F224030846C2F20043D3E9021201447E
:103E9000121AC3E9021203D00020FFF7CDFE80BD45
:103EA00003F11C00986000F0A7FA28B180200021DF
:103EB0000022FFF731FF80BD8020FFF791FE80BD1B
:103EC00010B541F224040168C2F200444068606009
:103ED000E288216048B2B2F5807F14D9002812D45C
:103EE00044F65B70C0F6000000F030FD23A000F047
:103EF0007FFF44F67770C0F6000000F027FD8020B9
:103F0000FFF76EFE10BD04F11C01C4E9021222612C
:103F10004FF0000323752AB1002803D40020FFF7D7
:103F20008BFE10BD00F068FA0028E8D0E288206916
:103F3000904238BF0246B2F5807FE2600FD944F666
:103F40005B70C0F6000000F001FD0CA000F050FF17
:103F500044F67770C0F6000000F0F8FC10BDA168D0
:103F60008020FFF7D9FEE1882069884204D210F052
:103F70003F0004BF0120207510BD00BF5265717560
:103F80006573742062756666657220746F6F207346
:103F90006D616C6C0D00000080B500F07F0241F295
:103FA0005C33C2F2004302EB420203EB82029268EE
:103FB000002A08BF80BD904780BD000000000000BF
:103FC00080B500F07F0241F2FC23C2F2004302EB15
:103FD000420203EB82029268002A08BF80BD90472C
:103FE00080BD000000000000072818BF704780B5A2
:103FF000FFF7AEFCBDE88040704700000000000005
:10400000B0B582B00020002500F042F941F2240052
:104010006C46C2F20040A0F81C518020C0F2400063
:1040200000902046FFF744FD20468DF80050FFF732
:104030003FFD01200021FFF72BFC0120FFF7D4FFFB
:1040400002B0B0BD0000000070B50321C4B2B1EBF6
:10405000102F08BFEE2C25D0050A291F022946D3B0
:104060000F2D41D144F66970C0F6000000F06EFCDF
:104070003FA000F0BDFE44F67770C0F6000000F0EF
:1040800065FC41F22020C2F2004004687CB341F29A
:104090002405C2F20045D4E90012A868FCF749F9EA
:1040A00060681EE044F66970C0F6000000F04EFC47
:1040B00041A000F09DFE44F67770C0F6000000F0CD
:1040C00045FC41F2F420C2F2004004687CB141F2A8
:1040D00024052279C2F200452168A868FCF729F975
:1040E00020792861012070BD400A022801D90020F2
:1040F00070BD41F2240CC2F2004CDCF818100A78B2
:104100008AB1002304E000BF88188A5C014632B1FE
:1041100048788542F8D1A34213D00133F4E7002652
:10412000014616B910E0002676B1072D14BF022D06
:104130004A88DCF80800CCF81020FCF7FAF8304682
:1041400070BD0126002EF0D144F65B70C0F6000071
:1041500000F0FCFB0DA02946224600F0F7FB44F6D8
:104160007770C0F6000000F0F1FB304670BD00BF74
:104170007265616420424F53206465736372697095
:10418000746F7220737472696E670D006465736377
:10419000726970746F72203C747970653A25782C5E
:1041A000696E6465783A25783E206E6F7420666F7C
:1041B000756E64210D0A000072656164204D532004
:1041C0004F5320322E302064657363726970746FB0
:1041D0007220737472696E670D00000000000000A9
:1041E00080B5FFF7F9F980BD80B582B044F66970FB
:1041F000C0F6000000F0AAFB41F22400C2F2004029
:104200000178B0F804C04278B0F806E0438844F67C
:10421000FE60C0F60000CDF800C0CDF804E000F06C
:1042200095FB44F67770C0F6000000F08FFB02B0FB
:1042300080BD000000000000B0B58478C57844F669
:104240006970C0F6000000F081FB05F0030208A0D1
:10425000214600F07BFB44F67770C0F6000000F0CA
:1042600075FB2046FFF7E4FBB0FA80F04009B0BDD3
:10427000436C6F73652065703A3078253032782052
:10428000747970653A25750D0A0000000000000081
:1042900040F60001C4F208010A6822F4FE620A60D6
:1042A00000F07F020B68002043EA02120A607047A8
:1042B000F0B581B041F22401C2F200418C6921784D
:1042C00001B30546FF260020FF2704E0E7782178A8
:1042D000625C0C44BAB1617805290BD00429F5D091
:1042E0000229F4D16679711BB1FA81F149090843B9
:1042F000EDE700BF002F08BFAE42E8D1204600F036
:1043000007F8E4E7002000F0010001B0F0BD000074
:1043100080B582B081788288C0788DF800106FF304
:10432000DF22ADF8022000F003008DF8010044F612
:104330006970C0F6000000F009FB9DF800100AA0AB
:104340009DF80120BDF8023000F000FB44F67770C4
:10435000C0F6000000F0FAFA6846FFF7A9FBB0FAD1
:1043600080F0400902B080BD4F70656E2065703AE4
:1043700030782530327820747970653A2575206D53
:1043800070733A25750D0A002DE9F04381B041F2B2
:104390002402C2F2004295692A781AB388468146FF
:1043A0000024FF26FF2705E0FFF7B2FF2878295CED
:1043B0000544C1B1687805280CD00428F6D1AE7840
:1043C000EF7886EA090087EA0801084308BF2C460F
:1043D000ECE700BF4E45E9D128464745E4D0FFF75A
:1043E0002BFFE3E7002408202146FFF751FA01B034
:1043F000BDE8F0830000000010B541F22404C2F2D1
:104400000044207800F0600040281ED0202829D0E9
:1044100078BB00F081F8B0F1FF3FC4BF012010BDB0
:104420006078062827D16088B0F5C06F23D131A00D
:1044300000F08CFA33A000F0DBFC44F67770C0F695
:10444000000000F083FA002010BD00F0B1F9B0F1D7
:10445000FF3F0CDC44F65B70C0F6000000F076FA1B
:1044600012A017E0FFF72CFAB0F1FF3F0BDD01209F
:1044700010BD002010BD44F65B70C0F6000000F0D7
:1044800065FA16A006E044F65B70C0F6000000F086
:104490005DFA0CA000F0ACFC44F67770C0F60000AA
:1044A00000F054FAFFF7A0FE002010BD76656E64A0
:1044B0006F722072657175657374206572726F72A8
:1044C0000D000000636C6173732072657175657314
:1044D00074206572726F720D000000007374616E5B
:1044E000646172642072657175657374206572729F
:1044F0006F720D001B5B33336D5B572F5553425D5D
:104500002000000049676E6F7265204451442069A5
:104510006E2066730D00000080B541F22400C2F2E7
:104520000040007800F00300022805D0012806D0E2
:1045300058B900F00DF804E000F05EF801E000F07A
:10454000C3F880F00100404280BD4FF0FF3080BDD5
:10455000F0B581B041F224060024C2F20046717821
:10456000092943D87588DFE801F02D05410541365A
:104570003D411117012D05D10A20032908BF09204B
:10458000FFF732FD0020306101242FE006F21D10FC
:10459000B0600124346129E0E8B2FFF789FE4FF0F2
:1045A00000074FF0000458B10720002186F81D5184
:1045B000012486F81C41FFF76BF90720FFF714FD73
:1045C000376113E0B068002101240170B0684170C8
:1045D000022030610AE0E8B2FFF75AFE00203061A5
:1045E000012403E02846FFF72FFD0446204601B0D2
:1045F000F0BD00000000000070B541F22405C2F2D9
:1046000000452C79FEF7C4FF70B1687803280DD0FF
:10461000012813D040B9A86800210170A868417032
:1046200002202861012070BD002070BD688800262E
:1046300000284FF000001BD02E6170BD688810B1BB
:104640000020286170BD44F65B70C0F6000000F0E9
:104650007DF917A0214600F079F944F67770C0F68D
:10466000000000F073F92046FFF7A6F9012070BDA5
:1046700044F65B70C0F6000000F068F907A0214620
:1046800000F064F944F67770C0F6000000F05EF9BF
:104690002046FFF7A5FA01202E6170BD65703A250E
:1046A000303278207365742068616C740D0A0000E4
:1046B00065703A2530327820636C656172206861DC
:1046C0006C740D0A0000000070B541F22404C2F2BF
:1046D00000446688A588FEF75BFF002841D061781A
:1046E00000200B294CD8DFE801F0064B4B4B4B4B1D
:1046F0000D4B4B4B3E44A06800210170A0684170F7
:1047000002203BE026F0FF00B0F5085F29D144F617
:104710006970C0F6000000F019F91DA000F068FBF8
:1047200044F67770C0F6000000F010F941F2BC309A
:10473000C2F20040066826B3EDB200BF307FA84247
:1047400008D1A068D6E90512FBF7F3FDB069206136
:10475000012000E00020A8B93668002EEED100202C
:1047600010E0002070BDA0680021017001202061D0
:1047700070BDE8B2F1B2FFF707FE00202061012012
:1047800070BD0020002814BF0120002070BD00BFB4
:104790007265616420686964207265706F7274204C
:1047A00064657363726970746F720D0000000000BD
:1047B000F0B581B041F2F425C2F20045286818B383
:1047C00041F224044079C2F200446178814243D12D
:1047D000A08805286FD004285AD144F66970C0F625
:1047E000000000F0B3F848A000F002FB44F6777038
:1047F000C0F6000000F0AAF82D68A068AA89A96890
:10480000FBF797FDA8896CE041F2F825C2F200455C
:10481000286808B341F224048079C2F20044617828
:10482000814219D1A088072832D144F66970C0F6B8
:10483000000000F08BF83EA000F0DAFA44F6777042
:10484000C0F6000000F082F82D68A068AA882968E8
:10485000FBF76FFDA88844E041F2BC30C2F2004093
:10486000076827B341F22404C2F2004404F10805AA
:1048700004F1100602E000BF3F68C7B1FB68002BDF
:10488000FAD020462946324698470028F4D129E03C
:1048900044F65B70C0F6000000F058F81EA000F06F
:1048A000A7FA44F67770C0F6000000F04FF84FF01A
:1048B000FF3001B0F0BD44F66970C0F6000000F0B2
:1048C00045F80AA000F094FA44F67770C0F60000AC
:1048D00000F03CF82D68A068AA8A2969FBF729FD39
:1048E000A88A2061002001B0F0BD00BF6765742078
:1048F000436F6D7061742069642070726F706572AF
:10490000746965730D00000067657420436F6D70F6
:1049100061742049440D0000756E6B6E6F776E20D8
:1049200076656E646F7220636F64650D0000000031
:10493000474554204D53204F5320322E302044659C
:104940007363726970746F720D0000000FB4054BD1
:1049500010B503A9044A029800F018F810BC5DF8DD
:1049600014FB0000713500080000002402E008C8B4
:10497000121F08C1002AFAD170477047002001E0D9
:1049800001C1121F002AFBD1704700002DE9FF4F23
:104990008DB00F460546002606E025280BD0DDE940
:1049A0000F1290476D1C761C28780028F5D111B0A5
:1049B0003046BDE8F08F0024A246A1460122EC4912
:1049C00000E0044315F8013F203B02FA03F00842DF
:1049D000F7D128782A2810D06FF02F022878A0F17C
:1049E0003001092914D80AEB8A0102EB410144F095
:1049F000020400EB010A6D1CF0E701CF5FEA000A38
:104A000003D544F40054CAF1000A44F002046D1CBA
:104A100028782E2817D115F8010F44F004042A280D
:104A20000ED06FF02F022878A0F1300109290AD8A2
:104A300009EB890102EB410100EB01096D1CF2E772
:104A400057F8049B6D1C28786C280FD006DC4C2886
:104A500017D068280DD06A2814D104E0742810D02B
:104A60007A280FD10DE044F400140AE044F48014D5
:104A700001E044F440146978814202D104F58014C5
:104A80006D1C6D1C2A786E2A1FD00CDC632A31D075
:104A900004DC002A8BD0582A11D1A3E0642A68D004
:104AA000692A0CD165E0732A2ED004DC6F2A73D0FA
:104AB000702A04D19BE0752A6FD0782A6ED01046F8
:104AC000DDE90F129047761C50E1C4F30250022832
:104AD00006D0032809D0042801CF09D0066045E19B
:104AE00001CFF117C0E9006140E101CF06803DE14F
:104AF00006703BE117F8040B8DF8000000208DF8DC
:104B00000100EB46012003E057F804BB4FF0FF30F3
:104B100061074FF0000102D40DE008F10101884661
:104B200049450FDA8045F8DB1BF808100029F4D15D
:104B300008E008F1010188468142FADB1BF8081001
:104B40000029F6D1DDE90F23AAEB080081462146B2
:104B500000F036F9304400EB080604E0DDE90F12FE
:104B60001BF8010B9047B8F10108F7D221464846DF
:104B7000F7E00A21C4F302534FF0000B0891022B17
:104B800004D001CFC117032B09D00AE0FF1D27F085
:104B90000707F7E8020108E032E01FE020E000B27A
:104BA000C117042B01D140B2C117031E71F10003DC
:104BB00007DA4FF0000CD0EB0C006CEB01012D2359
:104BC00002E0230504D52B238DF82430012303E0D4
:104BD000E30701D02023F7E7984658E00A2110E0C8
:104BE00010210EE010204FF0000B08900CE0102177
:104BF0004FF0000B44F004044FF00809089103E063
:104C000008214FF0000B0891C4F30253022B04D08B
:104C100001CF0021032B06D006E0FF1D27F0070778
:104C2000F7E8020103E080B2042B00D1C0B24FF0DC
:104C3000000823072BD5702A07D0DDF820C08CF0A0
:104C4000100C5CEA0B0C05D00EE040238DF82430EC
:104C5000012308E050EA010306D030238DF8243008
:104C60008DF8252002239846DDF820C08CF0080C32
:104C70005CEA0B0C0BD150EA010301D1630706D5A6
:104C800030238DF824304FF00108A9F10109582A8A
:104C900004D038A20B9208AA0A920BE03AA2F9E7D4
:104CA0005B46089AFBF714FB0B9B9B5C0A9A521E0F
:104CB0000A92137050EA0102F2D10A98ADEB00009B
:104CC00000F1200B600702D524F4803401E04FF09E
:104CD0000109D94502DDA9EB0B0000E0002000EB43
:104CE0000B0141440890AAEB010AE00306D4DDE978
:104CF0000F232146504600F063F806444FF00009A8
:104D000008E009A911F80900DDE90F12904709F13F
:104D10000109761CC145F4DBE0030CD5DDE90F2366
:104D20002146504600F04CF8064404E0DDE90F123D
:104D300030209047761C0899481E08900029F5DC21
:104D400008E00A980A990078491C0A91DDE90F12D7
:104D50009047761CBBF10001ABF1010BF1DC214661
:104D60005046DDE90F2300F019F806446D1C1BE6E0
:104D70000928010030313233343536373839616231
:104D800063646566000000003031323334353637F5
:104D90003839414243444546000000002DE9F041C6
:104DA000044600251E461746880404D405E039460B
:104DB0002020B0476D1C641EF9D52846BDE8F0815F
:104DC0002DE9F041044600251E469046C80301D552
:104DD000302700E02027880404D505E04146384606
:104DE000B0476D1C641EF9D52846BDE8F08100006F
:104DF00010B5044601E0FEF7BBFB14F8010B0449B3
:104E00000028F8D1BDE810400A20FEF7B1BB000031
:104E1000000000240000000001020304010203045A
:104E200006070809010002000400060008000A0045
:104E30000C00100020004000800000011201000260
:104E4000EF020140FFFFFFFF000101020301090221
:104E50004B000201008032080B000202020100092F
:104E600004000001020201020524001001052401D2
:104E7000000104240202052406000107058303083B
:104E8000000A09040100020A0000000705020240AE
:104E900000000705810240000004030904140343D5
:104EA00000680065007200720079005500530042EE
:104EB0000026034300680065007200720079005507
:104EC00000530042002000430044004300200044FF
:104ED0000045004D004F0016033200300032003212
:104EE000003100320033003400350036000001018B
:104EF00001030701000008040204080101015365D1
:104F00007475703A20626D52657175657374547969
:104F10007065203078253032782C206252657175AA
:104F2000657374203078253032782C207756616C88
:104F30007565203078253034782C2077496E64658B
:104F400078203078253034782C20774C656E677463
:104F500068203078253034780D0A001B5B33316DC2
:104F60005B452F5553425D20001B5B33326D5B491F
:104F70002F5553425D20001B5B306D00A04F000891
:104F80000000002420120000F8030008E04F000891
:104F900020120024A80500007C4900080000000041
:104FA000614990D0030090D0038146D137000802B8
:104FB00046113800080102FF1001FF01FF01FF0147
:104FC000FF01FF01FF01FF01FF01FF01FF01FF01E1
:104FD000FF01FF01FF01FF01FF01FF0124000000AD
:040000050800029954
:00000001FF
