:020000040800F2
:1000000030C60024AD020008E120000819200008D5
:10001000D9200008C9040008292F000800000000AA
:100020000000000000000000000000004125000862
:10003000D1040008000000000122000899250008F2
:10004000C7020008C7020008C7020008C70200086C
:10005000C7020008C7020008C7020008C70200085C
:10006000C7020008C7020008C7020008C70200084C
:10007000C7020008C7020008C7020008C70200083C
:10008000C7020008C7020008C7020008C70200082C
:10009000C7020008C7020008C7020008C70200081C
:1000A000C7020008C7020008C7020008C70200080C
:1000B000C7020008C7020008C7020008C7020008FC
:1000C000C7020008C7020008C7020008C7020008EC
:1000D000C7020008C7020008C7020008C7020008DC
:1000E000C7020008C702000800000000C70200089D
:1000F000C7020008C7020008C7020008C7020008BC
:10010000C7020008C7020008C7020008C7020008AB
:10011000C7020008C7020008C7020008C70200089B
:10012000C7020008C7020008C7020008C70200088B
:10013000C7020008C7020008C7020008C70200087B
:1001400000000000000000000000000000000000AF
:10015000C7020008C7020008C7020008C70200085B
:10016000C7020008C7020008C7020008C70200084B
:10017000C702000819210008C7020008000000009B
:10018000C7020008C7020008C7020008C70200082B
:10019000C7020008C7020008C7020008C70200081B
:1001A000C7020008C7020008C7020008C70200080B
:1001B000C7020008C7020008C7020008C7020008FB
:1001C000C7020008C7020008C7020008C7020008EB
:1001D000C7020008C7020008C7020008C7020008DB
:1001E000C7020008C7020008C7020008C7020008CB
:1001F000C7020008C7020008C7020008C7020008BB
:10020000C7020008C7020008C7020008C7020008AA
:10021000C7020008C7020008C7020008C70200089A
:10022000C7020008C7020008C7020008000000005B
:10023000C7020008C702000800000000C70200084B
:10024000C7020008C7020008C7020008C70200086A
:10025000C7020008C7020008C7020008C70200085A
:10026000C7020008C7020008C7020008C70200084A
:10027000C7020008C7020008C7020008000000000B
:10028000C7020008C7020008C702000800000000FB
:1002900000000000C7020008DFF80CD000F0B6F83C
:1002A00000480047B93B000830C600240648804794
:1002B00006480047FEE7FEE7FEE7FEE7FEE7FEE74B
:1002C000FEE7FEE7FEE7FEE7792600089902000850
:1002D0002DE9F05F0546002092469B46884606467B
:1002E000814640241BE0284641464746224600F00E
:1002F0007CF853465A46C01A914110D3114618460D
:10030000224600F063F82D1A67EB01084F4622469B
:100310000120002100F05AF817EB00094E41201E81
:10032000A4F10104DFDC484631462A464346BDE8D5
:10033000F09F40EA01039B0703D009E008C9121FA0
:1003400008C0042AFAD203E011F8013B00F8013B8F
:10035000521EF9D27047D2B201E000F8012B491EBB
:10036000FBD270470022F6E710B513460A46044652
:100370001946FFF7F0FF204610BD10B5044604E013
:100380000B7800F8013B03B1491C521EF8D22046FD
:1003900010BD10B5002200E0521C835C8C5CA342AF
:1003A00001D1002BF8D1D8B2E1B2401A10BD30B55E
:1003B00005460020034600E05B1C934205D2EC5C3E
:1003C000C85C201A01D1002CF6D130BD202A04DBF4
:1003D000203A00FA02F1002070479140C2F1200358
:1003E00020FA03F3194390407047202A04DB203A97
:1003F00021FA02F00021704721FA02F3D040C2F145
:10040000200291400843194670470000064C074DF2
:1004100006E0E06840F0010394E8070098471034D4
:10042000AC42F6D3FFF73CFF10AD000840AD00082A
:1004300030B58C1810F8012B12F00F0301D110F811
:10044000013B120906D110F8012B03E010F8015B03
:1004500001F8015B5B1EF9D101E001F8013B521E7E
:10046000FBD1A142E6D3002030BD00000000000017
:100470002DE9F04385B01C4615460E460746DDE9DA
:100480000C9800F0B5F901208DF8040003208DF8D8
:100490000F0000208DF80D00ADF8100001A80295A6
:1004A0008DF80C408DF813908DF812808DF8057042
:1004B0008DF80E6000F06CF9042000F0A9F905B089
:1004C000BDE8F08300000000FEE70000000000002F
:1004D0007047000000000000EFF3108072B600BF0C
:1004E000FEE70000000000002DE9F04F83B00E6829
:1004F000002E00F0C98000F126420A2302F1FF72AB
:1005000040F2040C4FEAB222019242F20042C5F6D8
:10051000000CC5F602024FF0010B90424FF00005AF
:1005200008BF092300274FF0010800930AE000BF2D
:100530000E68043736FA08F208F1010805F10205E1
:1005400000F0A280A8F1010A0BFA0AF216EA0209E9
:10055000EED04E68122E17D80BFA06F414F0061FD0
:1005600012D00323D0F808E0AB40CC682EEA030396
:10057000AC40234383604368C6F3001423EA0202BD
:1005800004FA0AF31A4342600323C268AB4046F000
:1005900010046FEA030E9A438B68122C03FA05F3DA
:1005A00042EA0302C26012D16FF0030207F01C049A
:1005B00002EA5A020F260244A640136AD1F810B08C
:1005C000B3430BFA04F44FF0010B234313620268A8
:1005D0004B6803F0030402EA0E02AC40DB0042EA7F
:1005E00004020260A4D544F2F443C5F602031A687B
:1005F00042F002021A601A6807F00C0302F00202CD
:100600000292029A2AF0030240F2084A019C009EDC
:10061000C5F6000A092C38BF26460F2452F80AE016
:100620009C402EEA040406FA03F3234342F80A30FE
:10063000DCF87C204B6842EA0906DC0358BF22EA5A
:1006400009069C034FF0B04ECCF87C60DCF88020AB
:1006500042EA090658BF22EA0906DC02CCF88060AB
:10066000DEF8002042EA090658BF22EA09069B028A
:10067000CEF80060DCF8002042EA090658BF22EA02
:100680000906CCF8006053E703B0BDE8F08F000026
:1006900041F20000C5F600400068000C7047000001
:1006A0004AF2FC40C2F200400068704700000000BF
:1006B00040F214004AF2FC41C2F20040C2F2004192
:1006C00000780A68104408607047000000000000CD
:1006D00080B5032000F0D0F801F05AF844F2184138
:1006E0004AF29033C5F60201C0F600030A68C2F36D
:1006F0000322096801F00F019A5C595C02F01F02A5
:10070000D04040F21002C2F2004201F01F0120FA74
:1007100001F1116040F20C01C2F2004108600020BA
:1007200000F00AF800281CBF012080BD00F080F80E
:10073000002080BD00000000B0B540F21401C2F2FC
:100740000041097801B3044640F20C00C2F20040B7
:100750004FF47A72B2FBF1F10068B0FBF1F001F0F6
:10076000FFFA0F2C4FF001050CD858B94FF0FF30AD
:1007700000222146002500F06FF840F21800C2F276
:10078000004004602846B0BD0120B0BD000000005C
:10079000B0B502784EF69C5CCEF2000C43784CF873
:1007A000043CF2B14368CCF80030037BC17A90F886
:1007B0000AE0457B447A42EA0372837B42EA0161A4
:1007C000C27B41EACE41007A41EA854141EA434198
:1007D00041EA024141EA042141EA4000CCF8040028
:1007E000B0BD0020CCF80000CCF80400B0BD000083
:1007F0004EF62450CEF20000BFF35F8F016821F463
:100800008031016000210167704700000000000096
:100810004EF6245140F00100CEF20001086708684E
:1008200040F480300860BFF34F8FBFF36F8F704785
:1008300081B044F2F440C5F60200016841F00201C3
:100840000160006800F002000090009801B070475D
:1008500080B502F06DFB80BD70B514460D460646AE
:1008600002F076FB2946224601F03EFC0146304666
:1008700002F076FB70BD000080B502F085FB80BD04
:10088000B0B544F60C05C5F6020529684907296884
:1008900005D401F00701081A18BF0120B0BD21F0EE
:1008A000070108432860FFF7FBFE044655F8080CD3
:1008B000800407D4FFF7F4FE001BB0F57A7FF5D96A
:1008C0000120B0BD0020B0BD44F60C00C5F602000A
:1008D000016841F080710160704700000000000075
:1008E00080B500F005FF44F220414AF29032C5F68F
:1008F0000201C0F600020968C1F30211515C01F067
:100900001F01C84080BD000080B544F2384EC5F6D6
:10091000020E5EF8103C5EF8102CC2F3053C5EF847
:100920000C2CBCF1000FC2F30012DEF80410C1F36E
:10093000CC0102FB01F100EE101AB8EE400A0BD018
:1009400003F00303022B0CD073B95EF8381C890640
:100950000DD49FED351A18E00021C0E90011816027
:1009600080BD9FED301A10E09FED2D1A0DE05EF86E
:10097000381C49F20002C0F2D032C1F3C10122FAA0
:1009800001F101EE101AB8EE411A02EE10CA9FED05
:10099000274AB8EE422ADEF800106FF35F2103EE1B
:1009A000101A81EE021AB8EE433ADEF8001000EE9B
:1009B000043AB7EE000AC1F3462133EE002A03EEF3
:1009C000101AB8EE433A21EE021A33EE002A81EEF5
:1009D000022ABCEEC22A80ED002ADEF80010C1F324
:1009E000064102EE101AB8EE422A32EE002A81EEDB
:1009F000022ABCEEC22A80ED012ADEF80010C1F303
:100A0000066102EE101AB8EE422A32EE000A81EEBA
:100A1000000ABCEEC00A10EE101A816080BD00BF53
:100A20000024744A20BCBE4B0024744C00000039E2
:100A300080B544F2404EC5F6020E5EF8183C5EF8F2
:100A4000182CC2F3055C5EF8142CBCF1000FC2F345
:100A50000022DEF80410C1F3CC0102FB01F100EE2C
:100A6000101AB8EE400A0BD003F00303022B0CD08F
:100A700073B95EF8401C89060DD49FED351A18E055
:100A80000021C0E90011816080BD9FED301A10E0A7
:100A90009FED2D1A0DE05EF8401C49F20002C0F2F5
:100AA000D032C1F3C10122FA01F101EE101AB8EE01
:100AB000411A02EE10CA9FED274AB8EE422ADEF82C
:100AC00000106FF35F2103EE101A81EE021AB8EEE8
:100AD000433ADEF8001000EE043AB7EE000AC1F324
:100AE000462133EE002A03EE101AB8EE433A21EE07
:100AF000021A33EE002A81EE022ABCEEC22A80EDF1
:100B0000002ADEF80010C1F3064102EE101AB8EE1A
:100B1000422A32EE002A81EE022ABCEEC22A80ED81
:100B2000012ADEF80010C1F3066102EE101AB8EED9
:100B3000422A32EE000A81EE000ABCEEC00A10EE34
:100B4000101A816080BD00BF0024744A20BCBE4BD7
:100B50000024744C000000392DE9F04381B00446B4
:100B6000C07844F22C490007C5F6020901D40026DA
:100B70002DE0606E4FEA305003280DD80026DFE8E4
:100B800000F0020E1613D9F80000002640F40030E1
:100B9000C9F800004EB912E0012636B90FE0201D59
:100BA000022101F061FB06464EB1B04611E004F1AE
:100BB0002400022101F0E8FB0646002EF5D1D9F809
:100BC0002400616E20F440100843C9F824004FF05F
:100BD00000086078C0072FD0606D042807D8DFE8D0
:100BE00000F00A131B030300F6B1B04624E001260F
:100BF000002EFAD118E0D9F8000040F40030C9F80E
:100C00000000002EF1D10FE0201D002101F02CFB8F
:100C10000646002EE9D107E004F12400002101F08E
:100C2000B3FB0646002EE0D1D9F82400616D20F018
:100C300007000843C9F824006078800731D5A06D0B
:100C40004FEAB010042807D8DFE800F00A131B03AE
:100C50000300F6B1B04624E00126002EFAD118E0D8
:100C6000D9F8000040F40030C9F80000002EF1D19E
:100C70000FE0201D002101F0F7FA0646002EE9D111
:100C800007E004F12400002101F07EFB0646002E5F
:100C9000E0D1D9F82400A16D20F4E0700843C9F830
:100CA00024006078400733D5D4F8A4004FEA705090
:100CB000042807D8DFE800F00A131B030300F6B18D
:100CC000B04625E00126002EFAD118E0D9F8000040
:100CD00040F40030C9F80000002EF1D10FE0201DD3
:100CE000002101F0C1FA0646002EE9D107E004F127
:100CF0002400002101F048FB0646002EE0D1D9F87F
:100D00002C00D4F8A41020F460000843C9F82C008B
:100D10006078000733D5D4F8A8004FEA3060042883
:100D200007D8DFE800F00A131B030300F6B1B04652
:100D300025E00126002EFAD118E0D9F8000040F491
:100D40000030C9F80000002EF1D10FE0201D002175
:100D500001F08AFA0646002EE9D107E004F12400EA
:100D6000002101F011FB0646002EE0D1D9F82C003D
:100D7000D4F8A81020F0E0600843C9F82C00E0780F
:100D8000800727D5A06C4FEA3010032806D8DFE88B
:100D900000F002091202AEB1B0461BE00126002E9F
:100DA000FAD10FE0D9F8000040F40030C9F8000093
:100DB000002EF1D106E0201D022101F055FA064671
:100DC000002EE9D1D9F82000A16C20F030000843B2
:100DD000C9F820006078C00631D5E06D4FEA3030A8
:100DE000042807D8DFE800F00A131B030300F6B15C
:100DF000B04624E00126002EFAD118E0D9F8000010
:100E000040F40030C9F80000002EF1D10FE0201DA1
:100E1000002101F029FA0646002EE9D107E004F18D
:100E20002400002101F0B0FA0646002EE0D1D9F8E6
:100E30002400E16D20F4E0400843C9F82400607804
:100E4000800625D5206E4FEA3040052807D8DFE818
:100E500000F0030A0F03030396B1B04618E0012621
:100E6000002EFAD10CE0201D012101F0FDF904E073
:100E700004F12400012101F087FA0646002EECD18E
:100E8000D9F82400216E20F4E0200843C9F824009A
:100E90006078400627D5D4F8AC004FEA30700528BA
:100EA00007D8DFE800F0030A0F03030396B1B0464A
:100EB00019E00126002EFAD10CE0201D012101F0DD
:100EC000D3F904E004F12400012101F05DFA0646A3
:100ED000002EECD1D9F82C00D4F8AC1020F0E04072
:100EE0000843C9F82C00607800061FD5E06ED0B129
:100EF000B0F1005F12D0B0F1805F24D1D9F80000CA
:100F000040F40030C9F800007EB9D9F82400E16E41
:100F100020F040500843C9F8240007E0201D0121BB
:100F200001F0A2F90646002EEFD0B046E078C007E7
:100F300029D0606C03280AD8DFE800F0020D160201
:100F4000CEB1B0461FE00126002EEED1DDE701262E
:100F5000002EF6D10FE0D9F8000040F40030C9F8B7
:100F60000000002EEDD106E0201D022101F07CF9E9
:100F70000646002EE5D1D9F82000616C20F0030070
:100F80000843C9F82000A078400643D5D9F8D40317
:100F900040F48070C9F8D403FFF782FB074600BF16
:100FA000D9F8D403C00505D4FFF77AFBC01B652828
:100FB000F6D303266EBBD9F84410D4F8B0004140F4
:100FC00011F4407F11D0D9F84410D9F8442042F4EC
:100FD0008032C9F84420D9F8442021F4407122F429
:100FE0008032C9F84420C9F84410B0F5807F0FD191
:100FF000FFF756FB074641F2893500BFD9F8440098
:10100000800705D4FFF74CFBC01BA842F6D303268C
:1010100086B1B0462078C00741D0A06F4FEAF000FB
:10102000052823D8DFE800F003262B03030376B35B
:10103000B04634E04FF6CF73D4F8B00059F81C2C0A
:10104000C0F2FF0300F4407122F47C5203EA101353
:10105000B1F5407F08BF1A436FF31F3049F81C2CCD
:10106000D9F844100843C9F84400D3E70126002EFC
:10107000DED10CE0201D012101F0F6F804E004F1BE
:101080002400012101F080F90646002ED0D1D9F8C4
:101090002800A16F20F038000843C9F82800207804
:1010A000800723D5606F052807D8DFE800F0030A22
:1010B0000F03030396B1B04618E00126002EFAD1C3
:1010C0000CE0201D012101F0CFF804E004F1240020
:1010D000012101F059F90646002EECD1D9F828007B
:1010E000616F20F007000843C9F828002078400706
:1010F00025D5D4F89000052807D8DFE800F0030ACA
:101100000F03030396B1B04619E00126002EFAD171
:101110000CE0201D012101F0A7F804E004F12400F7
:10112000012101F031F90646002EECD1D9F82C004E
:10113000D4F8901020F007000843C9F82C0020785C
:10114000800627D5D4F88C004FEA3070052807D8E0
:10115000DFE800F0030A0F03030396B1B04619E07D
:101160000126002EFAD10CE0201D002101F07CF8B0
:1011700004E004F12400022101F006F90646002EE5
:10118000ECD1D9F82800D4F88C1020F0E0400843C6
:10119000C9F828002078400627D5D4F898004FEAEF
:1011A000B020052807D8DFE800F0030A0F03030387
:1011B00096B1B04619E00126002EFAD10CE0201DB0
:1011C000002101F051F804E004F12400022101F0B3
:1011D000DBF80646002EECD1D9F82C00D4F8981094
:1011E00020F4E0500843C9F82C002078000627D5E9
:1011F000D4F89C004FEA7030052807D8DFE800F0EB
:10120000030A0F03030396B1B04619E00126002E2E
:10121000FAD10CE0201D002101F026F804E004F1D1
:101220002400022101F0B0F80646002EECD1D9F8D6
:101230002C00D4F89C1020F460400843C9F82C001E
:101240002078000716D5D4F88000B0F5805F08D16B
:1012500004F12400022101F097F8002818BF4FF094
:101260000108D9F82800D4F8801020F44050084331
:10127000C9F828002078C00616D5D4F89400B0F537
:10128000807F08D104F12400022101F07DF80028BC
:1012900018BF4FF00108D9F82C00D4F8941020F4AE
:1012A00040700843C9F82C00A078000721D5D4F875
:1012B000A000B0F5003F19D0B0F5803F10D0C0BB02
:1012C000201D002100F0D0FF06468EB9D9F82C0071
:1012D000D4F8A01020F440300843C9F82C0008E0EE
:1012E00004F12400022101F04FF80646002EEDD053
:1012F000B046A078400729D5D4F88400B0F5401F47
:1013000021D0B0F5001F18D0B0F5801F40F0B48098
:10131000D9F8000040F40030C9F80000AEB9D9F89F
:101320002800D4F8841020F440100843C9F828009D
:101330000CE00126002EDBD1C8E704F124000121D6
:1013400001F022F80646002EE9D0B046A078C0078A
:101350001FD0E06CB0F5803F10D0B0B9D9F80000D4
:1013600040F40030C9F8000096B9D9F82000E16CCB
:1013700020F480300843C9F820000AE0201D022133
:1013800000F072FF06461EB9EFE70126002EECD0F2
:10139000B046E078800608D504F12400022100F070
:1013A000F3FF002818BF4FF001082068810313D411
:1013B000C10229D4C10031D481023AD4410042D4BF
:1013C000B0F1FF3F4FDDB8F1000F18BF4FF001083B
:1013D000404601B0BDE8F083E16F6FF0010202EB1F
:1013E0003122022A0AD34FEA31223AB1012A48D1E6
:1013F000D9F8002042F40032C9F80020002E43D072
:101400004FF00108C102D5D5D9F82410226F21F080
:1014100000411143C9F82410C100CDD559F81C1C56
:10142000D4F8B42021F48041114349F81C1C8102F6
:10143000C4D5D9F82410A26E21F080711143C9F8E7
:1014400024104100BCD559F81C1C21F4004149F876
:101450001C1CD4F8B81059F81C2C114349F81C1C5A
:10146000B0F1FF3FAFDCD9F82000216D20F04050F3
:101470000843C9F82000A6E70126002E7FF465AFD7
:101480004DE70126002EBBD1D9F8282022F4407266
:101490001143C9F82810C1027FF58CAFB4E70000F2
:1014A0002DE9F04381B0002800F0F28042F20008FC
:1014B0000446C5F200288946D8F8000000F00F0065
:1014C00088420ED2D8F8000020F00F0040EA090050
:1014D000C8F80000D8F8000000F00F00484540F0C0
:1014E000D780206844F218474107C5F602070AD59D
:1014F00021693A6802F07002914204D93A6822F0F8
:1015000070021143396001070AD561697A6802F0F7
:101510007002914204D97A6822F070021143796016
:10152000C1060AD5A1697A6802F4E062914204D941
:101530007A6822F4E0621143796081060AD5E16994
:10154000BA6802F07002914204D9BA6822F07002BF
:101550001143B96081070AD5E1683A6802F00F02C9
:10156000914204D93A6822F00F0211433960C00752
:101570007ED1206881070AD5E1683A6802F00F023F
:10158000914204D23A6822F00F0211433960D8F830
:10159000001001F00F0149450DD9D8F8001021F0D5
:1015A0000F0141EA0901C8F80010D8F8001001F055
:1015B0000F0149456CD141070AD521693A6802F00B
:1015C0007002914204D23A6822F0700211433960ED
:1015D00001070AD561697A6802F07002914204D26B
:1015E0007A6822F0700211437960C1060AD5A169B8
:1015F0007A6802F4E062914204D27A6822F4E062EE
:101600001143796080060AD5E069B96801F070017C
:10161000884204D2B96821F070010843B86000F034
:10162000B7F839684AF29032C0F60002C1F30321DC
:101630003B6803F00F03515CD25C01F01F01C8400E
:1016400002F01F0140F2100220FA01F1C2F2004242
:10165000116040F20C0140F21802C2F20041C2F2E5
:10166000004208601068FFF767F801B0BDE8F0833A
:10167000386820F47061D4E90102032841EA0201CC
:10168000396009D0022829D157F8181C890307D4DA
:10169000012001B0BDE8F08357F8181C8901F7D587
:1016A00057F8081C21F00701084347F8080CFEF71B
:1016B000F7FF064641F2883557F8080C616800F0DC
:1016C0003800B0EBC10F3FF454AFFEF7E9FF801BC9
:1016D000A842F1D9032001B0BDE8F083012857F8F2
:1016E000181C02D1C905D3D5DAE74907D0D5D7E709
:1016F00080B500F04DF844F218414AF29033C5F637
:101700000201C0F600030A68C2F30322096801F06F
:101710000F019A5C595C02F01F0220FA02F201F0FC
:101720001F0040F2100122FA00F0C2F200410860EE
:1017300040F20C01C2F200410A6080BD00000000CE
:1017400080B5FFF7D5FF44F21C414AF29032C5F64E
:101750000201C0F600020968C1F30211515C01F0F8
:101760001F01C84080BD000080B5FFF7C1FF44F2F3
:101770001C414AF29032C5F60201C0F60002096827
:10178000C1F30221515C01F01F01C84080BD00007F
:1017900044F20041C5F602010869C0F3C200032803
:1017A0000FD002282BD078BB0868800649F20000D1
:1017B000C0F2D03058BF70470968C1F3C101C840BA
:1017C00070478A6A886AC0F3051CCB6A486B03F0CD
:1017D0000103BCF1000FC0F3CC0003FB00F000EEEE
:1017E000100AB8EE400A14D002F00302022A12D006
:1017F000A2B90868800614D49FED251A1EE047F6AA
:101800004000C0F27D10704740F60010C0F23D006D
:101810007047002070479FED1D1A0FE09FED1A1AC8
:101820000CE0086849F20002C0F2D032C0F3C100F7
:1018300022FA00F001EE100AB8EE411A02EE10CAC8
:101840009FED144AB8EE422A086B6FF35F2003EE57
:10185000100A81EE021AB8EE433A086B00EE043A21
:10186000B7EE000AC0F34620013033EE000A21EE45
:10187000000A01EE100AB8EE411A80EE010ABCEE31
:10188000C00A10EE100A70470024744A20BCBE4BF8
:101890000024744C000000392DE9F041002800F0CC
:1018A00046810446007844F20046C007C5F60206A9
:1018B0004AD0306900F03801B06A102905D01829E3
:1018C0000AD100F00300022806D13068800337D522
:1018D0006068A8BB012726E065686DB1B5F5803F5B
:1018E00006D0B5F5A02F306807D140F480203060D5
:1018F000306840F4803006E0306820F4803030609A
:10190000306820F480203060FEF7CAFE002D0546C6
:1019100013D000BF3068800312D4FEF7C1FE401B15
:101920006428F7D903270020002800F016820BE076
:10193000FEF7B6FE401B6428F4D830688003F7D465
:101940000120002800F009822078800755D53069F1
:1019500010F03801B06A18D0182908BF5FEA80700B
:1019600013D0E068316858B321F0190108433060A2
:10197000FEF796FE054600BF306840070AD4FEF722
:101980008FFE401B0228F7D928E03068400701D5B8
:10199000E06868B3FEF77CFE41F20301884208D894
:1019A00020697168402821F47C3119D141F400305C
:1019B00018E07068216920F0FE4040EA016011E003
:1019C00021F001003060FEF76BFE054630684007ED
:1019D00009D5FEF765FE401B0328F7D3032708E06F
:1019E00041EA003070600120002800F0B68104E078
:1019F00001270020002800F0B0812078C0065AD5C9
:101A0000306900F03801B06A082905D0182918D1CA
:101A100000F00300012814D13068C00502D5E06948
:101A2000802843D1FEF734FE41F2030188421CD8DE
:101A3000206A7168202821F0F8412FD141F08040C0
:101A40002EE0E0690028306817D040F08000306058
:101A5000FEF726FE054600BF3068C005E2D4FEF75B
:101A60001FFE401B0228F7D916E0F068216A20F01B
:101A70007C5040EA0160F06013E020F080003060AC
:101A8000FEF70EFE054600BF3068C00509D5FEF71B
:101A900007FE401B0328F7D3032708E041EA8060D4
:101AA00070600120002800F0588104E00127002028
:101AB000002800F05281207800073CD4207880066E
:101AC0004DD4207840075ED4656A65B3306900F074
:101AD0003800182840F09E80012DB16A306B26D066
:101AE00001F00302A36A9A4221D1C1F30511E26A0F
:101AF00091421CD10146226B6FF35F21013A914262
:101B000015D1C0F34621626B013A91420FD1C0F367
:101B10000641A26B013A914209D1C0F30660E16B24
:101B20000139884203D10027F8B2BDE8F0810127CE
:101B3000F8B2BDE8F08160690028706F39D040F0DC
:101B400001007067FEF7ACFD054600BF706F8007AF
:101B5000B4D4FEF7A5FD401B0228F7D925E0A06903
:101B60000028306844D040F480503060FEF798FD83
:101B7000054600BF30688004A3D4FEF791FD401BEA
:101B80000228F7D911E0D6F8000440F48070C6F8B6
:101B90000004FEF785FD0546D6F80004C00519D4FB
:101BA000FEF77EFD401B6428F6D90327F8B2BDE896
:101BB000F08120F001007067FEF772FD05460327F3
:101BC000706F80077FF57AAFFEF76AFD401B022831
:101BD000F6D9C2E0A568EDB3012D05D0052D306F13
:101BE00039D140F004003067306F40F0010038E038
:101BF00020F480503060FEF753FD0546032700BFF8
:101C0000306880047FF55DAFFEF74AFD401B022877
:101C1000F6D9A2E0306820F080703060FEF740FD19
:101C2000022D05464FF003070AD100BF306880013E
:101C300035D5FEF735FD401B0228F7D98DE000BFF2
:101C4000306880017FF56FAFFEF72AFD401B022848
:101C5000F6D982E0306F20F001003067306F20F05D
:101C600004003067FEF71CFD002D054641F2883860
:101C70004FF003070FD000BF306F80073FF524AF50
:101C8000FEF70EFD401B4045F6D966E0FEF708FD65
:101C9000401B404561D8306F8007F7D414E704F14A
:101CA0002807B06A40F2F33188438ECF0843591EAB
:101CB00040EA02104FF47E42B06202EB47206FF31D
:101CC0005F214FF4FE0280B2E36B0844A16B02EB8C
:101CD00001414FF0FE4201F4FE0102EB03620844B1
:101CE00002F0FE4108443063F06A4FF6F87120F0CC
:101CF0000100F062706BA26C884340EAC20070631E
:101D0000F06A216C20F00C000843F062F06A616C0C
:101D100020F002000843F062F06A40F48030F06284
:101D2000F06A40F40030F062F06A40F48020F06223
:101D3000F06A40F00100F062306840F0807030607E
:101D4000FEF7AEFC04460327306880013FF5EBAE9A
:101D5000FEF7A6FC001B0228F6D9F8B2BDE8F08118
:101D600080B500F001FC80BD90F87C10012901D104
:101D7000022070472421C0F880100268136811689F
:101D800023F0005321F0010111600021416613602E
:101D90002022C0F8802080F87C10084670470000A0
:101DA000B0B5044690F87C00012801D10220B0BDF6
:101DB000012084F87C002420C4F880002068056895
:101DC000026822F001020260826822F06062114320
:101DD0008160204600F0C0FC206805602020C4F827
:101DE0008000002084F87C00B0BD000000000000EE
:101DF000B0B5044690F87C00012801D10220B0BDA6
:101E0000012084F87C002420C4F880002068056844
:101E1000026822F001020260826822F060421143EF
:101E20008160204600F098FC206805602020C4F8FE
:101E30008000002084F87C00B0BD0000000000009D
:101E400010B5B0B10446D0F8800028B9002084F85D
:101E50007C00204600F028F82420C4F88000206888
:101E6000016821F001010160204600F045FD0128D4
:101E700001D1012010BDA06A10B1204600F098FCED
:101E80002068416821F490414160816821F02A0175
:101E90008160016841F001010160204600F0F8FC1A
:101EA00010BD000000000000B0B5B6B0044602A8A6
:101EB000BC210025CDE93455CDE932553195FEF7E9
:101EC00051FA41F200012068C4F20101884201D0B8
:101ED00036B0B0BD0120029002A82095FEF73CFE6E
:101EE00008B1FEF7F9FA44F2E040C5F602000169D4
:101EF00041F010010161016901F0100101910199A6
:101F0000016841F001010160006831A900F00100A1
:101F1000019001984FF4C06031900220329000206F
:101F2000339003203490072035900020C5F602003E
:101F3000FEF7DAFA36B0B0BD2DE9F04381B00446C1
:101F4000D0F8800020280BD10E4600294FF0010068
:101F50005CD01746002A59D094F87C00012803D1A0
:101F6000022001B0BDE8F0831D46012084F87C000A
:101F70004FF00009C4F888902120C4F88000FEF7D3
:101F80008FFBA4F85470A4F856700746A168B1F509
:101F9000805F07D1206900281CBF30464E46B046FE
:101FA000064601E04FF0000884F87C9009E000BF8D
:101FB000206816F8011B8162B4F856000138A4F8B5
:101FC0005600B4F8560088B18021002220463B46D6
:101FD000009500F04DFF88B9002EE9D138F8020BCA
:101FE000216800266FF35F208862E5E74021002228
:101FF00020463B46009500F03BFF18B1032001B09E
:10200000BDE8F0832020C4F88000002001B0BDE8C6
:10201000F083000000000000FEE700000000000068
:1020200083B044F2E040C5F60200016841F00101CE
:102030000160016801F0010102910299016841F01B
:1020400080010160016801F080010191019901683E
:1020500041F002010160006800F002000090009869
:1020600003B070470000000080B540F6702041F2D8
:102070000001C2F20040C4F201010C2201604FF4E1
:10208000E13141600021C0E902110161C0E905218F
:10209000C0E90711C0E90911FFF7D2FEC0B940F647
:1020A00070200021C2F20040FFF7A2FE80B940F686
:1020B00070200021C2F20040FFF772FE40B940F6E6
:1020C0007020C2F20040FFF74FFE002808BF80BD1D
:1020D000FEF702FA00000000FEE70000000000002A
:1020E000FEE700000000000000F007004FF0FF3C9A
:1020F00080F00703042B28BF0423033838BF0020D7
:102100000CFA03F399430CFA00F301FA00F022EA07
:1021100003010843704700002DE9F04381B040F20D
:102120001408C4F2040801F02BF981460028D8F8FD
:10213000000018BF10F0010002D101B0BDE8F0832B
:102140005FEAC91006D45FEA890008D45FEA891003
:10215000F3D52AE001F07CFC5FEA8900F6D540F275
:10216000E8760027C2F200466FF06D0500240120DA
:10217000307003E03034B4F5107F0CD03019C16AF0
:1021800090F82020002AF5D080F82070406ACD61B8
:1021900002F07EFEEEE7012006F02EFA4FF000502E
:1021A000C8F800005FEA8910C7D540F21844D8F893
:1021B0000004C4F20404002754F8E81B084086B267
:1021C00007E000BFF8B201F057FA013720340C2FB6
:1021D0000AD026FA07F0C007F7D020680004F1D52E
:1021E000F8B201F029F9F0E74FF00070C8F80000EC
:1021F00001B0BDE8F0830000000000000000000016
:10220000EFF30980BFF36F8F154B1A681EF0100FA4
:1022100008BF20ED108A20E9F04F10602DE9090079
:102220004FF0500072B680F31188BFF34F8FBFF3A9
:102230006F8F62B606F09CFF4FF0000080F31188AC
:10224000BDE8090019680868B0E8F04F1EF0100FEB
:1022500008BFB0EC108A80F30988BFF36F8F704716
:102260000C0B002400000000F0B581B044F22C47B4
:10227000C5F6020757F8042C02F00302032A02D124
:10228000012001B0F0BD054657F82C0C0C4620F09B
:10229000806047F82C0CFEF703FA064657F82C0C22
:1022A000000105D5FEF7FCF9801B0228F6D964E091
:1022B00057F8040CEE6895E80E0020F47C3040EAF4
:1022C0000130A2F101014FF47E4247F8040C02EB09
:1022D00043224FF0FE436FF35F2192B202EB010005
:1022E0004FF4FE012A6901EB064101F4FE0103EB04
:1022F0000262084402F0FE410844F86038686969E7
:1023000020F0C00040EA010038603868A96920F078
:10231000200040EA0100386038684FF6F87120F07C
:10232000100038603869EA6920EA010040EAC2001A
:102330003861386840F0100038602CB1012C3868E2
:1023400006D140F4801005E0386840F4002001E038
:1023500040F40010386057F82C0C40F0806047F8CB
:102360002C0CFEF79DF9044657F82C0C000107D4FD
:10237000FEF796F9001B0328F6D3032001B0F0BD49
:10238000002001B0F0BD0000F0B581B044F22C4750
:10239000C5F6020757F8042C02F00302032A02D103
:1023A000012001B0F0BD054657F82C0C0C4620F07A
:1023B000805047F82C0CFEF773F9064657F82C0CA2
:1023C000800005D5FEF76CF9801B0228F6D964E081
:1023D00057F8040CEE6895E80E0020F07C7040EA97
:1023E0000150A2F101014FF47E4247F8040C02EBC8
:1023F00043224FF0FE436FF35F2192B202EB0100E4
:102400004FF4FE012A6901EB064101F4FE0103EBE2
:102410000262084402F0FE41084478613868696944
:1024200020F4406040EA010038603868A96920F46F
:10243000007040EA0100386038684FF6F87120F407
:1024400080703860B869EA6920EA010040EAC20099
:10245000B861386840F4807038602CB1012C38685D
:1024600006D140F4000005E0386840F4800001E047
:1024700040F08070386057F82C0C40F0805047F8DE
:102480002C0CFEF70DF9044657F82C0C800007D4ED
:10249000FEF706F9001B0328F6D3032001B0F0BDB8
:1024A000002001B0F0BD000070B54EF614500021C0
:1024B000CEF2000043F6E07C0167BFF34F8FC26E9F
:1024C000C2F34E31C2F3C90202F1010E930700BFFD
:1024D0000CEA41121C46754644EA0206013D04F12D
:1024E0004044C0F84C62F7D10029A1F10101EFD1BD
:1024F000BFF34F8F016841F480310160BFF34F8F0C
:10250000BFF36F8F70BD00004EF614500021CEF265
:102510000000BFF34F8FBFF36F8FC0F83C12BFF3C3
:102520004F8FBFF36F8F016841F400310160BFF33B
:102530004F8FBFF36F8F7047000000000000000056
:10254000074B19680868B0E8F04F80F30988BFF3BB
:102550006F8F4FF0000080F31188704700BF00BFFD
:102560000C0B002400000000B0B501380024B4EBCF
:10257000106F01D00120B0BD4EF210050F21CEF238
:10258000000568604FF0FF3000F0EAFCAC60072007
:1025900028602046B0BD000080B506F069FEFEF759
:1025A00087F880BD00000000B0B59CB044F6180468
:1025B00009A84C21C5F60204FDF7D4FE022000252F
:1025C000CDE90755CDE90555CDE90355CDE90155CF
:1025D000FEF756F940F22C400095C5F60000016860
:1025E00021F001010160006800F001000090206806
:1025F00040F440402060206800F440400090009883
:1026000020688004FCD54FF610400222CFF6FF7000
:102610000025215862F301012150012009904FF457
:1026200080300A90CDE9122205201490A0200824C1
:10263000CDE9150209A8CDE917221994CDE91A555B
:10264000FFF72AF9A0B93F20019003204FF48061E1
:10265000CDE9020504944020CDE90500CDE907103D
:1026600001A80221FEF71CFF002804BF1CB0B0BD6A
:10267000FDF732FF0000000080B54EF6885C42F2A4
:10268000000ECEF2000CC5F2002EDCF8001041F472
:102690007001CCF80010DEF8001001F00F010629DF
:1026A00006D8DEF80010072262F30301CEF800100E
:1026B00044F200414EF67F53C5F60201CEF6F623F2
:1026C0000A6842F001020A6000220A6108681840A4
:1026D0000860DEF80000000706D5DEF800000723DA
:1026E00063F30300CEF8000040F200208A61CA6163
:1026F000C0F202200A6288620020C0F2FF10C862A5
:1027000040F28020C0F2011008634A638863CA6304
:1027100008644A64086820F48020086041F20000E0
:102720000A66C5F600400068B2EB507F05D148F25A
:1027300008100121C5F20010016044F2000043F2CC
:10274000D201C5F2002001604FF000604CF8800C0F
:1027500080BD00000000000010B5416E01B30168AB
:102760004AF2E83CC0F6000C4AF2F03E8A68C0F635
:10277000000EC2F3426289684C0F1CF802301EF84A
:1027800002101A011EF80430B2FBF1F11CF804200B
:10279000A0F868101201B2FBF3F2A0F86A2010BD95
:1027A0000121A0F86A10A0F8681010BD0000000018
:1027B000816ACA070CD18A0715D44A071ED40A07B2
:1027C00027D4CA0630D48A0639D44A0655D541E002
:1027D0000268D0F82CC0536823F4003343EA0C039A
:1027E00053608A07E9D50268D0F830C0536823F4F3
:1027F000803343EA0C0353604A07E0D50268D0F8FF
:1028000034C0536823F4802343EA0C0353600A075F
:10281000D7D50268D0F838C0536823F4004343EAA0
:102820000C035360CA06CED50268D0F83CC093684A
:1028300023F4805343EA0C0393608A06C5D50268EB
:10284000D0F840C0936823F4005343EA0C0393602C
:102850004A0612D50268D0F844C0BCF5801F536800
:1028600023F4801343EA0C03536006D1536823F426
:10287000C00C836C43EA0C035360090658BF7047D1
:102880000168C06C4A6822F4002210434860704717
:10289000B0B582B004460020C4F88800FDF700FF00
:1028A00021680546096809070AD54FF4001100227E
:1028B0006FF07E40009020462B4600F0D9FA70B9A8
:1028C0002068006840070DD54FF4800100226FF0AA
:1028D0007E40009020462B4600F0CAFA10B103203B
:1028E00002B0B0BD2020C4F88000C4F884000020ED
:1028F00084F87C0002B0B0BDF0B583B00446036834
:10290000806846F6F316D4E9031210436269104357
:10291000E2691043626E1F68CCF6FF76104307EA47
:1029200006021043186058684FF2FF4720F44052E7
:1029300040F6004011435960C5F60000A16983428A
:10294000C1F2FF171CBF226A11439A6847F2FF7653
:102950003A40C4F2000611439960DA6A44F25441E5
:1029600022F00F02676AC5F602013A43B342DA6207
:102970004FF0800225DD40F6FF77C4F20107BB422D
:102980003FDD834200F0718041F20047C4F201074D
:10299000BB4200F0758041F20007C4F20107BB4260
:1029A00040F0A5800A68C2F3C203052B00F29680AE
:1029B0000122DFE813F09C00910095009700990038
:1029C0009B0044F6FF37C4F20007BB4233DC44F2FD
:1029D0000047C4F20007BB4200F05D8044F60007E8
:1029E000C4F20007BB4240F082800A6802F007038D
:1029F000052B00F273800022DFE803F0796E727419
:102A0000767847F60007C4F20007BB4200F04E801C
:102A100047F60047C4F20007BB4240F068800A68EE
:102A200002F00703052B00F259800022DFE803F0D3
:102A30005F54585A5C5E44F60047C4F20007BB423C
:102A400000F03F8045F20007C4F20007BB4240F0AF
:102A50004E800A6802F00703052B00F23F80002237
:102A6000DFE803F0453A3E4042444A6802F007037B
:102A7000052B33D80222DFE803F03A2F33353739FC
:102A80000A68C2F3C203052B28D80122DFE803F04D
:102A90002F24282A2C2E0A6802F00703052B1DD8A4
:102AA0000022DFE803F024191D1F21230A6802F029
:102AB0000703052B12D80022DFE803F0190E1214C9
:102AC00016180A6802F00703052B07D80022DFE872
:102AD00003F00E0307090B0D042208E0802206E034
:102AE000082204E0102202E0202200E040222368B5
:102AF000834240F60010C0F23D0000F05380E369CD
:102B0000B3F5004F40F07880402A00F21A8100258A
:102B1000DFE812F041001201170117011B01170134
:102B2000170117011F0117011701170117011701DD
:102B300017011701260117011701170117011701C6
:102B400017011701170117011701170117011701C5
:102B50001701170134011701170117011701170198
:102B600017011701170117011701170117011701A5
:102B70001701170117011701170117011701170195
:102B80001701170117011701170117011701170185
:102B90001701170131010025FEF7D2FD002840F092
:102BA000EF8040E1931E1E2B00F274800027DFE8C7
:102BB00013F01F0077007A007700770077007E001F
:102BC0007700770077007700770077007700B8000C
:102BD000770077007700770077007700770077003D
:102BE0007700770077007700770077007700830021
:102BF0000027FDF775FE5FE0402A00F2E180002526
:102C0000DFE812F04100D900DE00DE00E200DE0065
:102C1000DE00DE00E600DE00DE00DE00DE00DE00BC
:102C2000DE00DE00ED00DE00DE00DE00DE00DE00A5
:102C3000DE00DE00DE00DE00DE00DE00DE00DE00A4
:102C4000DE00DE00FB00DE00DE00DE00DE00DE0077
:102C5000DE00DE00DE00DE00DE00DE00DE00DE0084
:102C6000DE00DE00DE00DE00DE00DE00DE00DE0074
:102C7000DE00DE00DE00DE00DE00DE00DE00DE0064
:102C8000DE00DE00F8000025FEF75AFD002840F0C7
:102C9000B580C8E0402A03D14FF4004000270BE084
:102CA0000020012708E06846FDF72EFE02E0684696
:102CB000FDF7BEFE0027019878B3616A4AF2A032A0
:102CC000C0F600026668012532F8112006EB4603C3
:102CD000B0FBF2F19942C0F0A6803303994200F2B2
:102CE000A28000210023FDF7F3FA0902002341EA44
:102CF00010613246000210EB560041F10001FDF771
:102D0000E7FA4FF6FF42A0F54071C0F20F02914280
:102D100005D821683D46C86085E03D4683E0012531
:102D200081E051F8540C800649F20000C0F2D03026
:102D300000F182800027BFE70025FEF715FDF8B9F6
:102D400071E000200125D8B96DE06846FDF7DCFD93
:102D500002E06846FDF76CFE0025019880B962E04C
:102D600051F8540C800649F20000C0F2D0306AD409
:102D7000002528B957E04FF400400025002852D024
:102D8000616A4AF2A032C0F6000232F8111062689D
:102D9000B0FBF1F0510801EB4000B0FBF2F14FF64F
:102DA000F070084005D0C1F3420122680843D060AA
:102DB00039E0012537E00025FEF7D6FCF0B932E016
:102DC00000200125D0B92EE06846FDF79DFD02E008
:102DD0006846FDF72DFE0025019878B923E051F8EB
:102DE000540C800649F20000C0F2D03035D40025E2
:102DF00020B918E04FF400400025A0B1616A4AF202
:102E0000A032C0F6000232F811106268B0FBF1F097
:102E100000EB5200B0FBF2F080B2102802D3216820
:102E2000C86000E001254FF00110A0660020C4E951
:102E30001B00284603B0F0BD51F8541C0027C1F315
:102E4000C101C84038E751F8541C0025C1F3C10145
:102E5000C84000287FF494AFE5E751F8541C0025E2
:102E6000C1F3C101C8400028C8D1DCE70000000060
:102E70002DE9F04381B004460068C0690840401A5B
:102E8000B0FA80F04009904237D1DDF820800D463D
:102E90001646994608F1010709E000BF2068C0699D
:102EA0002840401BB0FA80F04009B04225D1002FE5
:102EB000F4D0FDF7F5FB2168B8F1000F0A6820D0C7
:102EC000A0EB090040451CD8500744BFC8695FEA21
:102ED0000050E3D54FF400600862086820F4D07019
:102EE0000860886820F0010088602020C4F8800015
:102EF000C4F88400C4F888000FE0002001B0BDE8E9
:102F0000F08322F4D0700860886820F001008860A7
:102F10002020C4F88000C4F88400002084F87C00DD
:102F2000032001B0BDE8F083FEE7000000000000D0
:102F3000002848BF70474EF2001300F01F014009FF
:102F4000CEF20003012202FA01F143F8201070478B
:102F50004EF60C50CEF200000068C0F3022070471D
:102F60004EF6145300F00F02CEF20003B0F1FF3F13
:102F70001A4400F16043C8BF03F5644208011070B1
:102F800070470000000000004EF60C514FF6FF03A2
:102F9000CEF200010A681A4060F30A2242F0806013
:102FA00040F0FD700860704780B5D0F84C0740F2E3
:102FB0002313D0F8B8C14068ACF802200022ACF866
:102FC00004100021ACF806106146ACF8003002F0A5
:102FD0008FFF80BD00000000B0B5D0F84C074FF463
:102FE000D46340F2C8650C46D0F8B8214FF41021E4
:102FF000C2F207451380C378053B022B4FF42453DC
:1030000038BF4FF4285351601146538040682A4618
:1030100002F06EFF002848BFB0BD297A2172D5E9C1
:10302000001262602160B0BDB0B5D0F84C07A32596
:103030001446D0F8B83140681D6040F2C865C2F24D
:10304000074599800421D98019462A4602F050FF8D
:1030500000285CBF29682160B0BD000000000000AE
:1030600080B5D0F84C074FF44262D0F8B8314068D0
:103070001A800022598000215960194602F038FF59
:1030800080BD00000000000080B5D0F84C0740F281
:103090002333D0F8B8C14068ACF802200022ACF865
:1030A00004100021ACF806106146ACF8003002F0C4
:1030B0001FFF80BD0000000080B582B0032923D827
:1030C000DFE801F002080E194FF0010C0021CDF8E5
:1030D00000C00AE04FF0010CCDF800C0012104E06F
:1030E0000021009100214FF0010CCDF804C0FDF744
:1030F000BFF902B080BD01214FF0000CCDF800C037
:10310000CDF804C0FDF7B4F902B080BD00000000A6
:1031100070B582B04578B0F806C0044610460E4639
:1031200004F110032946624600F00EF8627AA0818D
:103130006178257A2369CDE900051046324600F012
:103140002FFC02B070BD000080B500EB020CACF1AA
:10315000010CBCFBF2FC1FFA8CFEBEF5807F88BF21
:103160004FF4807C002808BF4FF0010C49B20029C1
:103170001FFA8CF148BF01FB02F05FFA8CF1186076
:10318000084680BD00000000F0B583B00446807A98
:103190000E46E0B1A07A1746012836D1F088E288C1
:1031A00004F110038021FFF7CFFF667AE2882178CF
:1031B0002579A0810023009280223046019500F0FD
:1031C0009FFB607A217B23690091802138E0E288AF
:1031D00004F1100308200021FFF7B6FF657AE288AA
:1031E000217894F804C0A081002300920022284690
:1031F000CDF804C000F084FB607A217B2369009144
:1032000000210322019232461DE0A07A02281ED13D
:10321000F088E28804F110030021FFF795FF667A39
:10322000E28821782579A08100230092002230468F
:10323000019500F065FB607A217B236900910021F4
:10324000022201923A4600F0ABFB03B0F0BDA07A37
:1032500003281BD1E28804F1100300208021FFF72E
:1032600073FF667AE28821782779A0810023009293
:1032700080223046019700F043FB607A217B23696E
:1032800000918021002202270197DCE7A07A042820
:103290001CD1E28804F1100300200021FFF754FF45
:1032A000667AE28821782779A081002300920022A3
:1032B0003046019700F024FB607A217B236900915E
:1032C000002100220227019700F06AFB03B0F0BD45
:1032D00010B50C24C4F20404206840F040002060C3
:1032E00000F01EFCE06A40F48030E06210BD000097
:1032F00081B040F240400021C4F204000091016816
:103300000091009921F02E0100910099C90403D485
:10331000009941F480510160009801B070470000AD
:1033200081B010200021C4F204000091102101603E
:1033300040F64051C0F20301009A013200928A42E5
:1033400002D80268D206F7D401B07047000000002E
:1033500081B010200021C4F2040000914FF4846178
:10336000016040F64051C0F2030100BF009A0132F3
:1033700000928A4202D802689206F7D401B07047E0
:103380001420C4F20400016840680840704700003F
:1033900040F2080C4001C4F2040C0CF59F610B587C
:1033A0000A58002ADCF8002003D412F0200200D0D2
:1033B000704742585B0342F0804242501ED4DCF812
:1033C0000020920648BF7047DCF8242012F47F0FDB
:1033D000425819D122F000420A500A5842F00042E5
:1033E0000A500A5822F400420A5040F2E93200BF63
:1033F000013ADDD00B58002BFAD4D9E7DCF80824C9
:1034000012F47F0F425803D042F000420A50704736
:1034100022F000420A500A5842F000420A500A586C
:1034200022F400420A5040F2E93200BF013ABFD014
:103430000B58002BFAD4BBE7F0B581B040F208522C
:1034400040F20C534101C4F20402C4F2040300EB45
:1034500040055258595840F2E873C2F200430A40FE
:1034600003EB051140F20053C4F20403D50703EB4C
:103470004014CD6A4CD1530756D4130761D4D306F8
:103480006AD4930673D4530673D413067CD4D3053D
:1034900000F18580930500F18E80530500F197803F
:1034A00090074CD5E06820F00200E060EA6912F174
:1034B0000B0001F1040000F09880002A40F0BC806D
:1034C0002369D1F814C0D1F81CE00E8A27696FF384
:1034D000DF43A6EBD746ACEB0303F7070EEB030C79
:1034E000C1F81CC005D00B7BB3FA83F35B095B000A
:1034F0000B738B79012B00F08780002B40F09A80B2
:1035000011F80E2F012A40F0908004220A7076E014
:103510000021E961E16841F00201E160FFF738FF55
:103520000120A060102009E0E16841F00201E160A3
:10353000FFF72EFF6FF00400E8610420A06001B0E7
:10354000F0BDE16841F00201E160FFF721FF4FF0BB
:10355000FF30E8610820E4E7E16841F00201E16042
:10356000FFF716FF6FF00A00E8611020E6E7202061
:10357000E4E7E16841F00201E160FFF709FF6FF065
:103580000A00E8614020D9E7E16841F00201E1600A
:10359000FFF7FEFE6FF00400E8618020CEE7E168EF
:1035A00041F00201E160FFF7F3FE6FF00400E86113
:1035B0004FF48070C2E7E16841F00201E160FFF77B
:1035C000E7FE6FF01F00E8614FF40070B6E7E168B6
:1035D00041F00201E160FFF7DBFE6FF00400E861FB
:1035E0001020A0604FF48060A8E789798A1E022A23
:1035F00004D2D5E90212FFF78BFD1FE0F1B969682B
:10360000AA68FFF7C1FD19E00B6B2E6A05EB0317E3
:103610000133B3420B63C7F838C0FA630CD005EB33
:103620000311303100F00CF808E00A78032A05D1C4
:1036300000220A70C5F814C000F0F2F902207DE7FC
:10364000B0B582B00C4605464178C288606805F185
:103650001003FFF779FD95F809C0A8816978226801
:103660002B69009000200190604600F099F902B0AB
:10367000B0BD0000000000002DE9F04140F208520A
:1036800040F20C534101C4F20402C4F2040300EB03
:1036900040075258595840F2E873C2F200430A40BA
:1036A00003EB071140F20053C4F20403D70703EB06
:1036B0004014CD6A34D153073ED4130749D4D306FE
:1036C00054D493065FD4530661D413066CD4D30547
:1036D00077D4930500F18380530500F18E80900725
:1036E00058BFBDE8F081E06820F00200E060EA69C0
:1036F00012F10B0001F1040000F08C80002A40F070
:10370000C98026694B896FF3DF46B1F810809E426D
:1037100040F089800E4608FB03FC56F81CEF89E058
:103720000121A160FFF734FE0020E861E06840F06D
:103730000200E060BDE8F081E16841F00201E16073
:10374000FFF726FE6FF00400E8610420A060BDE8EA
:10375000F081E16841F00201E160FFF719FE4FF0EE
:10376000FF30E8610820A060BDE8F081E16841F029
:103770000201E160FFF70CFE6FF00A00E861102023
:10378000A060BDE8F0812020A060BDE8F081E16884
:1037900041F00201E160FFF7FBFD6FF00A00E86114
:1037A0004020A060BDE8F081E16841F00201E160E5
:1037B000FFF7EEFD6FF00400E8618020A060BDE837
:1037C000F081E16841F00201E160FFF7E1FD6FF097
:1037D0000400E8614FF48070A060BDE8F081E1680A
:1037E00041F00201E160FFF7D3FD6FF01F00E861D7
:1037F0004FF40070A060BDE8F081E16841F0020183
:10380000E160FFF7C5FD6FF00400E8614FF48060F0
:10381000A060B4E789798A1E022A2CD2D5E9021267
:10382000FFF776FC50E0A8F1010707FB036E0E4698
:1038300056F81CCF5FEAC8730EEB0C03336005D05B
:103840000B7BB3FA83F35B095B000B738B79ABB132
:10385000012BCB691DD10F6B05EB0716F2637A1CA8
:103860002F6AB363BA420A6314D005EB02113031F8
:10387000FFF7E6FE28E039BB696822E00A4612F845
:103880000E3F53B11378022B11D1032111706968D7
:1038900017E06B6100F0C4F816E06968CB8873B17B
:1038A00091F900700223002F48BF012308E013782C
:1038B000042B09D100231370C9696961EAE7032366
:1038C0001370AA68FFF760FC0220A060BDE8F081D9
:1038D00040F2E870C2F2004000F11801002000BF81
:1038E0000A7832B1013030310C28F9D14FF0FF3075
:1038F000704701220A70704700210175704700006F
:10390000F0B540F2180C40F28D57C4F2040CDDF80B
:1039100018E04CEA40144FF0FF35059EC4F8F0540F
:1039200012F0800508BF40F28D47032B04F59D641B
:1039300003D023B947F0100701E047F01007D20287
:10394000E76042EA815147F60002C1F6C07200F01A
:103950000F00114001276FF3DF2603F0030241EA55
:103960000521BEF1010F07FA00F0DCF8007441EA0E
:10397000060140EA0700CCF8000441EA8241DCF885
:10398000000008BF01F5003140F00070032BCCF8B7
:10399000000008BF41F000512160F0BD00000000B0
:1039A00070B581B0DDE905EC40F208460CF0030487
:1039B0006FF3DF43C4F2040643EACE4E06F1F80388
:1039C00003EB401540014EEA44742C616A61326891
:1039D0001E5826F000561E504FF0005626EA42723E
:1039E0001E5849B232431A50B1F1FF3F009903DD2E
:1039F00021F40041009102E041F400410091C158DE
:103A00000091009921F080410091009941F000411E
:103A100000910099C15001B070BD0000000000008D
:103A200010B5846A00218162027F1AB10177006AB1
:103A300001F02EFAA26A002A08BF10BDE169E06A0F
:103A4000002958BF6169904710BD000000000000C8
:103A5000B0B584B040F2004440F2E875C4F204040A
:103A6000C2F20045206C0390206C0290029820F076
:103A70002E000290039880070BD50398C00702D050
:103A8000012004F0B9FD029840F0020002900120EC
:103A900028700398000734D5029840F0080002907F
:103AA00001206870039840072BD5039800F4C020CC
:103AB000B0F5802F11D141F270706060206800F085
:103AC000030002281DD020680190019820F0030017
:103AD0000190019840F0020010E04BF680306060E9
:103AE000206800F0030001280BD0206801900198A5
:103AF00020F003000190019840F00100019001982E
:103B000020600398800605D5029840F020000290BE
:103B10000120A8700298206404B0B0BD000000002D
:103B200081B0102040F64051C4F20400C0F20301FD
:103B300000220092009A013200928A4212D8026852
:103B4000B2F1FF3FF6DC00220092026842F001026F
:103B5000026000BF009A013200928A4202D80268D5
:103B6000D207F7D101B070470C20C4F204000168FD
:103B700021F0C0410160016841F0005101607047CF
:103B800080B582B0019040F67020C2F2004001A9D9
:103B900001224FF47A73FEF7CFF9019802B080BD8D
:103BA0000129B8BF704780B503F042FCBDE88040F2
:103BB0007047000000000000FEF7A6FCFEF774FC52
:103BC000FCF786FDFEF7F0FCFEF72AFAFEF74CFA4A
:103BD00000220020C2F2074203210F23FFF76CFAF4
:103BE00005A006F0C3FB03F057FC02F049F905F00D
:103BF00073FA00BFFEE700BF5374617274207573DF
:103C00006220686F7374207461736B2E2E2E0D000A
:103C10002DE9F04381B040F2C044C2F2074422785B
:103C2000092A5FD181466078022864D188460A2932
:103C300076D389F81D006088A9F81E00207989F8DC
:103C40002000D4F80500C9F8210009F128004FF43C
:103C5000C07189F81C20FCF785FB607A00285FD0D2
:103C600004F10901FF2609224FF0250CFF23FF2450
:103C7000487805281AD0042828D18B78062B53D2EF
:103C8000CC78002C5BD10879052860D209EB831031
:103C900014FB0C070E7A87F848600E684D687D6447
:103CA0003E64671C80F8657000260FE0E0B209EB07
:103CB0008315F7B210FB0C500136D1F80350C7EB57
:103CC000C70738440F68C564C0F849700F780020F2
:103CD000CD5D2A44424502D8002D3944C8D101B0F7
:103CE000BDE8F0834AF27E60C0F6000006F06AF894
:103CF000217821A007E04AF27E60C0F6000006F0BD
:103D000061F8617824A006F05DF84AF29A60C0F686
:103D1000000006F057F86FF0150001B0BDE8F08321
:103D2000002001B0BDE8F0834AF27E60C0F60000DA
:103D300006F048F84AF26660C0F600000EE04AF26B
:103D40007E60C0F6000006F03DF81DA006E04AF2D5
:103D50007E60C0F6000006F035F822A006F006FBF3
:103D60004AF29A60C0F6000006F02CF86FF00B00E3
:103D700001B0BDE8F08300BF696E76616C696420B4
:103D8000636F6E66696720624C656E677468203089
:103D900078253032780D0A00756E65787065637429
:103DA000656420636F6E666967206465736372691A
:103DB00070746F72203078253032780D0A00000060
:103DC000496E7465726661636520616C74736574B5
:103DD00074696E67206E756D206F766572666C6FA4
:103DE000770D0000456E64706F696E74206E756D9E
:103DF000206F766572666C6F770D00000000000022
:103E000010B540F2C044C2F207442278122A1AD1F7
:103E10006378012B20D1092938BF10BD0272D4F874
:103E200002104372D4F80A20C0F80A10D4F8061021
:103E3000C0F80E10A17BC0F812208175E17BC1751E
:103E4000218A018310BD4AF27E60C0F6000005F0B1
:103E5000B9FF217809A007E04AF27E60C0F60000B1
:103E600005F0B0FF61780DA005F0ACFF4AF29A6052
:103E7000C0F6000005F0A6FF10BD00BF696E7661B8
:103E80006C69642064657669636520624C656E6761
:103E90007468203078253032780D0A00756E6578A8
:103EA0007065637465642064657669636520646524
:103EB0007363726970746F72203078253032780DB8
:103EC0000A0000000000000010B504460078092830
:103ED0003CD16078292842D14AF67100C0F6000032
:103EE00006F044FA21784AF29F60C0F6000005F01F
:103EF00069FF61784AF2FC60C0F6000005F062FFDD
:103F0000A1784AF2BE60C0F6000005F05BFFB4F88D
:103F100003104AF23A70C0F6000005F053FF6179D1
:103F20004AF2DD60C0F6000005F04CFFA1794AF2CC
:103F30001B70C0F6000005F045FFE17920A005F0F8
:103F400041FF217A26A005F03DFF10BD4AF27E60B8
:103F5000C0F6000005F036FF217809A007E04AF21C
:103F60007E60C0F6000005F02DFF61780CA005F022
:103F700029FF4AF29A60C0F6000005F023FF10BD49
:103F8000696E76616C696420646576696365206238
:103F90004C656E677468203078253032780D0A00E1
:103FA000756E6578706563746564206465736372AB
:103FB0006970746F72203078253032780D0A0000F5
:103FC00044657669636552656D6F7661626C653ACA
:103FD0002030782530327820202020200D0A000063
:103FE000506F72745077724374726C4D61736B3A98
:103FF0002030782530327820202020200D0A000043
:10400000F0B581B04AF2206240F60C36C2F20042AE
:10401000C2F2004604460D4617683268101D04F0CF
:104020007BFE10B1601C0FD027E030684AF21052BE
:10403000C2F200420121C06A01FA00F0116821EACF
:1040400000001060601C18D1BDB14AF2F850C2F2F5
:1040500000404168326891608A683368DA6032688B
:104060008B6804325A60326804328A603168486171
:1040700001680131016001B0F0BD3068E4194460AD
:104080000AD340F61C30C2F20040006831680431A7
:1040900004F066FE01B0F0BD40F61430C2F20040FC
:1040A00000683168043104F05BFE4AF27450C2F2D9
:1040B000004001688C4238BF046001B0F0BD0000D0
:1040C0002DE9F041044604F077FE4AF2005040F634
:1040D0000C35C2F20040C2F200454AF2EC580168C9
:1040E000C2F2004801310160296849B1D8F80000E6
:1040F00060B92868E16AC06A884298BF2C6005E010
:104100002C600068012801D100F0CEF94AF20C5071
:10411000E26AC2F20040012393400168013101606C
:104120004AF2105102EB8200C2F2004140F6243202
:10413000C2F200420E6802EB800733430B607968DD
:10414000A160261D67618B68E3608B688E605E608E
:1041500052F82010013142F8201004F041FED8F846
:10416000000088B12868E16AC06A884228BFBDE8BB
:10417000F0814EF604504FF08051CEF20000016005
:10418000BFF34F8FBFF36F8FBDE8F08100000000D9
:1041900070B504F011FE4AF22466C2F2004630689F
:1041A00010B104F01DFE70BD4AF21454C2F2004476
:1041B000204604F0C5FD4AF22855C2F200452846C3
:1041C00004F0BEFD40F610301021C2F20040002283
:1041D000046040F62030C2F2004005600A2005F07D
:1041E00077F800283060DCD002A104F065FE04F00E
:1041F000F7FD70BD546D725100000000000000001A
:10420000F0B581B04AF20455C2F200452868E0B129
:104210004AF20C664AF20057C2F20046C2F2004768
:1042200004F0CAFDF068C468201D04F075FD38680C
:104230000138386028680138286004F0D1FD204634
:1042400000F05AF828680028EAD101B0F0BD00005B
:1042500080B5026C002A08BF80BDD0E902C31344B8
:10426000C360634501D30368C360C3680846194649
:10427000FCF75FF880BD000070B5866B0446036CE8
:10428000EBB1154622B3E0681A46FCF752F8E16834
:10429000206C2268091A9142E16003D24042A16871
:1042A0000844E060A81E3146002E4FF00005B0FA29
:1042B00080F018BF012140090840361A18E0206834
:1042C0000025A8B9A06805F08FFBA56005460FE0A2
:1042D00060681A46FCF72DF8216CD4E90102084405
:1042E0006060904201D2002502E0206860600025F5
:1042F000701CA063284670BD10B50446006B04F026
:104300007FFD204604F07CFD10BD00000000000091
:10431000416A21B1006B0068C0F1200070470020A5
:10432000704700000000000040F61031C2F200416A
:1043300009680A68B2FA82F3002A4FEA531202604F
:104340000EBF0020C8680068704700000000000031
:1043500041F2F440C2F20040C11D10F0070221F00A
:104360000701A0EB010318BF08464FF41041002AD3
:1043700018BF03F510414AF2F0520023C2F2004286
:1043800001440839106021F00701536040F61832EB
:10439000C2F200421160C1E90033091A416012689B
:1043A00002604AF27050C2F2004001604AF2685066
:1043B000C2F2004001604AF23C50C2F200400121CA
:1043C000017070470000000040F624344EF604559A
:1043D000C2F20044CEF200054FF08056FFF710FF06
:1043E00020680228FAD32E60BFF34F8FBFF36F8F80
:1043F000F4E700000000000010B51C4609B122607F
:1044000000E02460C4E90F010121204604F080FF90
:104410000020A06410BD00002DE9F0470A9F8246ED
:104420009946DDF824803E6B089C06EB8200A0F1E3
:10443000040020F0070679B107F13400002200BF24
:104440008B5C83548B5C1BB10F2A02F10102F7D302
:10445000002087F8430002E0002087F834001F2C7A
:1044600007F1040028BF1F240025FC62C7E911459D
:1044700004F072FC07F1180004F06EFCC4F1200097
:10448000B861304651464A463F617F62FD6487F815
:10449000505000F011FBB8F1000F386018BFC8F899
:1044A0000070BDE8F0870000B0B540F62435002468
:1044B000C2F20045281904F043FC1434B4F5207FFF
:1044C000F8D14AF24054C2F20044204604F038FCCD
:1044D0004AF25455C2F20045284604F031FC4AF233
:1044E0008850C2F2004004F02BFC4AF20C60C2F289
:1044F000004004F025FC4AF2F850C2F2004004F0FB
:104500001FFC40F61430C2F20040046040F61C303C
:10451000C2F200400560B0BD80B54AF2F052C2F26E
:10452000004200BF114612688242FBD3D1F804C09A
:1045300001EB0C03834203D14068604448600846A5
:10454000D0F804E000EB0E0393420CD140F6183390
:10455000C2F20043D3F800C0624509D00B6852682C
:10456000724442601A680260814218BF086080BDD0
:10457000C0F800C0F8E7000080B58C4601469445BD
:10458000006141F804CF08D99A4201D29C4511D26A
:1045900040F61030C2F2004007E0D21A8069824231
:1045A00008D240F62030C2F20040006804F0D8FB88
:1045B000002080BD012080BD10B5044604F0FCFB46
:1045C000A06BB0FA80F0440904F00AFC204610BD4C
:1045D00070B582B0846C0190A06BE16B88420DD203
:1045E00094F8456001A900222046FFF745FEFF2E02
:1045F000054605D0701C84F845000AE0002508E057
:1046000054F8240F28B1204605F09AFA002818BF64
:104610000125284602B070BD08480068006880F394
:1046200008884FF0000080F3148862B661B6BFF3CB
:104630004F8FBFF36F8F00DF00BF00BF08ED00E0BA
:1046400070B540F610320646C2F200420D461268BE
:10465000D268D468201D04F05FFB94F82400410761
:1046600004D400F0FE0084F8240004E02046314623
:104670002A4600F0C5F8216A2046884770BD000030
:104680002DE9F04186B04AF2246402A9C2F2004446
:104690000022206804F030FF00286BD00DF10408E0
:1046A00002AD06E020680022294604F025FF00281C
:1046B00060D00298B0F1FF3F03DCDDE903200599EB
:1046C000904702980028EDD4049E706910B1301D07
:1046D00004F022FB404600F0C7F80299013908298E
:1046E000E0D80746DFE801F014142C053E14142C22
:1046F000050096F824003A463B4640F0010086F853
:1047000024000398B061C1193046FFF735FFC9E7AF
:1047100096F82400039BB1693A4640F0010086F800
:10472000240019443046FFF727FF0028BAD096F836
:10473000240041070BD400F0FE0086F824000DE0B1
:1047400096F8240000F0FE0086F82400AAE70398FB
:10475000B169014430463A4600F052F8316A3046B9
:1047600088479FE796F824008107EBD4304604F091
:1047700047FB97E706B0BDE8F081000000000000AD
:1047800070B582B00E46044604F0EAFC01A800F0C1
:104790006BF8019919B105F043FA02B070BD0546F6
:1047A0004EB9A54207D305F03BFA20462946FFF74C
:1047B00047FF02B070BD4EB140F62030C2F200405B
:1047C00000680068B0FA80F0420900E000224AF276
:1047D0002460611BC2F20040006804F095FB05F004
:1047E0001FFA0028D9D14EF604504FF08051CEF276
:1047F00000000160BFF34F8FBFF36F8F02B070BD39
:1048000070B5044680690E4601442046334615467D
:10481000FFF7B2FE002808BF70BD00BFA069216A83
:10482000064420468847A0692A4681192046334617
:10483000FFF7A2FE0028F1D170BD000000000000CB
:1048400040F61430C2F200400168096819B10068EE
:10485000C068006801E04FF0FF304AF27451C2F2C4
:10486000004108607047000070B5044604F0E8FF9E
:1048700040F608360546C2F200463168884203D247
:1048800000F00AF8012000E0002020602846356092
:1048900070BD00000000000010B540F61034C2F2F8
:1048A00000442068016849B1C0684FF0FF310068DA
:1048B000FFF7C6FE206801680029F5D140F62031D7
:1048C000C2F200410A682260086010BD00000000CA
:1048D00081B0002000904FF0500072B680F3118834
:1048E000BFF36F8FBFF34F8F62B600BF00980028F1
:1048F000FCD001B07047000082B001AC2046FFF749
:1049000013FD0199FFF73CFFFFF7BAFEF6E7000041
:10491000F0B581B0044604F04FFA94F94560012ED9
:1049200018DB04F1240503E070B2013E012811DD1B
:10493000A06C28B12046FFF74BFE40B9F4E700BF5A
:10494000286838B1284605F0FBF80028ECD004F0C0
:104950002BFBE9E7FF2684F8456004F041FA04F0F8
:104960002BFA94F94470012F10DB04F1100503E0D9
:1049700078B2013F012809DD286838B1284605F0E2
:10498000DFF80028F4D004F00FFBF1E784F844606E
:1049900004F026FA01B0F0BD2DE9F04381B00446E1
:1049A00004F0DEFB40F61839C2F20049D9F80000E5
:1049B00008B9FFF7CDFC4AF23C50C2F2004005783E
:1049C000002D18BF4FF00045254201D0002461E0C2
:1049D00074B114F1090F0BD804F1080111F00700AC
:1049E00007D0081A0830884298BF0020014600E02E
:1049F00000214AF26858481EC2F20048D8F8004028
:104A0000A04216D24AF2F050C2F200400668374681
:104A100057F8042F8A4212D2306860B130463668A7
:104A2000374657F8042F8A4209D23368002BF5D154
:104A300005E000242EE04AF2F050C2F20040D9F81E
:104A400000309E4225D0521AD0F80090112A3368C7
:104A5000036004D3701842603960FFF75DFD4AF2CD
:104A600070513868C2F20041221AC8F8002009F1DA
:104A700008040B6828439A4238BF0A604AF27C5106
:104A80003860C2F2004100203060086801300860E0
:104A900000E0002405F0C4F8204601B0BDE8F08332
:104AA00040F60C30C2F20040016819B101688A6C0E
:104AB00001328A640068704744F6D10321F0010195
:104AC000C0F6000340F80C3C4FF0807340E902133D
:104AD0006FF0020140F8241CA0F1440140F8202CA2
:104AE000084670470000000070B540F2E8744FF4CB
:104AF0001171C2F200442046FBF734FC6FF02F0521
:104B0000002000F0BDF961193035B5F5047F486526
:104B1000F6D10826C4F2040600F00AF94AF28C65C0
:104B2000C0F60005284605F04DF95DA005F01EFC15
:104B30004AF29A64C0F60004204605F043F928467C
:104B400005F040F9716B5FA005F03CF9204605F0D7
:104B500039F9284605F036F9B16B5DA005F032F958
:104B6000204605F02FF9284605F02CF9F16B5CA0E2
:104B700005F028F9204605F025F9284605F022F928
:104B8000316C5BA005F01EF9204605F01BF92846A4
:104B900005F018F9716C5AA005F014F9204605F0DB
:104BA00011F9284605F00EF9B16C59A005F00AF983
:104BB000204605F007F9306C10F0180F5FD0306810
:104BC00020F001003060FEF783FBFEF7CDFF3220BE
:104BD00000F046F940F600600024C4F204000460CE
:104BE000306B20F400103063306B20F40030306301
:104BF000D6F8F80340F00100C6F8F803D6F8F80339
:104C000020F00400C6F8F803FEF7A2FBFEF788FBCD
:104C10004FF0FF30002100BF72182031B1F5C07F86
:104C2000C2F80005C2F80445F6D1FEF761FBC820C2
:104C300000F016F9002030614FF0FF30F0604FF4C3
:104C40000070F06140F20020C0F20010306240F2CB
:104C50000030C0F2E000C6F8F800306840F006000E
:104C60003060306840F020003060306940F00C5017
:104C700030613168002041F00101316070BD28A031
:104C800005F0A0F84AF6B940C0F6000005F06EFB4A
:104C90004AF29A60C0F6000005F094F8FEE700BF03
:104CA0003D3D3D3D3D3D3D3D3D3D20445743322052
:104CB000706172616D73203D3D3D3D3D3D3D3D3D2B
:104CC0003D0D00004349443A253038780D0A000074
:104CD00047534E505349443A253038780D0A000066
:104CE000474857434647313A253038780D0A000087
:104CF000474857434647323A253038780D0A000076
:104D0000474857434647333A253038780D0A000064
:104D1000474857434647343A253038780D0A000053
:104D20001B5B33316D5B452F5553425D2000000006
:104D300070B5B6B002ACBC21204600253595CDE952
:104D40003355CDE93155FBF70DFB4FF48020029030
:104D500019200B90F0200C9002260D960520CDE92D
:104D60000E06CDE910554FF4001023902046129501
:104D7000FBF7F2FE88BBFBF7A7FD44F2D84431A94C
:104D8000C5F60204A06840F00200A060A06800F030
:104D90000200019001984FF44040CDE93106032014
:104DA00034900C20359040F200403395C5F6020057
:104DB000FBF79AFB2068002140F00070206020681B
:104DC000002200F00070019001984D20FBF744FD97
:104DD0004D20FBF73DFD36B070BDFBF77DFB0000BD
:104DE0004FF0500072B680F31188BFF36F8FBFF39E
:104DF0004F8F62B601207047002080F31188704702
:104E000080B50421002204F063FA80BD0000000098
:104E100080B504F071FB013818BF6FF0730080BDDE
:104E200080B582B001910021009101A96A4600235A
:104E300004F0AEFA01280CD1009951B14EF604519C
:104E40004FF08052CEF200010A60BFF34F8FBFF3E4
:104E50006F8F013818BF6FF0730002B080BD000083
:104E600080B54FF47A71484344F6D351C1F26201E0
:104E7000A0FB0101880904F06BF880BD0000000070
:104E800080B50146012004F00FFA80BD000000004B
:104E900080B582B00021019101A904F0E1FA012856
:104EA0000CD1019951B14EF604514FF08052CEF21F
:104EB00000010A60BFF34F8FBFF36F8F013818BF37
:104EC0006FF0730002B080BD80B54FF47A72514329
:104ED00044F6D352C1F26202A1FB0212910904F01E
:104EE0009FFB013818BF6FF0730080BD0000000009
:104EF00080B584B09C468646069B0020039003A89C
:104F0000009201906046C1F38F02714604F068FC84
:104F1000039804B080BD000040F6FC21C2F20041BD
:104F20000A4609680029FBD1106000210160704722
:104F300040F6FC21C2F200410A460968814218BFCE
:104F40000029F9D100291CBF0868106070470000D3
:104F5000B0B540F62C2E4FF0010CC2F2004E9EF878
:104F600000301A46D0B202F01F0501320CFA05F5E6
:104F7000C0F342117E280EEB810151F8044F88BF27
:104F80000222254206D08342ECD16FF00B008EF84E
:104F90000020B0BD8EF8002045EA04020A60B0BDD2
:104FA0002DE9F047814690F874000E46D9F80020AC
:104FB000D2F8B881D8B199F8744009F120054FF0C2
:104FC000FF0A002755F8041C3046FBF7E2F90137C9
:104FD000002808BF95F800A0A74205F12C05F1D3E1
:104FE000BAF1FF0F08D16FF01200BDE8F0874FF063
:104FF000FF0ABAF1FF0FF6D04AF28C60C0F600004B
:1050000004F0E0FE1DA0314604F0DCFE4AF29A6096
:10501000C0F6000004F0D6FED9F8000000EB8A10BC
:1050200090F97000B0F1FF3F4FF0000089F81400D4
:1050300008DDD9F80C0068B102F026FE0020C9F89E
:105040000C0007E0D9F8080020B102F01DFE002096
:10505000C9F8080040F60130C8F80000D9F800107F
:1050600000225FFA8AF0A8F804000020A8F80600E1
:105070004868414600F03CFFBDE8F087436C6F7321
:105080006520617564696F206D6F64756C65203A89
:1050900025730D0A000000002DE9F04F89B005903E
:1050A00078208B4605F02CF9002800F02681782125
:1050B0000446FBF757F9204600F01AFA059A2260D9
:1050C00084F804B002EB8B11D2F8B4A191F8A500DA
:1050D000CC6360769AF80010002900F02081013836
:1050E000049004F13800029004F12B000090002598
:1050F000FF224FF0FF0EFF274FF000080020002690
:1051000004F11C0106910BE09AF802209AF8037052
:105110009AF800101AF801308A44002B00F004813C
:105120009AF801100429EFD0242905D00B29EFD1DA
:105130009AF803E0ECE700BF5A4511D19AF8021043
:1051400001390529E4D8DFE801F004705303039521
:10515000DEE7BAF80310E1829AF807102176D7E764
:10516000D6D95BFA8EF19142D2D99AF8021002296F
:10517000CED1CDE907560146069BC1B22C2511FBC5
:105180000533CDF80C80BC465FFA87F8574603EB31
:10519000081517F8079F1A7117F8033C17F8046CE5
:1051A0002B7717F8013CB9F1000F6E77AB7785F8D4
:1051B0001F9013D02C235943029B01EB08115E185A
:1051C00017F8011FB9F101097B78BD784FEA032375
:1051D00043EA0543194446F8041FF1D10499674690
:1051E000414508BF0130DDE90756DDF80C808FE747
:1051F0008146AC463D4606995FFA88F72C2017FB9E
:105200000011BAF8043008969AF8036040F20130B1
:1052100083428E728B8155D040F201102F4683421B
:105220006546484657D10E7655E0CDF804E0BE46B7
:10523000EFB206992C23089617FB0311BAF8043035
:105240009AF8036040F201290795BAF808504B45D7
:10525000CDF80CB04E71CB800D8140D040F20115DD
:105260007746AB42DDF80CB0DDF804E0079D41D194
:105270000E763FE0CDE90757F1B2069B2C25844618
:1052800011FB05339AF8055030469AF803609E7377
:10529000DD738DB1009B2C2511FB05360AF1060745
:1052A0004FF0FF317B188D1C01315B7806F8013F10
:1052B0009AF805309D42F5D30646461CDDE90757AE
:1052C000604625E72C20069B07FB00F145A02F46F2
:1052D00065465850484608F10108089E18E72C21F9
:1052E000069B794341A57746DDF80CB0DDF804E074
:1052F0005D50079D0135089E0AE74AF27E60C0F6C0
:10530000000004F05FFD4EA005F030F84AF29A600C
:10531000C0F6000004F056FD6FF00B075EE00026BB
:1053200000204FF000080025E9B2C2B2914206D039
:105330005FFA88F291421CBFF2B2914216D129065F
:1053400084F874500FD004F11C0600253168204603
:10535000FFF726FEB0F1FF3F0BDD94F87400013536
:105360002C368542F2D30120C0B315E06FF015074B
:1053700034E007464AF27E60C0F6000004F022FDE9
:1053800031681BA004F01EFD4AF29A60C0F60000CE
:1053900004F018FD002008B3204600F0D1F805986D
:1053A00063791CA2102100EB8B1000F12805284620
:1053B00004F018FD4AF28C60C0F6000004F002FD13
:1053C00018A0294604F0FEFC4AF29A60C0F60000DC
:1053D00004F0F8FC204600F0F3F90027384609B045
:1053E000BDE8F08F737065616B6572006D69630075
:1053F0004661696C20746F20636C6F736520617502
:1054000064696F206D6F64756C65203A25730D0AB1
:10541000000000002F6465762F617564696F256454
:1054200000000000526567697374657220417564FD
:10543000696F20436C6173733A25730D0A00000095
:105440004661696C20746F20616C6C6F63206175BC
:1054500064696F5F636C6173730D0000000000008E
:10546000B0B500EB8115EC6B3CB3204600F058F86A
:10547000A06808B102F008FCE06808B102F004FC82
:1054800015F8280F90B14AF28C60C0F6000004F0C5
:1054900099FC0BA0294604F095FC4AF29A60C0F6EC
:1054A000000004F08FFC204600F08EF978212046A1
:1054B000FAF758FF204604F0FBFE0020B0BD00BF05
:1054C000556E726567697374657220417564696FA2
:1054D00020436C6173733A25730D0A0000000000CD
:1054E000002070470000000000207047000000000E
:1054F00080B540F2E07C0022C2F2004C4FF0010E79
:10550000DCF800300EFA02F10B4203D00132202AFF
:10551000F8D180BD1943CCF80010427180BD000065
:1055200040791F2888BF704740F2E0720121C2F223
:10553000004201FA00F0116821EA00001060704793
:105540002DE9F04F83B04AF28C660446C0F600069F
:10555000304604F037FC75A004F008FF4AF29A6563
:10556000C0F60005284604F02DFC304604F02AFC65
:10557000E18A7DA004F026FC284604F023FC304696
:1055800004F020FC94F874107BA004F01BFC284667
:1055900004F018FC304604F015FC617E7CA004F099
:1055A00011FC284604F00EFC94F87400002800F06A
:1055B000A7804AF28C654AF29A674AF6F82A0026D2
:1055C000C0F60005C0F60007C0F6000AA04604F1C8
:1055D0003C0001900BE000BF94F87400009E01367F
:1055E0008642019800F12C00019080F089802846C5
:1055F00004F0E8FB2C20009606FB00466AA0F16947
:1056000004F0E0FB384604F0DDFB284604F0DAFB4A
:1056100096F82A104AF65A20C0F60000029604F0C6
:10562000D1FB384604F0CEFB607E0028D4D04FF08A
:10563000000BDDF8049011E04AF61F30C0F60000C0
:1056400004F094FE384604F0BDFB98F819000BF105
:10565000010B444609F110098345BDD2284604F0E8
:10566000B1FBBBF1000FE7D04AF679205946C0F6EE
:10567000000004F0A7FB384604F0A4FB284604F021
:10568000A1FB029800EB0B164AF6D820C0F60000EA
:1056900096F8381004F096FB384604F093FB284641
:1056A00004F090FB96F83A104AF6B320C0F60000DA
:1056B00004F088FB384604F085FB284604F082FBA2
:1056C00016F83B1F4AF68F20C0F6000004F07AFB64
:1056D000384604F077FB30780028B6D0002400BFAD
:1056E000284604F06FFB59F82410504604F06AFB7A
:1056F000384604F067FB307801348442F0D3A4E7E5
:105700004AF28C60C0F6000004F05CFB4AF63A30C6
:10571000C0F6000004F02AFE4AF29A60C0F60000CB
:1057200004F050FB03B0BDE8F08F00BF3D3D3D3DB0
:105730003D3D3D3D3D3D3D3D3D20417564696F2012
:105740006D6F64756C6520696E666F726D617469EA
:105750006F6E203D3D3D3D3D3D3D3D3D3D3D3D3D33
:105760003D3D3D3D3D3D0D00626364414443203A73
:10577000253034780D0A00004E756D206F66206D5F
:105780006F64756C6573203A25750D0A0000000082
:105790004E756D206F6620616C7473657474696EEC
:1057A00067733A25750D0A0020206D6F64756C656E
:1057B000206E616D65203A25730D0A00000000001F
:1057C000704700000000000070470000000000006B
:1057D0002DE9F04114461F2298460F46064601F077
:1057E000DFFE00280AD4BA6802B3FD7B30462A2DBA
:1057F00007D1414601F0D4FE054615E0054630A428
:1058000038E0414601F0B0FE252D05460CD1002DB3
:105810000AD4D8F8000000BA01303067B8F80600A2
:1058200000BA000CA6F87400002D22D400202073CA
:10583000A0600D22606021462060304601F094FE99
:105840000546002813D445F255312068C5F242318F
:10585000884222D1207BE0B14AF27E60C0F600008F
:1058600004F0B0FA217B2DA004F0ACFA1EE020A4D5
:1058700000E018A44AF27E60C0F6000004F0A2FA2C
:10588000204604F073FD4AF29A60C0F6000004F06E
:1058900099FA05EAE570BDE8F0814AF27E60C0F64B
:1058A000000004F08FFA17A004F060FD4AF29A603D
:1058B000C0F6000004F086FA6FF01500BDE8F08134
:1058C000636277207472616E7366657220657272AE
:1058D0006F720D006D736320646174612074726176
:1058E0006E73666572206572726F720D0000000043
:1058F000637377207472616E73666572206572726D
:105900006F720D00637377207369676E61747572CF
:1059100065206572726F720D00000000637377205E
:10592000625374617475732025640D0A00000000D1
:10593000016040F200014FF0000CC2F20741C0E9E3
:1059400001C1C26040F6B831816100998362C162D1
:10595000704700000000000000F1040C016000210D
:105960008CE80E0041F288328261C0E90A1170476A
:105970000129B8BF7047F0B581B040F200074AF284
:1059800053450C460026C2F20747C0F6000500BF8B
:10599000B95D284604F016FA0136B442F8D14AF24D
:1059A00030402146C0F6000004F00CFA01B0BDE81A
:1059B000F0407047000000002DE9F04782461820B3
:1059C000894604F09DFC00286AD00446054600275D
:1059D000C0E90277C0E9047744F8047F076000F06B
:1059E000CBF809F101060AF1280000EB8911C5F88E
:1059F00000A000EB861085F80B904D6121464761B1
:105A00004FF4E13020600820A87228462E732F81C1
:105A100000F022F9B0F1FF3F55DD012101222846B7
:105A200000F03AF98046002856D40AEB861414F8A0
:105A3000440FA8B10AEB8910002700F18B0600BFC4
:105A4000B21E16F9070B514600284FF0140048BF4C
:105A50001020284400F0C0FF207801378742EFD3A0
:105A60000AEB8910EB7B00F1280624A210213046B6
:105A700004F0B8F94AF28C60C0F6000004F0A2F914
:105A800022A0314604F09EF94AF29A60C0F6000066
:105A900004F098F9284600F0DBF84046BDE8F087AE
:105AA0004AF27E60C0F6000004F08CF92AA004F0EF
:105AB0005DFC4AF29A60C0F6000004F083F96FF0D2
:105AC0000B00BDE8F08780464AF27E60C0F6000019
:105AD00004F078F91AA006E04AF27E60C0F60000F1
